{
  "contractName": "CoachVotingMechanism",
  "abi": [
    {
      "inputs": [
        {
          "internalType": "contract MVCToken",
          "name": "myMvcToken",
          "type": "address"
        }
      ],
      "stateMutability": "nonpayable",
      "type": "constructor"
    },
    {
      "anonymous": false,
      "inputs": [
        {
          "indexed": false,
          "internalType": "address",
          "name": "sender",
          "type": "address"
        },
        {
          "indexed": false,
          "internalType": "string",
          "name": "candidateName",
          "type": "string"
        },
        {
          "indexed": false,
          "internalType": "uint256",
          "name": "amount",
          "type": "uint256"
        }
      ],
      "name": "ProposalReceived",
      "type": "event"
    },
    {
      "anonymous": false,
      "inputs": [
        {
          "indexed": true,
          "internalType": "uint256",
          "name": "_candidateId",
          "type": "uint256"
        }
      ],
      "name": "votedEvent",
      "type": "event"
    },
    {
      "inputs": [],
      "name": "candidateCount",
      "outputs": [
        {
          "internalType": "uint256",
          "name": "",
          "type": "uint256"
        }
      ],
      "stateMutability": "view",
      "type": "function"
    },
    {
      "inputs": [
        {
          "internalType": "uint256",
          "name": "",
          "type": "uint256"
        }
      ],
      "name": "candidates",
      "outputs": [
        {
          "internalType": "uint256",
          "name": "id",
          "type": "uint256"
        },
        {
          "internalType": "string",
          "name": "name",
          "type": "string"
        },
        {
          "internalType": "uint256",
          "name": "voteCount",
          "type": "uint256"
        },
        {
          "internalType": "address",
          "name": "ownerAddress",
          "type": "address"
        }
      ],
      "stateMutability": "view",
      "type": "function"
    },
    {
      "inputs": [],
      "name": "contractAddress",
      "outputs": [
        {
          "internalType": "address",
          "name": "",
          "type": "address"
        }
      ],
      "stateMutability": "view",
      "type": "function"
    },
    {
      "inputs": [
        {
          "internalType": "address",
          "name": "",
          "type": "address"
        }
      ],
      "name": "haveVoted",
      "outputs": [
        {
          "internalType": "bool",
          "name": "",
          "type": "bool"
        }
      ],
      "stateMutability": "view",
      "type": "function"
    },
    {
      "inputs": [],
      "name": "mvcToken",
      "outputs": [
        {
          "internalType": "contract MVCToken",
          "name": "",
          "type": "address"
        }
      ],
      "stateMutability": "view",
      "type": "function"
    },
    {
      "inputs": [
        {
          "internalType": "uint256",
          "name": "candidateId",
          "type": "uint256"
        },
        {
          "internalType": "address",
          "name": "voterAddress",
          "type": "address"
        }
      ],
      "name": "voteForCandidate",
      "outputs": [],
      "stateMutability": "payable",
      "type": "function"
    }
  ],
  "bytecode": "0x60806040523480156200001157600080fd5b50604051620015f9380380620015f98339818101604052810190620000379190620005bf565b600073feb798ed0e1ec865bf80703ca1e1bb7a48ddeafa905060007348f84a00f895be17bd4fa9e0731c7b39eacd6fbe9050600073cf16fe704d4b01ecdd98a41af04b92008d2a32cc9050600073709e646fc789ec4b3d093c8871f66640e9c60616905060007222872cd7dc3e7ea18242d815b85bf972df29b79050620000fa6040518060400160405280600e81526020017f42696c6c2042656c69636869636b00000000000000000000000000000000000081525086620002a360201b60201c565b620001416040518060400160405280600b81526020017f4d696b652056726162656c00000000000000000000000000000000000000000081525085620002a360201b60201c565b620001886040518060400160405280600e81526020017f4272616e646f6e205374616c657900000000000000000000000000000000000081525084620002a360201b60201c565b620001cf6040518060400160405280600b81526020017f4672616e6b20526569636800000000000000000000000000000000000000000081525083620002a360201b60201c565b620002166040518060400160405280600b81526020017f4d696b65205a696d6d657200000000000000000000000000000000000000000081525082620002a360201b60201c565b30600560006101000a81548173ffffffffffffffffffffffffffffffffffffffff021916908373ffffffffffffffffffffffffffffffffffffffff160217905550856000806101000a81548173ffffffffffffffffffffffffffffffffffffffff021916908373ffffffffffffffffffffffffffffffffffffffff160217905550505050505050620009eb565b620002bb60016004546200046260201b90919060201c565b6004819055506001600360008373ffffffffffffffffffffffffffffffffffffffff1673ffffffffffffffffffffffffffffffffffffffff16815260200190815260200160002060006101000a81548160ff0219169083151502179055506001600260008373ffffffffffffffffffffffffffffffffffffffff1673ffffffffffffffffffffffffffffffffffffffff16815260200190815260200160002060006101000a81548160ff02191690831515021790555060606040518060a001604052806004548152602001848152602001600181526020018373ffffffffffffffffffffffffffffffffffffffff16815260200182815250600160006004548152602001908152602001600020600082015181600001556020820151816001019081620003e991906200086b565b506040820151816002015560608201518160030160006101000a81548173ffffffffffffffffffffffffffffffffffffffff021916908373ffffffffffffffffffffffffffffffffffffffff16021790555060808201518160040190805190602001906200045992919062000493565b50905050505050565b600080828462000473919062000981565b905083811015620004895762000488620009bc565b5b8091505092915050565b8280548282559060005260206000209081019282156200050f579160200282015b828111156200050e5782518260006101000a81548173ffffffffffffffffffffffffffffffffffffffff021916908373ffffffffffffffffffffffffffffffffffffffff16021790555091602001919060010190620004b4565b5b5090506200051e919062000522565b5090565b5b808211156200053d57600081600090555060010162000523565b5090565b600080fd5b600073ffffffffffffffffffffffffffffffffffffffff82169050919050565b6000620005738262000546565b9050919050565b6000620005878262000566565b9050919050565b62000599816200057a565b8114620005a557600080fd5b50565b600081519050620005b9816200058e565b92915050565b600060208284031215620005d857620005d762000541565b5b6000620005e884828501620005a8565b91505092915050565b600081519050919050565b7f4e487b7100000000000000000000000000000000000000000000000000000000600052604160045260246000fd5b7f4e487b7100000000000000000000000000000000000000000000000000000000600052602260045260246000fd5b600060028204905060018216806200067357607f821691505b6020821081036200068957620006886200062b565b5b50919050565b60008190508160005260206000209050919050565b60006020601f8301049050919050565b600082821b905092915050565b600060088302620006f37fffffffffffffffffffffffffffffffffffffffffffffffffffffffffffffffff82620006b4565b620006ff8683620006b4565b95508019841693508086168417925050509392505050565b6000819050919050565b6000819050919050565b60006200074c62000746620007408462000717565b62000721565b62000717565b9050919050565b6000819050919050565b62000768836200072b565b62000780620007778262000753565b848454620006c1565b825550505050565b600090565b6200079762000788565b620007a48184846200075d565b505050565b5b81811015620007cc57620007c06000826200078d565b600181019050620007aa565b5050565b601f8211156200081b57620007e5816200068f565b620007f084620006a4565b8101602085101562000800578190505b620008186200080f85620006a4565b830182620007a9565b50505b505050565b600082821c905092915050565b6000620008406000198460080262000820565b1980831691505092915050565b60006200085b83836200082d565b9150826002028217905092915050565b6200087682620005f1565b67ffffffffffffffff811115620008925762000891620005fc565b5b6200089e82546200065a565b620008ab828285620007d0565b600060209050601f831160018114620008e35760008415620008ce578287015190505b620008da85826200084d565b8655506200094a565b601f198416620008f3866200068f565b60005b828110156200091d57848901518255600182019150602085019450602081019050620008f6565b868310156200093d578489015162000939601f8916826200082d565b8355505b6001600288020188555050505b505050505050565b7f4e487b7100000000000000000000000000000000000000000000000000000000600052601160045260246000fd5b60006200098e8262000717565b91506200099b8362000717565b9250828201905080821115620009b657620009b562000952565b5b92915050565b7f4e487b7100000000000000000000000000000000000000000000000000000000600052600160045260246000fd5b610bfe80620009fb6000396000f3fe6080604052600436106100555760003560e01c80630b9675841461005a5780633477ee2e14610076578063503649a9146100b6578063600e9850146100f3578063a9a981a31461011e578063f6b4dfb414610149575b600080fd5b610074600480360381019061006f91906106d6565b610174565b005b34801561008257600080fd5b5061009d60048036038101906100989190610716565b6104c9565b6040516100ad94939291906107f1565b60405180910390f35b3480156100c257600080fd5b506100dd60048036038101906100d8919061083d565b6105a1565b6040516100ea9190610885565b60405180910390f35b3480156100ff57600080fd5b506101086105c1565b60405161011591906108ff565b60405180910390f35b34801561012a57600080fd5b506101336105e5565b604051610140919061091a565b60405180910390f35b34801561015557600080fd5b5061015e6105eb565b60405161016b9190610935565b60405180910390f35b600260003373ffffffffffffffffffffffffffffffffffffffff1673ffffffffffffffffffffffffffffffffffffffff16815260200190815260200160002060009054906101000a900460ff1615610201576040517f08c379a00000000000000000000000000000000000000000000000000000000081526004016101f89061099c565b60405180910390fd5b600260008273ffffffffffffffffffffffffffffffffffffffff1673ffffffffffffffffffffffffffffffffffffffff16815260200190815260200160002060009054906101000a900460ff161561028e576040517f08c379a000000000000000000000000000000000000000000000000000000000815260040161028590610a08565b60405180910390fd5b600260008054906101000a900473ffffffffffffffffffffffffffffffffffffffff1673ffffffffffffffffffffffffffffffffffffffff166370a08231336040518263ffffffff1660e01b81526004016102e99190610935565b602060405180830381865afa158015610306573d6000803e3d6000fd5b505050506040513d601f19601f8201168201806040525081019061032a9190610a3d565b101561036b576040517f08c379a000000000000000000000000000000000000000000000000000000000815260040161036290610ab6565b60405180910390fd5b60008211801561037d57506004548211155b61038657600080fd5b6001600260003373ffffffffffffffffffffffffffffffffffffffff1673ffffffffffffffffffffffffffffffffffffffff16815260200190815260200160002060006101000a81548160ff02191690831515021790555061040760018060008581526020019081526020016000206002015461061190919063ffffffff16565b600160008481526020019081526020016000206002018190555060016000838152602001908152602001600020600401819080600181540180825580915050600190039060005260206000200160009091909190916101000a81548173ffffffffffffffffffffffffffffffffffffffff021916908373ffffffffffffffffffffffffffffffffffffffff160217905550817ffff3c900d938d21d0990d786e819f29b8d05c1ef587b462b939609625b684b1660405160405180910390a25050565b60016020528060005260406000206000915090508060000154908060010180546104f290610b05565b80601f016020809104026020016040519081016040528092919081815260200182805461051e90610b05565b801561056b5780601f106105405761010080835404028352916020019161056b565b820191906000526020600020905b81548152906001019060200180831161054e57829003601f168201915b5050505050908060020154908060030160009054906101000a900473ffffffffffffffffffffffffffffffffffffffff16905084565b60026020528060005260406000206000915054906101000a900460ff1681565b60008054906101000a900473ffffffffffffffffffffffffffffffffffffffff1681565b60045481565b600560009054906101000a900473ffffffffffffffffffffffffffffffffffffffff1681565b60008082846106209190610b65565b90508381101561063357610632610b99565b5b8091505092915050565b600080fd5b6000819050919050565b61065581610642565b811461066057600080fd5b50565b6000813590506106728161064c565b92915050565b600073ffffffffffffffffffffffffffffffffffffffff82169050919050565b60006106a382610678565b9050919050565b6106b381610698565b81146106be57600080fd5b50565b6000813590506106d0816106aa565b92915050565b600080604083850312156106ed576106ec61063d565b5b60006106fb85828601610663565b925050602061070c858286016106c1565b9150509250929050565b60006020828403121561072c5761072b61063d565b5b600061073a84828501610663565b91505092915050565b61074c81610642565b82525050565b600081519050919050565b600082825260208201905092915050565b60005b8381101561078c578082015181840152602081019050610771565b60008484015250505050565b6000601f19601f8301169050919050565b60006107b482610752565b6107be818561075d565b93506107ce81856020860161076e565b6107d781610798565b840191505092915050565b6107eb81610698565b82525050565b60006080820190506108066000830187610743565b818103602083015261081881866107a9565b90506108276040830185610743565b61083460608301846107e2565b95945050505050565b6000602082840312156108535761085261063d565b5b6000610861848285016106c1565b91505092915050565b60008115159050919050565b61087f8161086a565b82525050565b600060208201905061089a6000830184610876565b92915050565b6000819050919050565b60006108c56108c06108bb84610678565b6108a0565b610678565b9050919050565b60006108d7826108aa565b9050919050565b60006108e9826108cc565b9050919050565b6108f9816108de565b82525050565b600060208201905061091460008301846108f0565b92915050565b600060208201905061092f6000830184610743565b92915050565b600060208201905061094a60008301846107e2565b92915050565b7f55736572206163636f756e742068617320616c726561647920766f7465640000600082015250565b6000610986601e8361075d565b915061099182610950565b602082019050919050565b600060208201905081810360008301526109b581610979565b9050919050565b7f5573657220616464726573732068617320616c726561647920766f7465640000600082015250565b60006109f2601e8361075d565b91506109fd826109bc565b602082019050919050565b60006020820190508181036000830152610a21816109e5565b9050919050565b600081519050610a378161064c565b92915050565b600060208284031215610a5357610a5261063d565b5b6000610a6184828501610a28565b91505092915050565b7f496e73756666696369656e74204d564320746f6b656e7320746f20766f746500600082015250565b6000610aa0601f8361075d565b9150610aab82610a6a565b602082019050919050565b60006020820190508181036000830152610acf81610a93565b9050919050565b7f4e487b7100000000000000000000000000000000000000000000000000000000600052602260045260246000fd5b60006002820490506001821680610b1d57607f821691505b602082108103610b3057610b2f610ad6565b5b50919050565b7f4e487b7100000000000000000000000000000000000000000000000000000000600052601160045260246000fd5b6000610b7082610642565b9150610b7b83610642565b9250828201905080821115610b9357610b92610b36565b5b92915050565b7f4e487b7100000000000000000000000000000000000000000000000000000000600052600160045260246000fdfea2646970667358221220a4de6013c372d4800d1fc07305bcef3a12bb82d8a0dc26d99ef4581fc6329ba464736f6c63430008130033",
  "immutableReferences": {},
  "source": "// SPDX-License-Identifier: UNLICENSED\r\npragma solidity ^0.8.19;\r\n\r\nimport \"./safemath.sol\";\r\nimport \"./MVCToken.sol\" as MVCTokenContract;\r\n//import \"./SkolFaithful.sol\";\r\n\r\n// This contract is where proposals for head coach candidates are sent to and where votes are cast for a head coach\r\n// It also controls the distribution of MVCs and REP tokens when voting finishes\r\ncontract CoachVotingMechanism {\r\n    // some coaches already proposed\r\n    // some coaches free to make a proposal for\r\n\r\n    MVCTokenContract.MVCToken public mvcToken;\r\n\r\n    using SafeMath for uint;\r\n\r\n    struct Candidate {\r\n        uint id;\r\n        string name;\r\n        uint voteCount;\r\n        address ownerAddress;\r\n        address[] votersForCandidate;\r\n    }\r\n\r\n    mapping(uint => Candidate) public candidates;\r\n    mapping(address => bool) public haveVoted;\r\n    mapping(address => bool) private hasProposed;\r\n    uint public candidateCount;\r\n    //uint private totalEther;\r\n    //uint private totalMVCS;\r\n\r\n    event votedEvent (\r\n        uint indexed _candidateId\r\n    );\r\n\r\n    event ProposalReceived(address sender, string candidateName, uint amount);\r\n\r\n    address public contractAddress;\r\n\r\n    constructor (MVCTokenContract.MVCToken myMvcToken) {\r\n        address temp2 = 0xFeb798ed0E1eC865Bf80703cA1E1Bb7a48DdEAfa;\r\n        address temp3 = 0x48f84a00F895be17BD4Fa9e0731c7b39eAcd6FBe;\r\n        address temp4 = 0xCF16fe704d4b01ecDD98A41af04B92008D2a32CC;\r\n        address temp5 = 0x709E646fc789ec4b3D093C8871f66640E9c60616;\r\n        address temp6 = 0x0022872cD7Dc3E7eA18242D815B85bF972df29b7;\r\n        addCandidate(\"Bill Belichick\", temp2);\r\n        addCandidate(\"Mike Vrabel\", temp3);\r\n        addCandidate(\"Brandon Staley\", temp4);\r\n        addCandidate(\"Frank Reich\", temp5);\r\n        addCandidate(\"Mike Zimmer\", temp6);\r\n\r\n        contractAddress = address(this);\r\n        mvcToken = myMvcToken;\r\n    }\r\n\r\n    // adds a candidate to the map of candidates\r\n    // checks for candidates with the duplicateCandidateCheck helper function\r\n    // adds owner of candidate proposal to hasProposed map which is checked so an owner can't make more than 1 proposal \r\n    function addCandidate(string memory candidateName, address owner) private {\r\n        //require(!duplicateCandidateCheck(candidateName), 'Candidate already in contention for voting');\r\n\r\n        candidateCount = candidateCount.add(1);\r\n        hasProposed[owner] = true;\r\n        haveVoted[owner] = true;\r\n        address[] memory votersForCandidate;\r\n        candidates[candidateCount] = Candidate(candidateCount,candidateName,1,owner,votersForCandidate);\r\n    }\r\n\r\n    // helper function to check if incoming candidate is already proposed by someone else\r\n    // function duplicateCandidateCheck(string memory candidateName) private view returns (bool) {\r\n    //     bool output = false;\r\n    //     for (uint i=1; i<=candidateCount; i++){\r\n    //         Candidate memory temp = candidates[i];\r\n    //         if (keccak256(abi.encodePacked(temp.name)) == keccak256(abi.encodePacked(candidateName))){\r\n    //             output = true;\r\n    //             break;\r\n    //         }\r\n    //     }\r\n    //     return output;\r\n    // }\r\n\r\n    // user uses this function to vote for a coach candidate\r\n    // makes sure user hasn't voted already and provides sufficient eth (costs 2mvcs/eth to vote)\r\n    // increments votes for candidate and adds voter's address to array field in Candidate struct for potential redistribution\r\n    // emits votedEvent event\r\n    // OVERSIGHT - overlooked the separation of my DAO'S currency MVCs vs eth\r\n    // function voteForCandidate(uint candidateId, address voterAddress) public payable {\r\n    //     require(!haveVoted[msg.sender], 'User account has already voted');\r\n    //     uint ethAmount = 2;\r\n    //     require(msg.value == ethAmount.toWei(), 'Insufficient funds provided');\r\n    //     require(candidateId > 0 && candidateId <= candidateCount);\r\n\r\n    //     haveVoted[msg.sender] = true;\r\n    //     candidates[candidateId].voteCount = candidates[candidateId].voteCount.add(1);\r\n    //     candidates[candidateId].votersForCandidate.push(voterAddress);\r\n        \r\n    //     emit votedEvent(candidateId);\r\n    // }\r\n    function voteForCandidate(uint candidateId, address voterAddress) public payable {\r\n        require(!haveVoted[msg.sender], 'User account has already voted');\r\n        require(!haveVoted[voterAddress], 'User address has already voted');\r\n        require(mvcToken.balanceOf(msg.sender) >= 2, \"Insufficient MVC tokens to vote\");\r\n        require(candidateId > 0 && candidateId <= candidateCount);\r\n\r\n        haveVoted[msg.sender] = true;\r\n        candidates[candidateId].voteCount = candidates[candidateId].voteCount.add(1);\r\n        candidates[candidateId].votersForCandidate.push(voterAddress);\r\n\r\n        emit votedEvent(candidateId);\r\n    }\r\n\r\n    // user uses this function to submit a proposal for a new coach candidate\r\n    // checks that sufficient eth is provided (4eth) and that user hasn't already made a proposal\r\n    // adds ether to totalEther value which will be distributed after the voting has ended\r\n    // function receiveCandidateProposal(string memory candidateName, address owner) public payable {\r\n    //     require(!hasProposed[msg.sender], 'User account has already made a proposal');\r\n    //     uint ethAmount = 4;\r\n    //     require(msg.value == ethAmount.toWei(), 'Insufficient funds provided');\r\n\r\n    //     totalEther = totalEther.add(msg.value);\r\n    //     emit ProposalReceived(msg.sender, candidateName, msg.value);\r\n\r\n    //     addCandidate(candidateName, owner);        \r\n    // }\r\n\r\n    // ChatGPT generated function that takes the map of candidates and returns an array of candidates coming top 5 in voting\r\n    // index 0 candidate has most votes, index 4 candidate has least votes out of the top 5\r\n    // function getPodium() private view returns (Candidate[5] memory) {\r\n    //     Candidate[5] memory podium;\r\n        \r\n    //     // Initialize an array to store the top 5 candidates\r\n    //     for (uint i = 0; i < 5; i++) {\r\n    //         uint maxVotes = 0;\r\n    //         uint maxIndex = 0;\r\n            \r\n    //         // Find the candidate with the maximum votes\r\n    //         for (uint j = 1; j <= candidateCount; j++) {\r\n    //             if (candidates[j].voteCount > maxVotes) {\r\n    //                 bool isAlreadyInTop = false;\r\n    //                 for(uint k = 0; k < i; k++) {\r\n    //                     if(candidates[j].id == podium[k].id) {\r\n    //                         isAlreadyInTop = true;\r\n    //                         break;\r\n    //                     }\r\n    //                 }\r\n    //                 if(!isAlreadyInTop) {\r\n    //                     maxVotes = candidates[j].voteCount;\r\n    //                     maxIndex = j;\r\n    //                 }\r\n    //             }\r\n    //         }\r\n            \r\n    //         // Add the candidate with the maximum votes to the podium array\r\n    //         podium[i] = candidates[maxIndex];\r\n    //     }\r\n        \r\n    //     return podium;\r\n    // }\r\n\r\n\r\n    // bool public doneVoting = false;\r\n    // function distributeMVCsAfterVoting(Candidate[] memory topFive) private {\r\n    //     if (doneVoting) {\r\n    //         //Candidate[] topFive = getPodium();\r\n\r\n    //         for (uint i=0; i<topFive.length; i++){ // rule 1\r\n    //             for (uint j=0; j<topFive[i].votersForCandidate.length; j++){\r\n    //                 address payable recipient = payable(topFive[i].votersForCandidate[j]);\r\n    //                 sendMVC(recipient, contractAddress, 1 ether);\r\n    //             }\r\n    //             totalEther = totalEther.sub(topFive[i].votersForCandidate.length);\r\n    //         }\r\n\r\n    //         uint conversion = 10;\r\n    //         uint initialPercent = 30;\r\n\r\n    //         for (uint k=0; k<topFive.length; k++){ // rules 2-6\r\n    //             uint percentage = initialPercent - k * 5;\r\n    //             uint amount = (totalEther*percentage/100)*conversion/100;\r\n\r\n    //             address payable recipient2 = payable(topFive[k].ownerAddress);\r\n    //             sendMVC(recipient2, contractAddress, amount);\r\n    //         }\r\n    //     }\r\n    // }\r\n\r\n    // function sendMVC(address payable _to, address _from, uint amount) public payable {\r\n    //     require(msg.sender == _from, \"Only the specified sender can call this function\");\r\n    //     require(address(this).balance >= amount, \"Insufficient balance in the contract\");\r\n\r\n    //     _to.transfer(amount);\r\n    // }\r\n\r\n    // function awardRepTokens(address _memberAddress, uint _tokens) external {\r\n    //     uint totalMembers = skolFaithful.getMembers().length;\r\n\r\n    //     for (uint i=0; i<totalMembers; i++){\r\n    //         SkolFaithful.Member memory member = skolFaithful.getMemberAtIndex(i);\r\n\r\n    //         if (member.owner == _memberAddress){\r\n    //             skolFaithful.updateRepTokens(i, _tokens);\r\n    //             return;\r\n    //         }\r\n    //     }\r\n    // }\r\n}",
  "sourcePath": "C:\\Users\\cooki\\OneDrive\\Documents\\Metro State Stuff\\690-Blockchain\\ics690-vikings-dapp\\contracts\\Temp.sol",
  "compiler": {
    "name": "solc",
    "version": "0.8.19+commit.7dd6d404.Emscripten.clang"
  },
  "schemaVersion": "3.4.16",
  "updatedAt": "2024-04-10T08:28:16.746Z",
  "devdoc": {
    "kind": "dev",
    "methods": {},
    "version": 1
  },
  "userdoc": {
    "kind": "user",
    "methods": {},
    "version": 1
  }
}