{
  "contractName": "CoachVotingMechanism",
  "abi": [
    {
      "inputs": [],
      "stateMutability": "nonpayable",
      "type": "constructor"
    },
    {
      "anonymous": false,
      "inputs": [
        {
          "indexed": true,
          "internalType": "uint256",
          "name": "_candidateId",
          "type": "uint256"
        }
      ],
      "name": "votedEvent",
      "type": "event"
    },
    {
      "inputs": [],
      "name": "candidateCount",
      "outputs": [
        {
          "internalType": "uint256",
          "name": "",
          "type": "uint256"
        }
      ],
      "stateMutability": "view",
      "type": "function",
      "constant": true
    },
    {
      "inputs": [
        {
          "internalType": "uint256",
          "name": "",
          "type": "uint256"
        }
      ],
      "name": "candidates",
      "outputs": [
        {
          "internalType": "uint256",
          "name": "id",
          "type": "uint256"
        },
        {
          "internalType": "string",
          "name": "name",
          "type": "string"
        },
        {
          "internalType": "uint256",
          "name": "voteCount",
          "type": "uint256"
        },
        {
          "internalType": "address",
          "name": "ownerAddress",
          "type": "address"
        }
      ],
      "stateMutability": "view",
      "type": "function",
      "constant": true
    },
    {
      "inputs": [
        {
          "internalType": "address",
          "name": "",
          "type": "address"
        }
      ],
      "name": "haveVoted",
      "outputs": [
        {
          "internalType": "bool",
          "name": "",
          "type": "bool"
        }
      ],
      "stateMutability": "view",
      "type": "function",
      "constant": true
    },
    {
      "inputs": [
        {
          "internalType": "uint256",
          "name": "_candidateId",
          "type": "uint256"
        },
        {
          "internalType": "address",
          "name": "voterAddress",
          "type": "address"
        }
      ],
      "name": "voteForCandidate",
      "outputs": [],
      "stateMutability": "payable",
      "type": "function",
      "payable": true
    }
  ],
  "bytecode": "0x60806040523480156200001157600080fd5b50600073f220d553fbbc28b6f381cbb2be99d59de42d2f849050600073feb798ed0e1ec865bf80703ca1e1bb7a48ddeafa90506200008b6040518060400160405280600e81526020017f42696c6c2042656c69636869636b00000000000000000000000000000000000081525083620000da60201b60201c565b620000d26040518060400160405280600b81526020017f4d696b652056726162656c00000000000000000000000000000000000000000081525082620000da60201b60201c565b5050620006c1565b620000f26001600254620001e860201b90919060201c565b60028190555060606040518060a001604052806002548152602001848152602001600081526020018373ffffffffffffffffffffffffffffffffffffffff1681526020018281525060008060025481526020019081526020016000206000820151816000015560208201518160010190816200016f919062000541565b506040820151816002015560608201518160030160006101000a81548173ffffffffffffffffffffffffffffffffffffffff021916908373ffffffffffffffffffffffffffffffffffffffff1602179055506080820151816004019080519060200190620001df92919062000219565b50905050505050565b6000808284620001f9919062000657565b9050838110156200020f576200020e62000692565b5b8091505092915050565b82805482825590600052602060002090810192821562000295579160200282015b82811115620002945782518260006101000a81548173ffffffffffffffffffffffffffffffffffffffff021916908373ffffffffffffffffffffffffffffffffffffffff160217905550916020019190600101906200023a565b5b509050620002a49190620002a8565b5090565b5b80821115620002c3576000816000905550600101620002a9565b5090565b600081519050919050565b7f4e487b7100000000000000000000000000000000000000000000000000000000600052604160045260246000fd5b7f4e487b7100000000000000000000000000000000000000000000000000000000600052602260045260246000fd5b600060028204905060018216806200034957607f821691505b6020821081036200035f576200035e62000301565b5b50919050565b60008190508160005260206000209050919050565b60006020601f8301049050919050565b600082821b905092915050565b600060088302620003c97fffffffffffffffffffffffffffffffffffffffffffffffffffffffffffffffff826200038a565b620003d586836200038a565b95508019841693508086168417925050509392505050565b6000819050919050565b6000819050919050565b6000620004226200041c6200041684620003ed565b620003f7565b620003ed565b9050919050565b6000819050919050565b6200043e8362000401565b620004566200044d8262000429565b84845462000397565b825550505050565b600090565b6200046d6200045e565b6200047a81848462000433565b505050565b5b81811015620004a2576200049660008262000463565b60018101905062000480565b5050565b601f821115620004f157620004bb8162000365565b620004c6846200037a565b81016020851015620004d6578190505b620004ee620004e5856200037a565b8301826200047f565b50505b505050565b600082821c905092915050565b60006200051660001984600802620004f6565b1980831691505092915050565b600062000531838362000503565b9150826002028217905092915050565b6200054c82620002c7565b67ffffffffffffffff811115620005685762000567620002d2565b5b62000574825462000330565b62000581828285620004a6565b600060209050601f831160018114620005b95760008415620005a4578287015190505b620005b0858262000523565b86555062000620565b601f198416620005c98662000365565b60005b82811015620005f357848901518255600182019150602085019450602081019050620005cc565b868310156200061357848901516200060f601f89168262000503565b8355505b6001600288020188555050505b505050505050565b7f4e487b7100000000000000000000000000000000000000000000000000000000600052601160045260246000fd5b60006200066482620003ed565b91506200067183620003ed565b92508282019050808211156200068c576200068b62000628565b5b92915050565b7f4e487b7100000000000000000000000000000000000000000000000000000000600052600160045260246000fd5b6108aa80620006d16000396000f3fe60806040526004361061003f5760003560e01c80630b967584146100445780633477ee2e14610060578063503649a9146100a0578063a9a981a3146100dd575b600080fd5b61005e600480360381019061005991906104fb565b610108565b005b34801561006c57600080fd5b506100876004803603810190610082919061053b565b6102d5565b6040516100979493929190610616565b60405180910390f35b3480156100ac57600080fd5b506100c760048036038101906100c29190610662565b6103ad565b6040516100d491906106aa565b60405180910390f35b3480156100e957600080fd5b506100f26103cd565b6040516100ff91906106c5565b60405180910390f35b600160003373ffffffffffffffffffffffffffffffffffffffff1673ffffffffffffffffffffffffffffffffffffffff16815260200190815260200160002060009054906101000a900460ff161561015f57600080fd5b60006004905061016e816103d3565b341461017957600080fd5b60008311801561018b57506002548311155b61019457600080fd5b60018060003373ffffffffffffffffffffffffffffffffffffffff1673ffffffffffffffffffffffffffffffffffffffff16815260200190815260200160002060006101000a81548160ff0219169083151502179055506102146001600080868152602001908152602001600020600201546103ee90919063ffffffff16565b60008085815260200190815260200160002060020181905550600080848152602001908152602001600020600401829080600181540180825580915050600190039060005260206000200160009091909190916101000a81548173ffffffffffffffffffffffffffffffffffffffff021916908373ffffffffffffffffffffffffffffffffffffffff160217905550827ffff3c900d938d21d0990d786e819f29b8d05c1ef587b462b939609625b684b1660405160405180910390a2505050565b60006020528060005260406000206000915090508060000154908060010180546102fe9061070f565b80601f016020809104026020016040519081016040528092919081815260200182805461032a9061070f565b80156103775780601f1061034c57610100808354040283529160200191610377565b820191906000526020600020905b81548152906001019060200180831161035a57829003601f168201915b5050505050908060020154908060030160009054906101000a900473ffffffffffffffffffffffffffffffffffffffff16905084565b60016020528060005260406000206000915054906101000a900460ff1681565b60025481565b60006103e782670de0b6b3a764000061041a565b9050919050565b60008082846103fd919061076f565b9050838110156104105761040f6107a3565b5b8091505092915050565b600080830361042c576000905061045c565b6000828461043a91906107d2565b90508284826104499190610843565b14610457576104566107a3565b5b809150505b92915050565b600080fd5b6000819050919050565b61047a81610467565b811461048557600080fd5b50565b60008135905061049781610471565b92915050565b600073ffffffffffffffffffffffffffffffffffffffff82169050919050565b60006104c88261049d565b9050919050565b6104d8816104bd565b81146104e357600080fd5b50565b6000813590506104f5816104cf565b92915050565b6000806040838503121561051257610511610462565b5b600061052085828601610488565b9250506020610531858286016104e6565b9150509250929050565b60006020828403121561055157610550610462565b5b600061055f84828501610488565b91505092915050565b61057181610467565b82525050565b600081519050919050565b600082825260208201905092915050565b60005b838110156105b1578082015181840152602081019050610596565b60008484015250505050565b6000601f19601f8301169050919050565b60006105d982610577565b6105e38185610582565b93506105f3818560208601610593565b6105fc816105bd565b840191505092915050565b610610816104bd565b82525050565b600060808201905061062b6000830187610568565b818103602083015261063d81866105ce565b905061064c6040830185610568565b6106596060830184610607565b95945050505050565b60006020828403121561067857610677610462565b5b6000610686848285016104e6565b91505092915050565b60008115159050919050565b6106a48161068f565b82525050565b60006020820190506106bf600083018461069b565b92915050565b60006020820190506106da6000830184610568565b92915050565b7f4e487b7100000000000000000000000000000000000000000000000000000000600052602260045260246000fd5b6000600282049050600182168061072757607f821691505b60208210810361073a576107396106e0565b5b50919050565b7f4e487b7100000000000000000000000000000000000000000000000000000000600052601160045260246000fd5b600061077a82610467565b915061078583610467565b925082820190508082111561079d5761079c610740565b5b92915050565b7f4e487b7100000000000000000000000000000000000000000000000000000000600052600160045260246000fd5b60006107dd82610467565b91506107e883610467565b92508282026107f681610467565b9150828204841483151761080d5761080c610740565b5b5092915050565b7f4e487b7100000000000000000000000000000000000000000000000000000000600052601260045260246000fd5b600061084e82610467565b915061085983610467565b92508261086957610868610814565b5b82820490509291505056fea2646970667358221220044108eb433341cbaf0976710bb6809ea25e8411a610474fd9e915a6221366c964736f6c63430008130033",
  "immutableReferences": {},
  "source": "// SPDX-License-Identifier: UNLICENSED\r\npragma solidity ^0.8.19;\r\n\r\nimport \"./safemath.sol\";\r\n\r\n// This contract is where proposals for head coach candidates are sent to and where votes are cast for a head coach\r\n// It also controls the distribution of MVCs and REP tokens when voting finishes\r\ncontract CoachVotingMechanism {\r\n    // some coaches already proposed\r\n    // some coaches free to make a proposal for\r\n\r\n    using SafeMath for uint;\r\n\r\n    struct Candidate {\r\n        uint id;\r\n        string name;\r\n        uint voteCount;\r\n        address ownerAddress;\r\n        address[] votersForCandidate;\r\n    }\r\n\r\n    mapping(uint => Candidate) public candidates;\r\n    mapping(address => bool) public haveVoted;\r\n    uint public candidateCount;\r\n\r\n    event votedEvent (\r\n        uint indexed _candidateId\r\n    );\r\n\r\n    constructor () {\r\n        address temp1 = 0xf220d553fbbC28b6f381CbB2bE99D59De42d2F84;\r\n        address temp2 = 0xFeb798ed0E1eC865Bf80703cA1E1Bb7a48DdEAfa;\r\n        addCandidate(\"Bill Belichick\", temp1);\r\n        addCandidate(\"Mike Vrabel\", temp2);\r\n    }\r\n\r\n    function addCandidate(string memory _candidateName, address owner) private {\r\n        candidateCount = candidateCount.add(1);\r\n        address[] memory votersForCandidate;\r\n        candidates[candidateCount] = Candidate(candidateCount,_candidateName,0,owner,votersForCandidate);\r\n    }\r\n\r\n    function voteForCandidate(uint _candidateId, address voterAddress) public payable {\r\n        require(!haveVoted[msg.sender]);\r\n        uint ethAmount = 4;\r\n        require(msg.value == ethAmount.toWei());\r\n        require(_candidateId > 0 && _candidateId <= candidateCount);\r\n\r\n        haveVoted[msg.sender] = true;\r\n        candidates[_candidateId].voteCount = candidates[_candidateId].voteCount.add(1);\r\n        candidates[_candidateId].votersForCandidate.push(voterAddress);\r\n        \r\n        emit votedEvent(_candidateId);\r\n    }\r\n}",
  "sourcePath": "C:\\Users\\cooki\\OneDrive\\Documents\\Metro State Stuff\\690-Blockchain\\ics690-vikings-dapp\\contracts\\CoachVotingMechanism.sol",
  "compiler": {
    "name": "solc",
    "version": "0.8.19+commit.7dd6d404.Emscripten.clang"
  },
  "schemaVersion": "3.4.16",
  "updatedAt": "2024-03-26T03:13:57.472Z",
  "networkType": "ethereum",
  "devdoc": {
    "kind": "dev",
    "methods": {},
    "version": 1
  },
  "userdoc": {
    "kind": "user",
    "methods": {},
    "version": 1
  }
}