{
  "contractName": "CoachVotingMechanism",
  "abi": [
    {
      "inputs": [],
      "stateMutability": "nonpayable",
      "type": "constructor"
    },
    {
      "anonymous": false,
      "inputs": [
        {
          "indexed": true,
          "internalType": "uint256",
          "name": "_candidateId",
          "type": "uint256"
        }
      ],
      "name": "votedEvent",
      "type": "event"
    },
    {
      "inputs": [],
      "name": "candidateCount",
      "outputs": [
        {
          "internalType": "uint256",
          "name": "",
          "type": "uint256"
        }
      ],
      "stateMutability": "view",
      "type": "function",
      "constant": true
    },
    {
      "inputs": [
        {
          "internalType": "uint256",
          "name": "",
          "type": "uint256"
        }
      ],
      "name": "candidates",
      "outputs": [
        {
          "internalType": "uint256",
          "name": "id",
          "type": "uint256"
        },
        {
          "internalType": "string",
          "name": "name",
          "type": "string"
        },
        {
          "internalType": "uint256",
          "name": "voteCount",
          "type": "uint256"
        },
        {
          "internalType": "address",
          "name": "ownerAddress",
          "type": "address"
        }
      ],
      "stateMutability": "view",
      "type": "function",
      "constant": true
    },
    {
      "inputs": [
        {
          "internalType": "uint256",
          "name": "candidateId",
          "type": "uint256"
        },
        {
          "internalType": "address",
          "name": "voterAddress",
          "type": "address"
        }
      ],
      "name": "voteForCandidate",
      "outputs": [],
      "stateMutability": "payable",
      "type": "function",
      "payable": true
    },
    {
      "inputs": [
        {
          "internalType": "string",
          "name": "candidateName",
          "type": "string"
        },
        {
          "internalType": "address",
          "name": "owner",
          "type": "address"
        }
      ],
      "name": "receiveCandidateProposal",
      "outputs": [],
      "stateMutability": "payable",
      "type": "function",
      "payable": true
    }
  ],
  "bytecode": "0x60806040523480156200001157600080fd5b50600073feb798ed0e1ec865bf80703ca1e1bb7a48ddeafa905060007348f84a00f895be17bd4fa9e0731c7b39eacd6fbe9050600073cf16fe704d4b01ecdd98a41af04b92008d2a32cc9050600073709e646fc789ec4b3d093c8871f66640e9c606169050620000bd6040518060400160405280600e81526020017f42696c6c2042656c69636869636b000000000000000000000000000000000000815250856200019c60201b60201c565b620001046040518060400160405280600b81526020017f4d696b652056726162656c000000000000000000000000000000000000000000815250846200019c60201b60201c565b6200014b6040518060400160405280600e81526020017f4272616e646f6e205374616c6579000000000000000000000000000000000000815250836200019c60201b60201c565b620001926040518060400160405280600b81526020017f4672616e6b205265696368000000000000000000000000000000000000000000815250826200019c60201b60201c565b5050505062000c01565b620001ad826200035660201b60201c565b15620001f0576040517f08c379a0000000000000000000000000000000000000000000000000000000008152600401620001e79062000711565b60405180910390fd5b620002086001600354620005ab60201b90919060201c565b6003819055506001600260008373ffffffffffffffffffffffffffffffffffffffff1673ffffffffffffffffffffffffffffffffffffffff16815260200190815260200160002060006101000a81548160ff02191690831515021790555060606040518060a001604052806003548152602001848152602001600181526020018373ffffffffffffffffffffffffffffffffffffffff168152602001828152506000806003548152602001908152602001600020600082015181600001556020820151816001019081620002dd9190620009ad565b506040820151816002015560608201518160030160006101000a81548173ffffffffffffffffffffffffffffffffffffffff021916908373ffffffffffffffffffffffffffffffffffffffff16021790555060808201518160040190805190602001906200034d929190620005dc565b50905050505050565b600080600090506000600190505b6003548111620005a15760008060008381526020019081526020016000206040518060a001604052908160008201548152602001600182018054620003a9906200079c565b80601f0160208091040260200160405190810160405280929190818152602001828054620003d7906200079c565b8015620004285780601f10620003fc5761010080835404028352916020019162000428565b820191906000526020600020905b8154815290600101906020018083116200040a57829003601f168201915b50505050508152602001600282015481526020016003820160009054906101000a900473ffffffffffffffffffffffffffffffffffffffff1673ffffffffffffffffffffffffffffffffffffffff1673ffffffffffffffffffffffffffffffffffffffff168152602001600482018054806020026020016040519081016040528092919081815260200182805480156200051857602002820191906000526020600020905b8160009054906101000a900473ffffffffffffffffffffffffffffffffffffffff1673ffffffffffffffffffffffffffffffffffffffff1681526020019060010190808311620004cd575b50505050508152505090508460405160200162000536919062000b02565b60405160208183030381529060405280519060200120816020015160405160200162000563919062000b02565b60405160208183030381529060405280519060200120036200058a576001925050620005a1565b508080620005989062000b4a565b91505062000364565b5080915050919050565b6000808284620005bc919062000b97565b905083811015620005d257620005d162000bd2565b5b8091505092915050565b82805482825590600052602060002090810192821562000658579160200282015b82811115620006575782518260006101000a81548173ffffffffffffffffffffffffffffffffffffffff021916908373ffffffffffffffffffffffffffffffffffffffff16021790555091602001919060010190620005fd565b5b5090506200066791906200066b565b5090565b5b80821115620006865760008160009055506001016200066c565b5090565b600082825260208201905092915050565b7f43616e64696461746520616c726561647920696e20636f6e74656e74696f6e2060008201527f666f7220766f74696e6700000000000000000000000000000000000000000000602082015250565b6000620006f9602a836200068a565b915062000706826200069b565b604082019050919050565b600060208201905081810360008301526200072c81620006ea565b9050919050565b600081519050919050565b7f4e487b7100000000000000000000000000000000000000000000000000000000600052604160045260246000fd5b7f4e487b7100000000000000000000000000000000000000000000000000000000600052602260045260246000fd5b60006002820490506001821680620007b557607f821691505b602082108103620007cb57620007ca6200076d565b5b50919050565b60008190508160005260206000209050919050565b60006020601f8301049050919050565b600082821b905092915050565b600060088302620008357fffffffffffffffffffffffffffffffffffffffffffffffffffffffffffffffff82620007f6565b620008418683620007f6565b95508019841693508086168417925050509392505050565b6000819050919050565b6000819050919050565b60006200088e62000888620008828462000859565b62000863565b62000859565b9050919050565b6000819050919050565b620008aa836200086d565b620008c2620008b98262000895565b84845462000803565b825550505050565b600090565b620008d9620008ca565b620008e68184846200089f565b505050565b5b818110156200090e5762000902600082620008cf565b600181019050620008ec565b5050565b601f8211156200095d576200092781620007d1565b6200093284620007e6565b8101602085101562000942578190505b6200095a6200095185620007e6565b830182620008eb565b50505b505050565b600082821c905092915050565b6000620009826000198460080262000962565b1980831691505092915050565b60006200099d83836200096f565b9150826002028217905092915050565b620009b88262000733565b67ffffffffffffffff811115620009d457620009d36200073e565b5b620009e082546200079c565b620009ed82828562000912565b600060209050601f83116001811462000a25576000841562000a10578287015190505b62000a1c85826200098f565b86555062000a8c565b601f19841662000a3586620007d1565b60005b8281101562000a5f5784890151825560018201915060208501945060208101905062000a38565b8683101562000a7f578489015162000a7b601f8916826200096f565b8355505b6001600288020188555050505b505050505050565b600081905092915050565b60005b8381101562000abf57808201518184015260208101905062000aa2565b60008484015250505050565b600062000ad88262000733565b62000ae4818562000a94565b935062000af681856020860162000a9f565b80840191505092915050565b600062000b10828462000acb565b915081905092915050565b7f4e487b7100000000000000000000000000000000000000000000000000000000600052601160045260246000fd5b600062000b578262000859565b91507fffffffffffffffffffffffffffffffffffffffffffffffffffffffffffffffff820362000b8c5762000b8b62000b1b565b5b600182019050919050565b600062000ba48262000859565b915062000bb18362000859565b925082820190508082111562000bcc5762000bcb62000b1b565b5b92915050565b7f4e487b7100000000000000000000000000000000000000000000000000000000600052600160045260246000fd5b6114a48062000c116000396000f3fe60806040526004361061003f5760003560e01c80630b967584146100445780633477ee2e14610060578063657e27ba146100a0578063a9a981a3146100bc575b600080fd5b61005e60048036038101906100599190610ab2565b6100e7565b005b34801561006c57600080fd5b5061008760048036038101906100829190610af2565b610320565b6040516100979493929190610bcd565b60405180910390f35b6100ba60048036038101906100b59190610d4e565b6103f8565b005b3480156100c857600080fd5b506100d16104e4565b6040516100de9190610daa565b60405180910390f35b600160003373ffffffffffffffffffffffffffffffffffffffff1673ffffffffffffffffffffffffffffffffffffffff16815260200190815260200160002060009054906101000a900460ff1615610174576040517f08c379a000000000000000000000000000000000000000000000000000000000815260040161016b90610e11565b60405180910390fd5b600060029050610183816104ea565b34146101c4576040517f08c379a00000000000000000000000000000000000000000000000000000000081526004016101bb90610e7d565b60405180910390fd5b6000831180156101d657506003548311155b6101df57600080fd5b60018060003373ffffffffffffffffffffffffffffffffffffffff1673ffffffffffffffffffffffffffffffffffffffff16815260200190815260200160002060006101000a81548160ff02191690831515021790555061025f60016000808681526020019081526020016000206002015461050590919063ffffffff16565b60008085815260200190815260200160002060020181905550600080848152602001908152602001600020600401829080600181540180825580915050600190039060005260206000200160009091909190916101000a81548173ffffffffffffffffffffffffffffffffffffffff021916908373ffffffffffffffffffffffffffffffffffffffff160217905550827ffff3c900d938d21d0990d786e819f29b8d05c1ef587b462b939609625b684b1660405160405180910390a2505050565b600060205280600052604060002060009150905080600001549080600101805461034990610ecc565b80601f016020809104026020016040519081016040528092919081815260200182805461037590610ecc565b80156103c25780601f10610397576101008083540402835291602001916103c2565b820191906000526020600020905b8154815290600101906020018083116103a557829003601f168201915b5050505050908060020154908060030160009054906101000a900473ffffffffffffffffffffffffffffffffffffffff16905084565b600260003373ffffffffffffffffffffffffffffffffffffffff1673ffffffffffffffffffffffffffffffffffffffff16815260200190815260200160002060009054906101000a900460ff1615610485576040517f08c379a000000000000000000000000000000000000000000000000000000000815260040161047c90610f6f565b60405180910390fd5b600060049050610494816104ea565b34146104d5576040517f08c379a00000000000000000000000000000000000000000000000000000000081526004016104cc90610e7d565b60405180910390fd5b6104df8383610531565b505050565b60035481565b60006104fe82670de0b6b3a76400006106da565b9050919050565b60008082846105149190610fbe565b90508381101561052757610526610ff2565b5b8091505092915050565b61053a82610722565b1561057a576040517f08c379a000000000000000000000000000000000000000000000000000000000815260040161057190611093565b60405180910390fd5b610590600160035461050590919063ffffffff16565b6003819055506001600260008373ffffffffffffffffffffffffffffffffffffffff1673ffffffffffffffffffffffffffffffffffffffff16815260200190815260200160002060006101000a81548160ff02191690831515021790555060606040518060a001604052806003548152602001848152602001600181526020018373ffffffffffffffffffffffffffffffffffffffff168152602001828152506000806003548152602001908152602001600020600082015181600001556020820151816001019081610663919061125f565b506040820151816002015560608201518160030160006101000a81548173ffffffffffffffffffffffffffffffffffffffff021916908373ffffffffffffffffffffffffffffffffffffffff16021790555060808201518160040190805190602001906106d1929190610963565b50905050505050565b60008083036106ec576000905061071c565b600082846106fa9190611331565b905082848261070991906113a2565b1461071757610716610ff2565b5b809150505b92915050565b600080600090506000600190505b60035481116109595760008060008381526020019081526020016000206040518060a00160405290816000820154815260200160018201805461077290610ecc565b80601f016020809104026020016040519081016040528092919081815260200182805461079e90610ecc565b80156107eb5780601f106107c0576101008083540402835291602001916107eb565b820191906000526020600020905b8154815290600101906020018083116107ce57829003601f168201915b50505050508152602001600282015481526020016003820160009054906101000a900473ffffffffffffffffffffffffffffffffffffffff1673ffffffffffffffffffffffffffffffffffffffff1673ffffffffffffffffffffffffffffffffffffffff168152602001600482018054806020026020016040519081016040528092919081815260200182805480156108d957602002820191906000526020600020905b8160009054906101000a900473ffffffffffffffffffffffffffffffffffffffff1673ffffffffffffffffffffffffffffffffffffffff168152602001906001019080831161088f575b5050505050815250509050846040516020016108f5919061140f565b604051602081830303815290604052805190602001208160200151604051602001610920919061140f565b6040516020818303038152906040528051906020012003610945576001925050610959565b50808061095190611426565b915050610730565b5080915050919050565b8280548282559060005260206000209081019282156109dc579160200282015b828111156109db5782518260006101000a81548173ffffffffffffffffffffffffffffffffffffffff021916908373ffffffffffffffffffffffffffffffffffffffff16021790555091602001919060010190610983565b5b5090506109e991906109ed565b5090565b5b80821115610a065760008160009055506001016109ee565b5090565b6000604051905090565b600080fd5b600080fd5b6000819050919050565b610a3181610a1e565b8114610a3c57600080fd5b50565b600081359050610a4e81610a28565b92915050565b600073ffffffffffffffffffffffffffffffffffffffff82169050919050565b6000610a7f82610a54565b9050919050565b610a8f81610a74565b8114610a9a57600080fd5b50565b600081359050610aac81610a86565b92915050565b60008060408385031215610ac957610ac8610a14565b5b6000610ad785828601610a3f565b9250506020610ae885828601610a9d565b9150509250929050565b600060208284031215610b0857610b07610a14565b5b6000610b1684828501610a3f565b91505092915050565b610b2881610a1e565b82525050565b600081519050919050565b600082825260208201905092915050565b60005b83811015610b68578082015181840152602081019050610b4d565b60008484015250505050565b6000601f19601f8301169050919050565b6000610b9082610b2e565b610b9a8185610b39565b9350610baa818560208601610b4a565b610bb381610b74565b840191505092915050565b610bc781610a74565b82525050565b6000608082019050610be26000830187610b1f565b8181036020830152610bf48186610b85565b9050610c036040830185610b1f565b610c106060830184610bbe565b95945050505050565b600080fd5b600080fd5b7f4e487b7100000000000000000000000000000000000000000000000000000000600052604160045260246000fd5b610c5b82610b74565b810181811067ffffffffffffffff82111715610c7a57610c79610c23565b5b80604052505050565b6000610c8d610a0a565b9050610c998282610c52565b919050565b600067ffffffffffffffff821115610cb957610cb8610c23565b5b610cc282610b74565b9050602081019050919050565b82818337600083830152505050565b6000610cf1610cec84610c9e565b610c83565b905082815260208101848484011115610d0d57610d0c610c1e565b5b610d18848285610ccf565b509392505050565b600082601f830112610d3557610d34610c19565b5b8135610d45848260208601610cde565b91505092915050565b60008060408385031215610d6557610d64610a14565b5b600083013567ffffffffffffffff811115610d8357610d82610a19565b5b610d8f85828601610d20565b9250506020610da085828601610a9d565b9150509250929050565b6000602082019050610dbf6000830184610b1f565b92915050565b7f55736572206163636f756e742068617320616c726561647920766f7465640000600082015250565b6000610dfb601e83610b39565b9150610e0682610dc5565b602082019050919050565b60006020820190508181036000830152610e2a81610dee565b9050919050565b7f496e73756666696369656e742066756e64732070726f76696465640000000000600082015250565b6000610e67601b83610b39565b9150610e7282610e31565b602082019050919050565b60006020820190508181036000830152610e9681610e5a565b9050919050565b7f4e487b7100000000000000000000000000000000000000000000000000000000600052602260045260246000fd5b60006002820490506001821680610ee457607f821691505b602082108103610ef757610ef6610e9d565b5b50919050565b7f55736572206163636f756e742068617320616c7265616479206d61646520612060008201527f70726f706f73616c000000000000000000000000000000000000000000000000602082015250565b6000610f59602883610b39565b9150610f6482610efd565b604082019050919050565b60006020820190508181036000830152610f8881610f4c565b9050919050565b7f4e487b7100000000000000000000000000000000000000000000000000000000600052601160045260246000fd5b6000610fc982610a1e565b9150610fd483610a1e565b9250828201905080821115610fec57610feb610f8f565b5b92915050565b7f4e487b7100000000000000000000000000000000000000000000000000000000600052600160045260246000fd5b7f43616e64696461746520616c726561647920696e20636f6e74656e74696f6e2060008201527f666f7220766f74696e6700000000000000000000000000000000000000000000602082015250565b600061107d602a83610b39565b915061108882611021565b604082019050919050565b600060208201905081810360008301526110ac81611070565b9050919050565b60008190508160005260206000209050919050565b60006020601f8301049050919050565b600082821b905092915050565b6000600883026111157fffffffffffffffffffffffffffffffffffffffffffffffffffffffffffffffff826110d8565b61111f86836110d8565b95508019841693508086168417925050509392505050565b6000819050919050565b600061115c61115761115284610a1e565b611137565b610a1e565b9050919050565b6000819050919050565b61117683611141565b61118a61118282611163565b8484546110e5565b825550505050565b600090565b61119f611192565b6111aa81848461116d565b505050565b5b818110156111ce576111c3600082611197565b6001810190506111b0565b5050565b601f821115611213576111e4816110b3565b6111ed846110c8565b810160208510156111fc578190505b611210611208856110c8565b8301826111af565b50505b505050565b600082821c905092915050565b600061123660001984600802611218565b1980831691505092915050565b600061124f8383611225565b9150826002028217905092915050565b61126882610b2e565b67ffffffffffffffff81111561128157611280610c23565b5b61128b8254610ecc565b6112968282856111d2565b600060209050601f8311600181146112c957600084156112b7578287015190505b6112c18582611243565b865550611329565b601f1984166112d7866110b3565b60005b828110156112ff578489015182556001820191506020850194506020810190506112da565b8683101561131c5784890151611318601f891682611225565b8355505b6001600288020188555050505b505050505050565b600061133c82610a1e565b915061134783610a1e565b925082820261135581610a1e565b9150828204841483151761136c5761136b610f8f565b5b5092915050565b7f4e487b7100000000000000000000000000000000000000000000000000000000600052601260045260246000fd5b60006113ad82610a1e565b91506113b883610a1e565b9250826113c8576113c7611373565b5b828204905092915050565b600081905092915050565b60006113e982610b2e565b6113f381856113d3565b9350611403818560208601610b4a565b80840191505092915050565b600061141b82846113de565b915081905092915050565b600061143182610a1e565b91507fffffffffffffffffffffffffffffffffffffffffffffffffffffffffffffffff820361146357611462610f8f565b5b60018201905091905056fea2646970667358221220cc26a1392a1d611dd535582ea880a1b6268a8c596981dc632b0d7f468b1db22964736f6c63430008130033",
  "immutableReferences": {},
  "source": "// SPDX-License-Identifier: UNLICENSED\r\npragma solidity ^0.8.19;\r\n\r\nimport \"./safemath.sol\";\r\n\r\n// This contract is where proposals for head coach candidates are sent to and where votes are cast for a head coach\r\n// It also controls the distribution of MVCs and REP tokens when voting finishes\r\ncontract CoachVotingMechanism {\r\n    // some coaches already proposed\r\n    // some coaches free to make a proposal for\r\n\r\n    using SafeMath for uint;\r\n\r\n    struct Candidate {\r\n        uint id;\r\n        string name;\r\n        uint voteCount;\r\n        address ownerAddress;\r\n        address[] votersForCandidate;\r\n    }\r\n\r\n    mapping(uint => Candidate) public candidates;\r\n    mapping(address => bool) private haveVoted;\r\n    mapping(address => bool) private hasProposed;\r\n    uint public candidateCount;\r\n\r\n    event votedEvent (\r\n        uint indexed _candidateId\r\n    );\r\n\r\n    constructor () {\r\n        address temp2 = 0xFeb798ed0E1eC865Bf80703cA1E1Bb7a48DdEAfa;\r\n        address temp3 = 0x48f84a00F895be17BD4Fa9e0731c7b39eAcd6FBe;\r\n        address temp4 = 0xCF16fe704d4b01ecDD98A41af04B92008D2a32CC;\r\n        address temp5 = 0x709E646fc789ec4b3D093C8871f66640E9c60616;\r\n        addCandidate(\"Bill Belichick\", temp2);\r\n        addCandidate(\"Mike Vrabel\", temp3);\r\n        addCandidate(\"Brandon Staley\", temp4);\r\n        addCandidate(\"Frank Reich\", temp5);\r\n    }\r\n\r\n    // adds a candidate to the list of candidates\r\n    function addCandidate(string memory candidateName, address owner) private {\r\n        require(!duplicateCandidateCheck(candidateName), 'Candidate already in contention for voting');\r\n\r\n        candidateCount = candidateCount.add(1);\r\n        hasProposed[owner] = true;\r\n        address[] memory votersForCandidate;\r\n        candidates[candidateCount] = Candidate(candidateCount,candidateName,1,owner,votersForCandidate);\r\n    }\r\n\r\n    function duplicateCandidateCheck(string memory candidateName) private view returns (bool) {\r\n        bool output = false;\r\n        for (uint i=1; i<=candidateCount; i++){\r\n            Candidate memory temp = candidates[i];\r\n            if (keccak256(abi.encodePacked(temp.name)) == keccak256(abi.encodePacked(candidateName))){\r\n                output = true;\r\n                break;\r\n            }\r\n        }\r\n        return output;\r\n    }\r\n\r\n    function voteForCandidate(uint candidateId, address voterAddress) public payable {\r\n        require(!haveVoted[msg.sender], 'User account has already voted');\r\n        uint ethAmount = 2;\r\n        require(msg.value == ethAmount.toWei(), 'Insufficient funds provided');\r\n        require(candidateId > 0 && candidateId <= candidateCount);\r\n\r\n        haveVoted[msg.sender] = true;\r\n        candidates[candidateId].voteCount = candidates[candidateId].voteCount.add(1);\r\n        candidates[candidateId].votersForCandidate.push(voterAddress);\r\n        \r\n        emit votedEvent(candidateId);\r\n    }\r\n\r\n    function receiveCandidateProposal(string memory candidateName, address owner) public payable {\r\n        require(!hasProposed[msg.sender], 'User account has already made a proposal');\r\n        uint ethAmount = 4;\r\n        require(msg.value == ethAmount.toWei(), 'Insufficient funds provided');\r\n\r\n        addCandidate(candidateName, owner);        \r\n    }\r\n}",
  "sourcePath": "C:\\Users\\cooki\\OneDrive\\Documents\\Metro State Stuff\\690-Blockchain\\ics690-vikings-dapp\\contracts\\CoachVotingMechanism.sol",
  "compiler": {
    "name": "solc",
    "version": "0.8.19+commit.7dd6d404.Emscripten.clang"
  },
  "schemaVersion": "3.4.16",
  "updatedAt": "2024-03-26T05:39:14.719Z",
  "networkType": "ethereum",
  "devdoc": {
    "kind": "dev",
    "methods": {},
    "version": 1
  },
  "userdoc": {
    "kind": "user",
    "methods": {},
    "version": 1
  }
}