{
  "contractName": "CoachVotingMechanism",
  "abi": [
    {
      "inputs": [],
      "stateMutability": "nonpayable",
      "type": "constructor"
    },
    {
      "anonymous": false,
      "inputs": [
        {
          "indexed": false,
          "internalType": "address",
          "name": "sender",
          "type": "address"
        },
        {
          "indexed": false,
          "internalType": "string",
          "name": "candidateName",
          "type": "string"
        },
        {
          "indexed": false,
          "internalType": "uint256",
          "name": "amount",
          "type": "uint256"
        }
      ],
      "name": "ProposalReceived",
      "type": "event"
    },
    {
      "anonymous": false,
      "inputs": [
        {
          "indexed": true,
          "internalType": "uint256",
          "name": "_candidateId",
          "type": "uint256"
        }
      ],
      "name": "votedEvent",
      "type": "event"
    },
    {
      "inputs": [],
      "name": "candidateCount",
      "outputs": [
        {
          "internalType": "uint256",
          "name": "",
          "type": "uint256"
        }
      ],
      "stateMutability": "view",
      "type": "function",
      "constant": true
    },
    {
      "inputs": [
        {
          "internalType": "uint256",
          "name": "",
          "type": "uint256"
        }
      ],
      "name": "candidates",
      "outputs": [
        {
          "internalType": "uint256",
          "name": "id",
          "type": "uint256"
        },
        {
          "internalType": "string",
          "name": "name",
          "type": "string"
        },
        {
          "internalType": "uint256",
          "name": "voteCount",
          "type": "uint256"
        },
        {
          "internalType": "address",
          "name": "ownerAddress",
          "type": "address"
        }
      ],
      "stateMutability": "view",
      "type": "function",
      "constant": true
    },
    {
      "inputs": [],
      "name": "contractAddress",
      "outputs": [
        {
          "internalType": "address",
          "name": "",
          "type": "address"
        }
      ],
      "stateMutability": "view",
      "type": "function",
      "constant": true
    },
    {
      "inputs": [],
      "name": "doneVoting",
      "outputs": [
        {
          "internalType": "bool",
          "name": "",
          "type": "bool"
        }
      ],
      "stateMutability": "view",
      "type": "function",
      "constant": true
    },
    {
      "inputs": [
        {
          "internalType": "uint256",
          "name": "candidateId",
          "type": "uint256"
        },
        {
          "internalType": "address",
          "name": "voterAddress",
          "type": "address"
        }
      ],
      "name": "voteForCandidate",
      "outputs": [],
      "stateMutability": "payable",
      "type": "function",
      "payable": true
    },
    {
      "inputs": [
        {
          "internalType": "string",
          "name": "candidateName",
          "type": "string"
        },
        {
          "internalType": "address",
          "name": "owner",
          "type": "address"
        }
      ],
      "name": "receiveCandidateProposal",
      "outputs": [],
      "stateMutability": "payable",
      "type": "function",
      "payable": true
    },
    {
      "inputs": [
        {
          "internalType": "address payable",
          "name": "_to",
          "type": "address"
        },
        {
          "internalType": "address",
          "name": "_from",
          "type": "address"
        },
        {
          "internalType": "uint256",
          "name": "amount",
          "type": "uint256"
        }
      ],
      "name": "sendMVC",
      "outputs": [],
      "stateMutability": "payable",
      "type": "function",
      "payable": true
    }
  ],
  "bytecode": "0x60806040526000600560146101000a81548160ff0219169083151502179055503480156200002c57600080fd5b50600073feb798ed0e1ec865bf80703ca1e1bb7a48ddeafa905060007348f84a00f895be17bd4fa9e0731c7b39eacd6fbe9050600073cf16fe704d4b01ecdd98a41af04b92008d2a32cc9050600073709e646fc789ec4b3d093c8871f66640e9c606169050620000d86040518060400160405280600e81526020017f42696c6c2042656c69636869636b00000000000000000000000000000000000081525085620001f860201b60201c565b6200011f6040518060400160405280600b81526020017f4d696b652056726162656c00000000000000000000000000000000000000000081525084620001f860201b60201c565b620001666040518060400160405280600e81526020017f4272616e646f6e205374616c657900000000000000000000000000000000000081525083620001f860201b60201c565b620001ad6040518060400160405280600b81526020017f4672616e6b20526569636800000000000000000000000000000000000000000081525082620001f860201b60201c565b30600560006101000a81548173ffffffffffffffffffffffffffffffffffffffff021916908373ffffffffffffffffffffffffffffffffffffffff1602179055505050505062000c5d565b6200020982620003b260201b60201c565b156200024c576040517f08c379a000000000000000000000000000000000000000000000000000000000815260040162000243906200076d565b60405180910390fd5b6200026460016003546200060760201b90919060201c565b6003819055506001600260008373ffffffffffffffffffffffffffffffffffffffff1673ffffffffffffffffffffffffffffffffffffffff16815260200190815260200160002060006101000a81548160ff02191690831515021790555060606040518060a001604052806003548152602001848152602001600181526020018373ffffffffffffffffffffffffffffffffffffffff16815260200182815250600080600354815260200190815260200160002060008201518160000155602082015181600101908162000339919062000a09565b506040820151816002015560608201518160030160006101000a81548173ffffffffffffffffffffffffffffffffffffffff021916908373ffffffffffffffffffffffffffffffffffffffff1602179055506080820151816004019080519060200190620003a992919062000638565b50905050505050565b600080600090506000600190505b6003548111620005fd5760008060008381526020019081526020016000206040518060a0016040529081600082015481526020016001820180546200040590620007f8565b80601f01602080910402602001604051908101604052809291908181526020018280546200043390620007f8565b8015620004845780601f10620004585761010080835404028352916020019162000484565b820191906000526020600020905b8154815290600101906020018083116200046657829003601f168201915b50505050508152602001600282015481526020016003820160009054906101000a900473ffffffffffffffffffffffffffffffffffffffff1673ffffffffffffffffffffffffffffffffffffffff1673ffffffffffffffffffffffffffffffffffffffff168152602001600482018054806020026020016040519081016040528092919081815260200182805480156200057457602002820191906000526020600020905b8160009054906101000a900473ffffffffffffffffffffffffffffffffffffffff1673ffffffffffffffffffffffffffffffffffffffff168152602001906001019080831162000529575b50505050508152505090508460405160200162000592919062000b5e565b604051602081830303815290604052805190602001208160200151604051602001620005bf919062000b5e565b6040516020818303038152906040528051906020012003620005e6576001925050620005fd565b508080620005f49062000ba6565b915050620003c0565b5080915050919050565b600080828462000618919062000bf3565b9050838110156200062e576200062d62000c2e565b5b8091505092915050565b828054828255906000526020600020908101928215620006b4579160200282015b82811115620006b35782518260006101000a81548173ffffffffffffffffffffffffffffffffffffffff021916908373ffffffffffffffffffffffffffffffffffffffff1602179055509160200191906001019062000659565b5b509050620006c39190620006c7565b5090565b5b80821115620006e2576000816000905550600101620006c8565b5090565b600082825260208201905092915050565b7f43616e64696461746520616c726561647920696e20636f6e74656e74696f6e2060008201527f666f7220766f74696e6700000000000000000000000000000000000000000000602082015250565b600062000755602a83620006e6565b91506200076282620006f7565b604082019050919050565b60006020820190508181036000830152620007888162000746565b9050919050565b600081519050919050565b7f4e487b7100000000000000000000000000000000000000000000000000000000600052604160045260246000fd5b7f4e487b7100000000000000000000000000000000000000000000000000000000600052602260045260246000fd5b600060028204905060018216806200081157607f821691505b602082108103620008275762000826620007c9565b5b50919050565b60008190508160005260206000209050919050565b60006020601f8301049050919050565b600082821b905092915050565b600060088302620008917fffffffffffffffffffffffffffffffffffffffffffffffffffffffffffffffff8262000852565b6200089d868362000852565b95508019841693508086168417925050509392505050565b6000819050919050565b6000819050919050565b6000620008ea620008e4620008de84620008b5565b620008bf565b620008b5565b9050919050565b6000819050919050565b6200090683620008c9565b6200091e6200091582620008f1565b8484546200085f565b825550505050565b600090565b6200093562000926565b62000942818484620008fb565b505050565b5b818110156200096a576200095e6000826200092b565b60018101905062000948565b5050565b601f821115620009b95762000983816200082d565b6200098e8462000842565b810160208510156200099e578190505b620009b6620009ad8562000842565b83018262000947565b50505b505050565b600082821c905092915050565b6000620009de60001984600802620009be565b1980831691505092915050565b6000620009f98383620009cb565b9150826002028217905092915050565b62000a14826200078f565b67ffffffffffffffff81111562000a305762000a2f6200079a565b5b62000a3c8254620007f8565b62000a498282856200096e565b600060209050601f83116001811462000a81576000841562000a6c578287015190505b62000a788582620009eb565b86555062000ae8565b601f19841662000a91866200082d565b60005b8281101562000abb5784890151825560018201915060208501945060208101905062000a94565b8683101562000adb578489015162000ad7601f891682620009cb565b8355505b6001600288020188555050505b505050505050565b600081905092915050565b60005b8381101562000b1b57808201518184015260208101905062000afe565b60008484015250505050565b600062000b34826200078f565b62000b40818562000af0565b935062000b5281856020860162000afb565b80840191505092915050565b600062000b6c828462000b27565b915081905092915050565b7f4e487b7100000000000000000000000000000000000000000000000000000000600052601160045260246000fd5b600062000bb382620008b5565b91507fffffffffffffffffffffffffffffffffffffffffffffffffffffffffffffffff820362000be85762000be762000b77565b5b600182019050919050565b600062000c0082620008b5565b915062000c0d83620008b5565b925082820190508082111562000c285762000c2762000b77565b5b92915050565b7f4e487b7100000000000000000000000000000000000000000000000000000000600052600160045260246000fd5b6119178062000c6d6000396000f3fe6080604052600436106100705760003560e01c8063657e27ba1161004e578063657e27ba146100fc578063a9a981a314610118578063caa1329a14610143578063f6b4dfb41461015f57610070565b80630b967584146100755780633477ee2e146100915780634491c0db146100d1575b600080fd5b61008f600480360381019061008a9190610ce1565b61018a565b005b34801561009d57600080fd5b506100b860048036038101906100b39190610d21565b6103c3565b6040516100c89493929190610dfc565b60405180910390f35b3480156100dd57600080fd5b506100e661049b565b6040516100f39190610e63565b60405180910390f35b61011660048036038101906101119190610fb3565b6104ae565b005b34801561012457600080fd5b5061012d6105f0565b60405161013a919061100f565b60405180910390f35b61015d60048036038101906101589190611068565b6105f6565b005b34801561016b57600080fd5b506101746106f3565b60405161018191906110bb565b60405180910390f35b600160003373ffffffffffffffffffffffffffffffffffffffff1673ffffffffffffffffffffffffffffffffffffffff16815260200190815260200160002060009054906101000a900460ff1615610217576040517f08c379a000000000000000000000000000000000000000000000000000000000815260040161020e90611122565b60405180910390fd5b60006002905061022681610719565b3414610267576040517f08c379a000000000000000000000000000000000000000000000000000000000815260040161025e9061118e565b60405180910390fd5b60008311801561027957506003548311155b61028257600080fd5b60018060003373ffffffffffffffffffffffffffffffffffffffff1673ffffffffffffffffffffffffffffffffffffffff16815260200190815260200160002060006101000a81548160ff02191690831515021790555061030260016000808681526020019081526020016000206002015461073490919063ffffffff16565b60008085815260200190815260200160002060020181905550600080848152602001908152602001600020600401829080600181540180825580915050600190039060005260206000200160009091909190916101000a81548173ffffffffffffffffffffffffffffffffffffffff021916908373ffffffffffffffffffffffffffffffffffffffff160217905550827ffff3c900d938d21d0990d786e819f29b8d05c1ef587b462b939609625b684b1660405160405180910390a2505050565b60006020528060005260406000206000915090508060000154908060010180546103ec906111dd565b80601f0160208091040260200160405190810160405280929190818152602001828054610418906111dd565b80156104655780601f1061043a57610100808354040283529160200191610465565b820191906000526020600020905b81548152906001019060200180831161044857829003601f168201915b5050505050908060020154908060030160009054906101000a900473ffffffffffffffffffffffffffffffffffffffff16905084565b600560149054906101000a900460ff1681565b600260003373ffffffffffffffffffffffffffffffffffffffff1673ffffffffffffffffffffffffffffffffffffffff16815260200190815260200160002060009054906101000a900460ff161561053b576040517f08c379a000000000000000000000000000000000000000000000000000000000815260040161053290611280565b60405180910390fd5b60006004905061054a81610719565b341461058b576040517f08c379a00000000000000000000000000000000000000000000000000000000081526004016105829061118e565b60405180910390fd5b6105a03460045461073490919063ffffffff16565b6004819055507ff4d9dacd8edaf0896a0c5d31f247d509f816c0986b795be5dd58f9eb25c2f5703384346040516105d9939291906112a0565b60405180910390a16105eb8383610760565b505050565b60035481565b8173ffffffffffffffffffffffffffffffffffffffff163373ffffffffffffffffffffffffffffffffffffffff1614610664576040517f08c379a000000000000000000000000000000000000000000000000000000000815260040161065b90611350565b60405180910390fd5b804710156106a7576040517f08c379a000000000000000000000000000000000000000000000000000000000815260040161069e906113e2565b60405180910390fd5b8273ffffffffffffffffffffffffffffffffffffffff166108fc829081150290604051600060405180830381858888f193505050501580156106ed573d6000803e3d6000fd5b50505050565b600560009054906101000a900473ffffffffffffffffffffffffffffffffffffffff1681565b600061072d82670de0b6b3a7640000610909565b9050919050565b60008082846107439190611431565b90508381101561075657610755611465565b5b8091505092915050565b61076982610951565b156107a9576040517f08c379a00000000000000000000000000000000000000000000000000000000081526004016107a090611506565b60405180910390fd5b6107bf600160035461073490919063ffffffff16565b6003819055506001600260008373ffffffffffffffffffffffffffffffffffffffff1673ffffffffffffffffffffffffffffffffffffffff16815260200190815260200160002060006101000a81548160ff02191690831515021790555060606040518060a001604052806003548152602001848152602001600181526020018373ffffffffffffffffffffffffffffffffffffffff16815260200182815250600080600354815260200190815260200160002060008201518160000155602082015181600101908161089291906116d2565b506040820151816002015560608201518160030160006101000a81548173ffffffffffffffffffffffffffffffffffffffff021916908373ffffffffffffffffffffffffffffffffffffffff1602179055506080820151816004019080519060200190610900929190610b92565b50905050505050565b600080830361091b576000905061094b565b6000828461092991906117a4565b90508284826109389190611815565b1461094657610945611465565b5b809150505b92915050565b600080600090506000600190505b6003548111610b885760008060008381526020019081526020016000206040518060a0016040529081600082015481526020016001820180546109a1906111dd565b80601f01602080910402602001604051908101604052809291908181526020018280546109cd906111dd565b8015610a1a5780601f106109ef57610100808354040283529160200191610a1a565b820191906000526020600020905b8154815290600101906020018083116109fd57829003601f168201915b50505050508152602001600282015481526020016003820160009054906101000a900473ffffffffffffffffffffffffffffffffffffffff1673ffffffffffffffffffffffffffffffffffffffff1673ffffffffffffffffffffffffffffffffffffffff16815260200160048201805480602002602001604051908101604052809291908181526020018280548015610b0857602002820191906000526020600020905b8160009054906101000a900473ffffffffffffffffffffffffffffffffffffffff1673ffffffffffffffffffffffffffffffffffffffff1681526020019060010190808311610abe575b505050505081525050905084604051602001610b249190611882565b604051602081830303815290604052805190602001208160200151604051602001610b4f9190611882565b6040516020818303038152906040528051906020012003610b74576001925050610b88565b508080610b8090611899565b91505061095f565b5080915050919050565b828054828255906000526020600020908101928215610c0b579160200282015b82811115610c0a5782518260006101000a81548173ffffffffffffffffffffffffffffffffffffffff021916908373ffffffffffffffffffffffffffffffffffffffff16021790555091602001919060010190610bb2565b5b509050610c189190610c1c565b5090565b5b80821115610c35576000816000905550600101610c1d565b5090565b6000604051905090565b600080fd5b600080fd5b6000819050919050565b610c6081610c4d565b8114610c6b57600080fd5b50565b600081359050610c7d81610c57565b92915050565b600073ffffffffffffffffffffffffffffffffffffffff82169050919050565b6000610cae82610c83565b9050919050565b610cbe81610ca3565b8114610cc957600080fd5b50565b600081359050610cdb81610cb5565b92915050565b60008060408385031215610cf857610cf7610c43565b5b6000610d0685828601610c6e565b9250506020610d1785828601610ccc565b9150509250929050565b600060208284031215610d3757610d36610c43565b5b6000610d4584828501610c6e565b91505092915050565b610d5781610c4d565b82525050565b600081519050919050565b600082825260208201905092915050565b60005b83811015610d97578082015181840152602081019050610d7c565b60008484015250505050565b6000601f19601f8301169050919050565b6000610dbf82610d5d565b610dc98185610d68565b9350610dd9818560208601610d79565b610de281610da3565b840191505092915050565b610df681610ca3565b82525050565b6000608082019050610e116000830187610d4e565b8181036020830152610e238186610db4565b9050610e326040830185610d4e565b610e3f6060830184610ded565b95945050505050565b60008115159050919050565b610e5d81610e48565b82525050565b6000602082019050610e786000830184610e54565b92915050565b600080fd5b600080fd5b7f4e487b7100000000000000000000000000000000000000000000000000000000600052604160045260246000fd5b610ec082610da3565b810181811067ffffffffffffffff82111715610edf57610ede610e88565b5b80604052505050565b6000610ef2610c39565b9050610efe8282610eb7565b919050565b600067ffffffffffffffff821115610f1e57610f1d610e88565b5b610f2782610da3565b9050602081019050919050565b82818337600083830152505050565b6000610f56610f5184610f03565b610ee8565b905082815260208101848484011115610f7257610f71610e83565b5b610f7d848285610f34565b509392505050565b600082601f830112610f9a57610f99610e7e565b5b8135610faa848260208601610f43565b91505092915050565b60008060408385031215610fca57610fc9610c43565b5b600083013567ffffffffffffffff811115610fe857610fe7610c48565b5b610ff485828601610f85565b925050602061100585828601610ccc565b9150509250929050565b60006020820190506110246000830184610d4e565b92915050565b600061103582610c83565b9050919050565b6110458161102a565b811461105057600080fd5b50565b6000813590506110628161103c565b92915050565b60008060006060848603121561108157611080610c43565b5b600061108f86828701611053565b93505060206110a086828701610ccc565b92505060406110b186828701610c6e565b9150509250925092565b60006020820190506110d06000830184610ded565b92915050565b7f55736572206163636f756e742068617320616c726561647920766f7465640000600082015250565b600061110c601e83610d68565b9150611117826110d6565b602082019050919050565b6000602082019050818103600083015261113b816110ff565b9050919050565b7f496e73756666696369656e742066756e64732070726f76696465640000000000600082015250565b6000611178601b83610d68565b915061118382611142565b602082019050919050565b600060208201905081810360008301526111a78161116b565b9050919050565b7f4e487b7100000000000000000000000000000000000000000000000000000000600052602260045260246000fd5b600060028204905060018216806111f557607f821691505b602082108103611208576112076111ae565b5b50919050565b7f55736572206163636f756e742068617320616c7265616479206d61646520612060008201527f70726f706f73616c000000000000000000000000000000000000000000000000602082015250565b600061126a602883610d68565b91506112758261120e565b604082019050919050565b600060208201905081810360008301526112998161125d565b9050919050565b60006060820190506112b56000830186610ded565b81810360208301526112c78185610db4565b90506112d66040830184610d4e565b949350505050565b7f4f6e6c7920746865207370656369666965642073656e6465722063616e20636160008201527f6c6c20746869732066756e6374696f6e00000000000000000000000000000000602082015250565b600061133a603083610d68565b9150611345826112de565b604082019050919050565b600060208201905081810360008301526113698161132d565b9050919050565b7f496e73756666696369656e742062616c616e636520696e2074686520636f6e7460008201527f7261637400000000000000000000000000000000000000000000000000000000602082015250565b60006113cc602483610d68565b91506113d782611370565b604082019050919050565b600060208201905081810360008301526113fb816113bf565b9050919050565b7f4e487b7100000000000000000000000000000000000000000000000000000000600052601160045260246000fd5b600061143c82610c4d565b915061144783610c4d565b925082820190508082111561145f5761145e611402565b5b92915050565b7f4e487b7100000000000000000000000000000000000000000000000000000000600052600160045260246000fd5b7f43616e64696461746520616c726561647920696e20636f6e74656e74696f6e2060008201527f666f7220766f74696e6700000000000000000000000000000000000000000000602082015250565b60006114f0602a83610d68565b91506114fb82611494565b604082019050919050565b6000602082019050818103600083015261151f816114e3565b9050919050565b60008190508160005260206000209050919050565b60006020601f8301049050919050565b600082821b905092915050565b6000600883026115887fffffffffffffffffffffffffffffffffffffffffffffffffffffffffffffffff8261154b565b611592868361154b565b95508019841693508086168417925050509392505050565b6000819050919050565b60006115cf6115ca6115c584610c4d565b6115aa565b610c4d565b9050919050565b6000819050919050565b6115e9836115b4565b6115fd6115f5826115d6565b848454611558565b825550505050565b600090565b611612611605565b61161d8184846115e0565b505050565b5b818110156116415761163660008261160a565b600181019050611623565b5050565b601f8211156116865761165781611526565b6116608461153b565b8101602085101561166f578190505b61168361167b8561153b565b830182611622565b50505b505050565b600082821c905092915050565b60006116a96000198460080261168b565b1980831691505092915050565b60006116c28383611698565b9150826002028217905092915050565b6116db82610d5d565b67ffffffffffffffff8111156116f4576116f3610e88565b5b6116fe82546111dd565b611709828285611645565b600060209050601f83116001811461173c576000841561172a578287015190505b61173485826116b6565b86555061179c565b601f19841661174a86611526565b60005b828110156117725784890151825560018201915060208501945060208101905061174d565b8683101561178f578489015161178b601f891682611698565b8355505b6001600288020188555050505b505050505050565b60006117af82610c4d565b91506117ba83610c4d565b92508282026117c881610c4d565b915082820484148315176117df576117de611402565b5b5092915050565b7f4e487b7100000000000000000000000000000000000000000000000000000000600052601260045260246000fd5b600061182082610c4d565b915061182b83610c4d565b92508261183b5761183a6117e6565b5b828204905092915050565b600081905092915050565b600061185c82610d5d565b6118668185611846565b9350611876818560208601610d79565b80840191505092915050565b600061188e8284611851565b915081905092915050565b60006118a482610c4d565b91507fffffffffffffffffffffffffffffffffffffffffffffffffffffffffffffffff82036118d6576118d5611402565b5b60018201905091905056fea26469706673582212209c0d2687bd0473be373c64200001c275de3ea821dfa0fcac4e3056cc8bf2528464736f6c63430008130033",
  "immutableReferences": {},
  "source": "// SPDX-License-Identifier: UNLICENSED\r\npragma solidity ^0.8.19;\r\n\r\nimport \"./safemath.sol\";\r\n//import \"./SkolFaithful.sol\";\r\n\r\n// This contract is where proposals for head coach candidates are sent to and where votes are cast for a head coach\r\n// It also controls the distribution of MVCs and REP tokens when voting finishes\r\ncontract CoachVotingMechanism {\r\n    // some coaches already proposed\r\n    // some coaches free to make a proposal for\r\n\r\n    using SafeMath for uint;\r\n\r\n    struct Candidate {\r\n        uint id;\r\n        string name;\r\n        uint voteCount;\r\n        address ownerAddress;\r\n        address[] votersForCandidate;\r\n    }\r\n\r\n    mapping(uint => Candidate) public candidates;\r\n    mapping(address => bool) private haveVoted;\r\n    mapping(address => bool) private hasProposed;\r\n    uint public candidateCount;\r\n    uint private totalEther;\r\n\r\n    event votedEvent (\r\n        uint indexed _candidateId\r\n    );\r\n\r\n    event ProposalReceived(address sender, string candidateName, uint amount);\r\n\r\n    address public contractAddress;\r\n\r\n    constructor () {\r\n        address temp2 = 0xFeb798ed0E1eC865Bf80703cA1E1Bb7a48DdEAfa;\r\n        address temp3 = 0x48f84a00F895be17BD4Fa9e0731c7b39eAcd6FBe;\r\n        address temp4 = 0xCF16fe704d4b01ecDD98A41af04B92008D2a32CC;\r\n        address temp5 = 0x709E646fc789ec4b3D093C8871f66640E9c60616;\r\n        addCandidate(\"Bill Belichick\", temp2);\r\n        addCandidate(\"Mike Vrabel\", temp3);\r\n        addCandidate(\"Brandon Staley\", temp4);\r\n        addCandidate(\"Frank Reich\", temp5);\r\n\r\n        contractAddress = address(this);\r\n    }\r\n\r\n    // adds a candidate to the map of candidates\r\n    // checks for candidates with the duplicateCandidateCheck helper function\r\n    // adds owner of candidate proposal to hasProposed map which is checked so an owner can't make more than 1 proposal \r\n    function addCandidate(string memory candidateName, address owner) private {\r\n        require(!duplicateCandidateCheck(candidateName), 'Candidate already in contention for voting');\r\n\r\n        candidateCount = candidateCount.add(1);\r\n        hasProposed[owner] = true;\r\n        address[] memory votersForCandidate;\r\n        candidates[candidateCount] = Candidate(candidateCount,candidateName,1,owner,votersForCandidate);\r\n    }\r\n\r\n    // helper function to check if incoming candidate is already proposed by someone else\r\n    function duplicateCandidateCheck(string memory candidateName) private view returns (bool) {\r\n        bool output = false;\r\n        for (uint i=1; i<=candidateCount; i++){\r\n            Candidate memory temp = candidates[i];\r\n            if (keccak256(abi.encodePacked(temp.name)) == keccak256(abi.encodePacked(candidateName))){\r\n                output = true;\r\n                break;\r\n            }\r\n        }\r\n        return output;\r\n    }\r\n\r\n    // user uses this function to vote for a coach candidate\r\n    // makes sure user hasn't voted already and provides sufficient eth (costs 2mvcs/eth to vote)\r\n    // increments votes for candidate and adds voter's address to array field in Candidate struct for potential redistribution\r\n    // emits votedEvent event\r\n    // OVERSIGHT - overlooked the separation of my DAO'S currency MVCs vs eth\r\n    function voteForCandidate(uint candidateId, address voterAddress) public payable {\r\n        require(!haveVoted[msg.sender], 'User account has already voted');\r\n        uint ethAmount = 2;\r\n        require(msg.value == ethAmount.toWei(), 'Insufficient funds provided');\r\n        require(candidateId > 0 && candidateId <= candidateCount);\r\n\r\n        haveVoted[msg.sender] = true;\r\n        candidates[candidateId].voteCount = candidates[candidateId].voteCount.add(1);\r\n        candidates[candidateId].votersForCandidate.push(voterAddress);\r\n        \r\n        emit votedEvent(candidateId);\r\n    }\r\n\r\n    // user uses this function to submit a proposal for a new coach candidate\r\n    // checks that sufficient eth is provided (4eth) and that user hasn't already made a proposal\r\n    // adds ether to totalEther value which will be distributed after the voting has ended\r\n    function receiveCandidateProposal(string memory candidateName, address owner) public payable {\r\n        require(!hasProposed[msg.sender], 'User account has already made a proposal');\r\n        uint ethAmount = 4;\r\n        require(msg.value == ethAmount.toWei(), 'Insufficient funds provided');\r\n\r\n        totalEther = totalEther.add(msg.value);\r\n        emit ProposalReceived(msg.sender, candidateName, msg.value);\r\n\r\n        addCandidate(candidateName, owner);        \r\n    }\r\n\r\n    // ChatGPT generated function that takes the map of candidates and returns an array of candidates coming top 5 in voting\r\n    // index 0 candidate has most votes, index 4 candidate has least votes out of the top 5\r\n    function getPodium() private view returns (Candidate[5] memory) {\r\n        Candidate[5] memory podium;\r\n        \r\n        // Initialize an array to store the top 5 candidates\r\n        for (uint i = 0; i < 5; i++) {\r\n            uint maxVotes = 0;\r\n            uint maxIndex = 0;\r\n            \r\n            // Find the candidate with the maximum votes\r\n            for (uint j = 1; j <= candidateCount; j++) {\r\n                if (candidates[j].voteCount > maxVotes) {\r\n                    bool isAlreadyInTop = false;\r\n                    for(uint k = 0; k < i; k++) {\r\n                        if(candidates[j].id == podium[k].id) {\r\n                            isAlreadyInTop = true;\r\n                            break;\r\n                        }\r\n                    }\r\n                    if(!isAlreadyInTop) {\r\n                        maxVotes = candidates[j].voteCount;\r\n                        maxIndex = j;\r\n                    }\r\n                }\r\n            }\r\n            \r\n            // Add the candidate with the maximum votes to the podium array\r\n            podium[i] = candidates[maxIndex];\r\n        }\r\n        \r\n        return podium;\r\n    }\r\n\r\n\r\n    bool public doneVoting = false;\r\n    function distributeMVCsAfterVoting(Candidate[] memory topFive) private {\r\n        if (doneVoting) {\r\n            //Candidate[] topFive = getPodium();\r\n\r\n            for (uint i=0; i<topFive.length; i++){ // rule 1\r\n                for (uint j=0; j<topFive[i].votersForCandidate.length; j++){\r\n                    address payable recipient = payable(topFive[i].votersForCandidate[j]);\r\n                    sendMVC(recipient, contractAddress, 1 ether);\r\n                }\r\n                totalEther = totalEther.sub(topFive[i].votersForCandidate.length);\r\n            }\r\n\r\n            uint conversion = 10;\r\n            uint initialPercent = 30;\r\n\r\n            for (uint k=0; k<topFive.length; k++){ // rules 2-6\r\n                uint percentage = initialPercent - k * 5;\r\n                uint amount = (totalEther*percentage/100)*conversion/100;\r\n\r\n                address payable recipient2 = payable(topFive[k].ownerAddress);\r\n                sendMVC(recipient2, contractAddress, amount);\r\n            }\r\n        }\r\n    }\r\n\r\n    function sendMVC(address payable _to, address _from, uint amount) public payable {\r\n        require(msg.sender == _from, \"Only the specified sender can call this function\");\r\n        require(address(this).balance >= amount, \"Insufficient balance in the contract\");\r\n\r\n        _to.transfer(amount);\r\n    }\r\n\r\n    // function awardRepTokens(address _memberAddress, uint _tokens) external {\r\n    //     uint totalMembers = skolFaithful.getMembers().length;\r\n\r\n    //     for (uint i=0; i<totalMembers; i++){\r\n    //         SkolFaithful.Member memory member = skolFaithful.getMemberAtIndex(i);\r\n\r\n    //         if (member.owner == _memberAddress){\r\n    //             skolFaithful.updateRepTokens(i, _tokens);\r\n    //             return;\r\n    //         }\r\n    //     }\r\n    // }\r\n}",
  "sourcePath": "C:\\Users\\cooki\\OneDrive\\Documents\\Metro State Stuff\\690-Blockchain\\ics690-vikings-dapp\\contracts\\CoachVotingMechanism.sol",
  "compiler": {
    "name": "solc",
    "version": "0.8.19+commit.7dd6d404.Emscripten.clang"
  },
  "schemaVersion": "3.4.16",
  "updatedAt": "2024-03-28T07:14:35.878Z",
  "networkType": "ethereum",
  "devdoc": {
    "kind": "dev",
    "methods": {},
    "version": 1
  },
  "userdoc": {
    "kind": "user",
    "methods": {},
    "version": 1
  }
}