{
  "contractName": "Election2",
  "abi": [
    {
      "inputs": [
        {
          "internalType": "address",
          "name": "mvcTokenAddress",
          "type": "address"
        },
        {
          "internalType": "address",
          "name": "skolFaithfulAddress",
          "type": "address"
        }
      ],
      "stateMutability": "nonpayable",
      "type": "constructor"
    },
    {
      "anonymous": false,
      "inputs": [
        {
          "indexed": true,
          "internalType": "uint256",
          "name": "_candidateId",
          "type": "uint256"
        }
      ],
      "name": "votedEvent",
      "type": "event"
    },
    {
      "inputs": [
        {
          "internalType": "uint256",
          "name": "",
          "type": "uint256"
        }
      ],
      "name": "candidates",
      "outputs": [
        {
          "internalType": "uint256",
          "name": "id",
          "type": "uint256"
        },
        {
          "internalType": "string",
          "name": "name",
          "type": "string"
        },
        {
          "internalType": "uint256",
          "name": "voteCount",
          "type": "uint256"
        },
        {
          "internalType": "address",
          "name": "ownerAddress",
          "type": "address"
        }
      ],
      "stateMutability": "view",
      "type": "function",
      "constant": true
    },
    {
      "inputs": [],
      "name": "candidatesCount",
      "outputs": [
        {
          "internalType": "uint256",
          "name": "",
          "type": "uint256"
        }
      ],
      "stateMutability": "view",
      "type": "function",
      "constant": true
    },
    {
      "inputs": [],
      "name": "contractAddress",
      "outputs": [
        {
          "internalType": "address",
          "name": "",
          "type": "address"
        }
      ],
      "stateMutability": "view",
      "type": "function",
      "constant": true
    },
    {
      "inputs": [],
      "name": "mvcToken",
      "outputs": [
        {
          "internalType": "contract MVCToken",
          "name": "",
          "type": "address"
        }
      ],
      "stateMutability": "view",
      "type": "function",
      "constant": true
    },
    {
      "inputs": [],
      "name": "skolFaithfulInstance",
      "outputs": [
        {
          "internalType": "contract SkolFaithful",
          "name": "",
          "type": "address"
        }
      ],
      "stateMutability": "view",
      "type": "function",
      "constant": true
    },
    {
      "inputs": [
        {
          "internalType": "address",
          "name": "",
          "type": "address"
        }
      ],
      "name": "voters",
      "outputs": [
        {
          "internalType": "bool",
          "name": "",
          "type": "bool"
        }
      ],
      "stateMutability": "view",
      "type": "function",
      "constant": true
    },
    {
      "inputs": [
        {
          "internalType": "uint256",
          "name": "_candidateId",
          "type": "uint256"
        }
      ],
      "name": "vote",
      "outputs": [],
      "stateMutability": "nonpayable",
      "type": "function"
    }
  ],
  "bytecode": "0x60806040523480156200001157600080fd5b50604051620014cd380380620014cd833981810160405281019062000037919062000508565b816000806101000a81548173ffffffffffffffffffffffffffffffffffffffff021916908373ffffffffffffffffffffffffffffffffffffffff16021790555080600160006101000a81548173ffffffffffffffffffffffffffffffffffffffff021916908373ffffffffffffffffffffffffffffffffffffffff160217905550600073feb798ed0e1ec865bf80703ca1e1bb7a48ddeafa905060007348f84a00f895be17bd4fa9e0731c7b39eacd6fbe9050600073cf16fe704d4b01ecdd98a41af04b92008d2a32cc9050600073709e646fc789ec4b3d093c8871f66640e9c60616905060007222872cd7dc3e7ea18242d815b85bf972df29b790506200017b6040518060400160405280600e81526020017f42696c6c2042656c69636869636b00000000000000000000000000000000000081525086620002e560201b60201c565b620001c26040518060400160405280600b81526020017f4d696b652056726162656c00000000000000000000000000000000000000000081525085620002e560201b60201c565b620002096040518060400160405280600e81526020017f4272616e646f6e205374616c657900000000000000000000000000000000000081525084620002e560201b60201c565b620002506040518060400160405280600b81526020017f4672616e6b20526569636800000000000000000000000000000000000000000081525083620002e560201b60201c565b620002976040518060400160405280600b81526020017f4d696b65205a696d6d657200000000000000000000000000000000000000000081525082620002e560201b60201c565b30600560006101000a81548173ffffffffffffffffffffffffffffffffffffffff021916908373ffffffffffffffffffffffffffffffffffffffff160217905550505050505050506200092c565b60046000815480929190620002fa9062000588565b919050555060606040518060a001604052806004548152602001848152602001600081526020018373ffffffffffffffffffffffffffffffffffffffff1681526020018281525060036000600454815260200190815260200160002060008201518160000155602082015181600101908162000377919062000845565b506040820151816002015560608201518160030160006101000a81548173ffffffffffffffffffffffffffffffffffffffff021916908373ffffffffffffffffffffffffffffffffffffffff1602179055506080820151816004019080519060200190620003e7929190620003f0565b50905050505050565b8280548282559060005260206000209081019282156200046c579160200282015b828111156200046b5782518260006101000a81548173ffffffffffffffffffffffffffffffffffffffff021916908373ffffffffffffffffffffffffffffffffffffffff1602179055509160200191906001019062000411565b5b5090506200047b91906200047f565b5090565b5b808211156200049a57600081600090555060010162000480565b5090565b600080fd5b600073ffffffffffffffffffffffffffffffffffffffff82169050919050565b6000620004d082620004a3565b9050919050565b620004e281620004c3565b8114620004ee57600080fd5b50565b6000815190506200050281620004d7565b92915050565b600080604083850312156200052257620005216200049e565b5b60006200053285828601620004f1565b92505060206200054585828601620004f1565b9150509250929050565b7f4e487b7100000000000000000000000000000000000000000000000000000000600052601160045260246000fd5b6000819050919050565b600062000595826200057e565b91507fffffffffffffffffffffffffffffffffffffffffffffffffffffffffffffffff8203620005ca57620005c96200054f565b5b600182019050919050565b600081519050919050565b7f4e487b7100000000000000000000000000000000000000000000000000000000600052604160045260246000fd5b7f4e487b7100000000000000000000000000000000000000000000000000000000600052602260045260246000fd5b600060028204905060018216806200065757607f821691505b6020821081036200066d576200066c6200060f565b5b50919050565b60008190508160005260206000209050919050565b60006020601f8301049050919050565b600082821b905092915050565b600060088302620006d77fffffffffffffffffffffffffffffffffffffffffffffffffffffffffffffffff8262000698565b620006e3868362000698565b95508019841693508086168417925050509392505050565b6000819050919050565b600062000726620007206200071a846200057e565b620006fb565b6200057e565b9050919050565b6000819050919050565b620007428362000705565b6200075a62000751826200072d565b848454620006a5565b825550505050565b600090565b6200077162000762565b6200077e81848462000737565b505050565b5b81811015620007a6576200079a60008262000767565b60018101905062000784565b5050565b601f821115620007f557620007bf8162000673565b620007ca8462000688565b81016020851015620007da578190505b620007f2620007e98562000688565b83018262000783565b50505b505050565b600082821c905092915050565b60006200081a60001984600802620007fa565b1980831691505092915050565b600062000835838362000807565b9150826002028217905092915050565b6200085082620005d5565b67ffffffffffffffff8111156200086c576200086b620005e0565b5b6200087882546200063e565b62000885828285620007aa565b600060209050601f831160018114620008bd5760008415620008a8578287015190505b620008b4858262000827565b86555062000924565b601f198416620008cd8662000673565b60005b82811015620008f757848901518255600182019150602085019450602081019050620008d0565b8683101562000917578489015162000913601f89168262000807565b8355505b6001600288020188555050505b505050505050565b610b91806200093c6000396000f3fe608060405234801561001057600080fd5b506004361061007d5760003560e01c8063600e98501161005b578063600e9850146100ef578063a3ec138d1461010d578063d65aadc61461013d578063f6b4dfb41461015b5761007d565b80630121b93f146100825780632d35a8a21461009e5780633477ee2e146100bc575b600080fd5b61009c60048036038101906100979190610667565b610179565b005b6100a66104be565b6040516100b391906106a3565b60405180910390f35b6100d660048036038101906100d19190610667565b6104c4565b6040516100e6949392919061078f565b60405180910390f35b6100f761059c565b604051610104919061083a565b60405180910390f35b61012760048036038101906101229190610881565b6105c0565b60405161013491906108c9565b60405180910390f35b6101456105e0565b6040516101529190610905565b60405180910390f35b610163610606565b6040516101709190610920565b60405180910390f35b600260003373ffffffffffffffffffffffffffffffffffffffff1673ffffffffffffffffffffffffffffffffffffffff16815260200190815260200160002060009054906101000a900460ff16156101d057600080fd5b6000811180156101e257506004548111155b6101eb57600080fd5b600260008054906101000a900473ffffffffffffffffffffffffffffffffffffffff1673ffffffffffffffffffffffffffffffffffffffff1663d1e0ea45336040518263ffffffff1660e01b81526004016102469190610920565b602060405180830381865afa158015610263573d6000803e3d6000fd5b505050506040513d601f19601f820116820180604052508101906102879190610950565b10156102c8576040517f08c379a00000000000000000000000000000000000000000000000000000000081526004016102bf906109c9565b60405180910390fd5b60008054906101000a900473ffffffffffffffffffffffffffffffffffffffff1673ffffffffffffffffffffffffffffffffffffffff1663beabacc833600560009054906101000a900473ffffffffffffffffffffffffffffffffffffffff1660026040518463ffffffff1660e01b815260040161034893929190610a24565b600060405180830381600087803b15801561036257600080fd5b505af1158015610376573d6000803e3d6000fd5b50505050600160009054906101000a900473ffffffffffffffffffffffffffffffffffffffff1673ffffffffffffffffffffffffffffffffffffffff166359eda6b83360026040518363ffffffff1660e01b81526004016103d8929190610a5b565b600060405180830381600087803b1580156103f257600080fd5b505af1158015610406573d6000803e3d6000fd5b505050506001600260003373ffffffffffffffffffffffffffffffffffffffff1673ffffffffffffffffffffffffffffffffffffffff16815260200190815260200160002060006101000a81548160ff02191690831515021790555060036000828152602001908152602001600020600201600081548092919061048990610ab3565b9190505550807ffff3c900d938d21d0990d786e819f29b8d05c1ef587b462b939609625b684b1660405160405180910390a250565b60045481565b60036020528060005260406000206000915090508060000154908060010180546104ed90610b2a565b80601f016020809104026020016040519081016040528092919081815260200182805461051990610b2a565b80156105665780601f1061053b57610100808354040283529160200191610566565b820191906000526020600020905b81548152906001019060200180831161054957829003601f168201915b5050505050908060020154908060030160009054906101000a900473ffffffffffffffffffffffffffffffffffffffff16905084565b60008054906101000a900473ffffffffffffffffffffffffffffffffffffffff1681565b60026020528060005260406000206000915054906101000a900460ff1681565b600160009054906101000a900473ffffffffffffffffffffffffffffffffffffffff1681565b600560009054906101000a900473ffffffffffffffffffffffffffffffffffffffff1681565b600080fd5b6000819050919050565b61064481610631565b811461064f57600080fd5b50565b6000813590506106618161063b565b92915050565b60006020828403121561067d5761067c61062c565b5b600061068b84828501610652565b91505092915050565b61069d81610631565b82525050565b60006020820190506106b86000830184610694565b92915050565b600081519050919050565b600082825260208201905092915050565b60005b838110156106f85780820151818401526020810190506106dd565b60008484015250505050565b6000601f19601f8301169050919050565b6000610720826106be565b61072a81856106c9565b935061073a8185602086016106da565b61074381610704565b840191505092915050565b600073ffffffffffffffffffffffffffffffffffffffff82169050919050565b60006107798261074e565b9050919050565b6107898161076e565b82525050565b60006080820190506107a46000830187610694565b81810360208301526107b68186610715565b90506107c56040830185610694565b6107d26060830184610780565b95945050505050565b6000819050919050565b60006108006107fb6107f68461074e565b6107db565b61074e565b9050919050565b6000610812826107e5565b9050919050565b600061082482610807565b9050919050565b61083481610819565b82525050565b600060208201905061084f600083018461082b565b92915050565b61085e8161076e565b811461086957600080fd5b50565b60008135905061087b81610855565b92915050565b6000602082840312156108975761089661062c565b5b60006108a58482850161086c565b91505092915050565b60008115159050919050565b6108c3816108ae565b82525050565b60006020820190506108de60008301846108ba565b92915050565b60006108ef82610807565b9050919050565b6108ff816108e4565b82525050565b600060208201905061091a60008301846108f6565b92915050565b60006020820190506109356000830184610780565b92915050565b60008151905061094a8161063b565b92915050565b6000602082840312156109665761096561062c565b5b60006109748482850161093b565b91505092915050565b7f496e73756666696369656e74204d564320746f6b656e7320746f20766f746500600082015250565b60006109b3601f836106c9565b91506109be8261097d565b602082019050919050565b600060208201905081810360008301526109e2816109a6565b9050919050565b6000819050919050565b6000610a0e610a09610a04846109e9565b6107db565b610631565b9050919050565b610a1e816109f3565b82525050565b6000606082019050610a396000830186610780565b610a466020830185610780565b610a536040830184610a15565b949350505050565b6000604082019050610a706000830185610780565b610a7d6020830184610a15565b9392505050565b7f4e487b7100000000000000000000000000000000000000000000000000000000600052601160045260246000fd5b6000610abe82610631565b91507fffffffffffffffffffffffffffffffffffffffffffffffffffffffffffffffff8203610af057610aef610a84565b5b600182019050919050565b7f4e487b7100000000000000000000000000000000000000000000000000000000600052602260045260246000fd5b60006002820490506001821680610b4257607f821691505b602082108103610b5557610b54610afb565b5b5091905056fea2646970667358221220134f4b9e7a9232362741cedaa29151c4ae7623e6739591d40d912efca70f265c64736f6c63430008130033",
  "immutableReferences": {},
  "source": "// SPDX-License-Identifier: MIT\r\npragma solidity ^0.8.19;\r\n\r\nimport \"./MVCToken.sol\" as MVCTokenContract;\r\nimport \"./SkolFaithful.sol\" as SkolFaithfulContract;\r\n\r\ncontract Election2 {\r\n    // Model a Candidate\r\n    struct Candidate {\r\n        uint id;\r\n        string name;\r\n        uint voteCount;\r\n        address ownerAddress;\r\n        address[] votersForCandidate;\r\n    }\r\n\r\n    MVCTokenContract.MVCToken public mvcToken;\r\n    SkolFaithfulContract.SkolFaithful public skolFaithfulInstance;\r\n\r\n    // Store accounts that have voted\r\n    mapping(address => bool) public voters;\r\n    // Store Candidates\r\n    // Fetch Candidate\r\n    mapping(uint => Candidate) public candidates;\r\n    // Store Candidates Count\r\n    uint public candidatesCount;\r\n\r\n    // voted event\r\n    event votedEvent (\r\n        uint indexed _candidateId\r\n    );\r\n\r\n    address public contractAddress;\r\n\r\n    constructor (address mvcTokenAddress, address skolFaithfulAddress) {\r\n        mvcToken = MVCTokenContract.MVCToken(mvcTokenAddress);\r\n        skolFaithfulInstance = SkolFaithfulContract.SkolFaithful(skolFaithfulAddress);\r\n\r\n        address temp2 = 0xFeb798ed0E1eC865Bf80703cA1E1Bb7a48DdEAfa;\r\n        address temp3 = 0x48f84a00F895be17BD4Fa9e0731c7b39eAcd6FBe;\r\n        address temp4 = 0xCF16fe704d4b01ecDD98A41af04B92008D2a32CC;\r\n        address temp5 = 0x709E646fc789ec4b3D093C8871f66640E9c60616;\r\n        address temp6 = 0x0022872cD7Dc3E7eA18242D815B85bF972df29b7;\r\n        addCandidate(\"Bill Belichick\", temp2);\r\n        addCandidate(\"Mike Vrabel\", temp3);\r\n        addCandidate(\"Brandon Staley\", temp4);\r\n        addCandidate(\"Frank Reich\", temp5);\r\n        addCandidate(\"Mike Zimmer\", temp6);\r\n\r\n        contractAddress = address(this);\r\n    }\r\n\r\n    function addCandidate (string memory _name, address owner) private {\r\n        candidatesCount ++;\r\n        address[] memory temp;\r\n        candidates[candidatesCount] = Candidate(candidatesCount, _name, 0, owner, temp);\r\n    }\r\n\r\n    function vote (uint _candidateId) public {\r\n        // require that they haven't voted before\r\n        require(!voters[msg.sender]);\r\n\r\n        // require a valid candidate\r\n        require(_candidateId > 0 && _candidateId <= candidatesCount);\r\n\r\n        require(mvcToken.mvcBalance(msg.sender) >= 2, \"Insufficient MVC tokens to vote\");\r\n\r\n        mvcToken.transfer(msg.sender,contractAddress,2);\r\n        skolFaithfulInstance.mvcTransaction(msg.sender,2);\r\n\r\n        // record that voter has voted\r\n        voters[msg.sender] = true;\r\n\r\n        // update candidate vote Count\r\n        candidates[_candidateId].voteCount ++;\r\n\r\n        // trigger voted event\r\n        emit votedEvent(_candidateId);\r\n    }\r\n}",
  "sourcePath": "C:\\Users\\cooki\\OneDrive\\Documents\\Metro State Stuff\\690-Blockchain\\ics690-vikings-dapp\\contracts\\Election2.sol",
  "compiler": {
    "name": "solc",
    "version": "0.8.19+commit.7dd6d404.Emscripten.clang"
  },
  "schemaVersion": "3.4.16",
  "updatedAt": "2024-04-06T22:43:26.788Z",
  "networkType": "ethereum",
  "devdoc": {
    "kind": "dev",
    "methods": {},
    "version": 1
  },
  "userdoc": {
    "kind": "user",
    "methods": {},
    "version": 1
  }
}