{
  "contractName": "Election2",
  "abi": [
    {
      "inputs": [
        {
          "internalType": "address",
          "name": "mvcTokenAddress",
          "type": "address"
        },
        {
          "internalType": "address",
          "name": "skolFaithfulAddress",
          "type": "address"
        }
      ],
      "stateMutability": "nonpayable",
      "type": "constructor"
    },
    {
      "anonymous": false,
      "inputs": [
        {
          "indexed": true,
          "internalType": "uint256",
          "name": "_candidateId",
          "type": "uint256"
        }
      ],
      "name": "votedEvent",
      "type": "event"
    },
    {
      "inputs": [
        {
          "internalType": "uint256",
          "name": "",
          "type": "uint256"
        }
      ],
      "name": "candidates",
      "outputs": [
        {
          "internalType": "uint256",
          "name": "id",
          "type": "uint256"
        },
        {
          "internalType": "string",
          "name": "name",
          "type": "string"
        },
        {
          "internalType": "uint256",
          "name": "voteCount",
          "type": "uint256"
        },
        {
          "internalType": "address",
          "name": "ownerAddress",
          "type": "address"
        }
      ],
      "stateMutability": "view",
      "type": "function",
      "constant": true
    },
    {
      "inputs": [],
      "name": "candidatesCount",
      "outputs": [
        {
          "internalType": "uint256",
          "name": "",
          "type": "uint256"
        }
      ],
      "stateMutability": "view",
      "type": "function",
      "constant": true
    },
    {
      "inputs": [],
      "name": "contractAddress",
      "outputs": [
        {
          "internalType": "address",
          "name": "",
          "type": "address"
        }
      ],
      "stateMutability": "view",
      "type": "function",
      "constant": true
    },
    {
      "inputs": [],
      "name": "mvcToken",
      "outputs": [
        {
          "internalType": "contract MVCToken",
          "name": "",
          "type": "address"
        }
      ],
      "stateMutability": "view",
      "type": "function",
      "constant": true
    },
    {
      "inputs": [],
      "name": "skolFaithfulInstance",
      "outputs": [
        {
          "internalType": "contract SkolFaithful",
          "name": "",
          "type": "address"
        }
      ],
      "stateMutability": "view",
      "type": "function",
      "constant": true
    },
    {
      "inputs": [],
      "name": "totalMVCs",
      "outputs": [
        {
          "internalType": "uint256",
          "name": "",
          "type": "uint256"
        }
      ],
      "stateMutability": "view",
      "type": "function",
      "constant": true
    },
    {
      "inputs": [],
      "name": "totalVotes",
      "outputs": [
        {
          "internalType": "uint256",
          "name": "",
          "type": "uint256"
        }
      ],
      "stateMutability": "view",
      "type": "function",
      "constant": true
    },
    {
      "inputs": [
        {
          "internalType": "address",
          "name": "",
          "type": "address"
        }
      ],
      "name": "voters",
      "outputs": [
        {
          "internalType": "bool",
          "name": "",
          "type": "bool"
        }
      ],
      "stateMutability": "view",
      "type": "function",
      "constant": true
    },
    {
      "inputs": [],
      "name": "getContractMVCs",
      "outputs": [
        {
          "internalType": "uint256",
          "name": "",
          "type": "uint256"
        }
      ],
      "stateMutability": "view",
      "type": "function",
      "constant": true
    },
    {
      "inputs": [
        {
          "internalType": "uint256",
          "name": "_candidateId",
          "type": "uint256"
        }
      ],
      "name": "vote",
      "outputs": [],
      "stateMutability": "nonpayable",
      "type": "function"
    },
    {
      "inputs": [],
      "name": "finishVoting",
      "outputs": [],
      "stateMutability": "nonpayable",
      "type": "function"
    }
  ],
  "bytecode": "0x60806040523480156200001157600080fd5b5060405162002b8038038062002b8083398181016040528101906200003791906200087e565b816000806101000a81548173ffffffffffffffffffffffffffffffffffffffff021916908373ffffffffffffffffffffffffffffffffffffffff16021790555080600160006101000a81548173ffffffffffffffffffffffffffffffffffffffff021916908373ffffffffffffffffffffffffffffffffffffffff16021790555030600760006101000a81548173ffffffffffffffffffffffffffffffffffffffff021916908373ffffffffffffffffffffffffffffffffffffffff160217905550600073feb798ed0e1ec865bf80703ca1e1bb7a48ddeafa905060007348f84a00f895be17bd4fa9e0731c7b39eacd6fbe9050600073cf16fe704d4b01ecdd98a41af04b92008d2a32cc9050600073709e646fc789ec4b3d093c8871f66640e9c606169050620001a46040518060400160405280600e81526020017f42696c6c2042656c69636869636b000000000000000000000000000000000000815250856200036560201b60201c565b620001eb6040518060400160405280600b81526020017f4d696b652056726162656c000000000000000000000000000000000000000000815250846200036560201b60201c565b620002326040518060400160405280600e81526020017f4272616e646f6e205374616c6579000000000000000000000000000000000000815250836200036560201b60201c565b620002796040518060400160405280600b81526020017f4672616e6b205265696368000000000000000000000000000000000000000000815250826200036560201b60201c565b60007222872cd7dc3e7ea18242d815b85bf972df29b7905060007329903d7e00703607844fcb5d1492b0afc016e9bf90506000738c7fe6bdea2e1a76c80dcb75bc0086f96df550c290506000733f53e1a5c3c56bbd23d97890a28f9ce1c05ee563905060007323cceb31284c9b13361dfe36447ece97e38cc8879050620003088560016200062060201b60201c565b6200031b8460016200062060201b60201c565b6200032e8360026200062060201b60201c565b620003418260026200062060201b60201c565b620003548160036200062060201b60201c565b505050505050505050505062000e48565b600460008154809291906200037a90620008fe565b919050555060405180608001604052806004548152602001838152602001600181526020018273ffffffffffffffffffffffffffffffffffffffff16815250600360006004548152602001908152602001600020600082015181600001556020820151816001019081620003ef919062000bbb565b506040820151816002015560608201518160030160006101000a81548173ffffffffffffffffffffffffffffffffffffffff021916908373ffffffffffffffffffffffffffffffffffffffff1602179055509050506001600260008373ffffffffffffffffffffffffffffffffffffffff1673ffffffffffffffffffffffffffffffffffffffff16815260200190815260200160002060006101000a81548160ff021916908315150217905550600460066000828254620004b1919062000ca2565b9250508190555060056000815480929190620004cd90620008fe565b919050555060008054906101000a900473ffffffffffffffffffffffffffffffffffffffff1673ffffffffffffffffffffffffffffffffffffffff1663beabacc882600760009054906101000a900473ffffffffffffffffffffffffffffffffffffffff1660046040518463ffffffff1660e01b8152600401620005549392919062000d31565b600060405180830381600087803b1580156200056f57600080fd5b505af115801562000584573d6000803e3d6000fd5b50505050600160009054906101000a900473ffffffffffffffffffffffffffffffffffffffff1673ffffffffffffffffffffffffffffffffffffffff166359eda6b88260046040518363ffffffff1660e01b8152600401620005e892919062000d6e565b600060405180830381600087803b1580156200060357600080fd5b505af115801562000618573d6000803e3d6000fd5b505050505050565b6001600260008473ffffffffffffffffffffffffffffffffffffffff1673ffffffffffffffffffffffffffffffffffffffff16815260200190815260200160002060006101000a81548160ff0219169083151502179055506000600360008381526020019081526020016000209050806002016000815480929190620006a690620008fe565b919050555060056000815480929190620006c090620008fe565b919050555060008054906101000a900473ffffffffffffffffffffffffffffffffffffffff1673ffffffffffffffffffffffffffffffffffffffff1663beabacc884600760009054906101000a900473ffffffffffffffffffffffffffffffffffffffff1660026040518463ffffffff1660e01b8152600401620007479392919062000dde565b600060405180830381600087803b1580156200076257600080fd5b505af115801562000777573d6000803e3d6000fd5b50505050600160009054906101000a900473ffffffffffffffffffffffffffffffffffffffff1673ffffffffffffffffffffffffffffffffffffffff166359eda6b88460026040518363ffffffff1660e01b8152600401620007db92919062000e1b565b600060405180830381600087803b158015620007f657600080fd5b505af11580156200080b573d6000803e3d6000fd5b50505050505050565b600080fd5b600073ffffffffffffffffffffffffffffffffffffffff82169050919050565b6000620008468262000819565b9050919050565b620008588162000839565b81146200086457600080fd5b50565b60008151905062000878816200084d565b92915050565b6000806040838503121562000898576200089762000814565b5b6000620008a88582860162000867565b9250506020620008bb8582860162000867565b9150509250929050565b7f4e487b7100000000000000000000000000000000000000000000000000000000600052601160045260246000fd5b6000819050919050565b60006200090b82620008f4565b91507fffffffffffffffffffffffffffffffffffffffffffffffffffffffffffffffff820362000940576200093f620008c5565b5b600182019050919050565b600081519050919050565b7f4e487b7100000000000000000000000000000000000000000000000000000000600052604160045260246000fd5b7f4e487b7100000000000000000000000000000000000000000000000000000000600052602260045260246000fd5b60006002820490506001821680620009cd57607f821691505b602082108103620009e357620009e262000985565b5b50919050565b60008190508160005260206000209050919050565b60006020601f8301049050919050565b600082821b905092915050565b60006008830262000a4d7fffffffffffffffffffffffffffffffffffffffffffffffffffffffffffffffff8262000a0e565b62000a59868362000a0e565b95508019841693508086168417925050509392505050565b6000819050919050565b600062000a9c62000a9662000a9084620008f4565b62000a71565b620008f4565b9050919050565b6000819050919050565b62000ab88362000a7b565b62000ad062000ac78262000aa3565b84845462000a1b565b825550505050565b600090565b62000ae762000ad8565b62000af481848462000aad565b505050565b5b8181101562000b1c5762000b1060008262000add565b60018101905062000afa565b5050565b601f82111562000b6b5762000b3581620009e9565b62000b4084620009fe565b8101602085101562000b50578190505b62000b6862000b5f85620009fe565b83018262000af9565b50505b505050565b600082821c905092915050565b600062000b906000198460080262000b70565b1980831691505092915050565b600062000bab838362000b7d565b9150826002028217905092915050565b62000bc6826200094b565b67ffffffffffffffff81111562000be25762000be162000956565b5b62000bee8254620009b4565b62000bfb82828562000b20565b600060209050601f83116001811462000c33576000841562000c1e578287015190505b62000c2a858262000b9d565b86555062000c9a565b601f19841662000c4386620009e9565b60005b8281101562000c6d5784890151825560018201915060208501945060208101905062000c46565b8683101562000c8d578489015162000c89601f89168262000b7d565b8355505b6001600288020188555050505b505050505050565b600062000caf82620008f4565b915062000cbc83620008f4565b925082820190508082111562000cd75762000cd6620008c5565b5b92915050565b62000ce88162000839565b82525050565b6000819050919050565b600062000d1962000d1362000d0d8462000cee565b62000a71565b620008f4565b9050919050565b62000d2b8162000cf8565b82525050565b600060608201905062000d48600083018662000cdd565b62000d57602083018562000cdd565b62000d66604083018462000d20565b949350505050565b600060408201905062000d85600083018562000cdd565b62000d94602083018462000d20565b9392505050565b6000819050919050565b600062000dc662000dc062000dba8462000d9b565b62000a71565b620008f4565b9050919050565b62000dd88162000da5565b82525050565b600060608201905062000df5600083018662000cdd565b62000e04602083018562000cdd565b62000e13604083018462000dcd565b949350505050565b600060408201905062000e32600083018562000cdd565b62000e41602083018462000dcd565b9392505050565b611d288062000e586000396000f3fe608060405234801561001057600080fd5b50600436106100a95760003560e01c8063600e985011610071578063600e985014610157578063a3ec138d14610175578063d65aadc6146101a5578063f6b4dfb4146101c3578063f9094303146101e1578063fe3278f8146101eb576100a9565b80630121b93f146100ae5780630d15fd77146100ca5780632d35a8a2146100e857806332bd06f8146101065780633477ee2e14610124575b600080fd5b6100c860048036038101906100c391906115d0565b610209565b005b6100d2610586565b6040516100df919061160c565b60405180910390f35b6100f061058c565b6040516100fd919061160c565b60405180910390f35b61010e610592565b60405161011b919061160c565b60405180910390f35b61013e600480360381019061013991906115d0565b610598565b60405161014e94939291906116f8565b60405180910390f35b61015f610670565b60405161016c91906117a3565b60405180910390f35b61018f600480360381019061018a91906117ea565b610694565b60405161019c9190611832565b60405180910390f35b6101ad6106b4565b6040516101ba919061186e565b60405180910390f35b6101cb6106da565b6040516101d89190611889565b60405180910390f35b6101e9610700565b005b6101f36114d1565b604051610200919061160c565b60405180910390f35b600260003373ffffffffffffffffffffffffffffffffffffffff1673ffffffffffffffffffffffffffffffffffffffff16815260200190815260200160002060009054906101000a900460ff161561026057600080fd5b60008111801561027257506004548111155b61027b57600080fd5b600260008054906101000a900473ffffffffffffffffffffffffffffffffffffffff1673ffffffffffffffffffffffffffffffffffffffff1663d1e0ea45336040518263ffffffff1660e01b81526004016102d69190611889565b602060405180830381865afa1580156102f3573d6000803e3d6000fd5b505050506040513d601f19601f8201168201806040525081019061031791906118b9565b1015610358576040517f08c379a000000000000000000000000000000000000000000000000000000000815260040161034f90611932565b60405180910390fd5b60008054906101000a900473ffffffffffffffffffffffffffffffffffffffff1673ffffffffffffffffffffffffffffffffffffffff1663beabacc833600760009054906101000a900473ffffffffffffffffffffffffffffffffffffffff1660026040518463ffffffff1660e01b81526004016103d89392919061198d565b600060405180830381600087803b1580156103f257600080fd5b505af1158015610406573d6000803e3d6000fd5b50505050600160009054906101000a900473ffffffffffffffffffffffffffffffffffffffff1673ffffffffffffffffffffffffffffffffffffffff166359eda6b83360026040518363ffffffff1660e01b81526004016104689291906119c4565b600060405180830381600087803b15801561048257600080fd5b505af1158015610496573d6000803e3d6000fd5b505050506002600660008282546104ad9190611a1c565b92505081905550600560008154809291906104c790611a50565b91905055506001600260003373ffffffffffffffffffffffffffffffffffffffff1673ffffffffffffffffffffffffffffffffffffffff16815260200190815260200160002060006101000a81548160ff021916908315150217905550600060036000838152602001908152602001600020905080600201600081548092919061055090611a50565b9190505550817ffff3c900d938d21d0990d786e819f29b8d05c1ef587b462b939609625b684b1660405160405180910390a25050565b60055481565b60045481565b60065481565b60036020528060005260406000206000915090508060000154908060010180546105c190611ac7565b80601f01602080910402602001604051908101604052809291908181526020018280546105ed90611ac7565b801561063a5780601f1061060f5761010080835404028352916020019161063a565b820191906000526020600020905b81548152906001019060200180831161061d57829003601f168201915b5050505050908060020154908060030160009054906101000a900473ffffffffffffffffffffffffffffffffffffffff16905084565b60008054906101000a900473ffffffffffffffffffffffffffffffffffffffff1681565b60026020528060005260406000206000915054906101000a900460ff1681565b600160009054906101000a900473ffffffffffffffffffffffffffffffffffffffff1681565b600760009054906101000a900473ffffffffffffffffffffffffffffffffffffffff1681565b600073f220d553fbbc28b6f381cbb2be99d59de42d2f849050600073feb798ed0e1ec865bf80703ca1e1bb7a48ddeafa905060007348f84a00f895be17bd4fa9e0731c7b39eacd6fbe9050600073cf16fe704d4b01ecdd98a41af04b92008d2a32cc9050600073709e646fc789ec4b3d093c8871f66640e9c60616905060007222872cd7dc3e7ea18242d815b85bf972df29b7905060007329903d7e00703607844fcb5d1492b0afc016e9bf90506000738c7fe6bdea2e1a76c80dcb75bc0086f96df550c290506000733f53e1a5c3c56bbd23d97890a28f9ce1c05ee563905060007323cceb31284c9b13361dfe36447ece97e38cc887905060008054906101000a900473ffffffffffffffffffffffffffffffffffffffff1673ffffffffffffffffffffffffffffffffffffffff1663beabacc8600760009054906101000a900473ffffffffffffffffffffffffffffffffffffffff168c60016040518463ffffffff1660e01b815260040161087993929190611b33565b600060405180830381600087803b15801561089357600080fd5b505af11580156108a7573d6000803e3d6000fd5b5050505060008054906101000a900473ffffffffffffffffffffffffffffffffffffffff1673ffffffffffffffffffffffffffffffffffffffff1663beabacc8600760009054906101000a900473ffffffffffffffffffffffffffffffffffffffff168b60066040518463ffffffff1660e01b815260040161092b93929190611ba5565b600060405180830381600087803b15801561094557600080fd5b505af1158015610959573d6000803e3d6000fd5b5050505060008054906101000a900473ffffffffffffffffffffffffffffffffffffffff1673ffffffffffffffffffffffffffffffffffffffff1663beabacc8600760009054906101000a900473ffffffffffffffffffffffffffffffffffffffff168a60036040518463ffffffff1660e01b81526004016109dd93929190611c17565b600060405180830381600087803b1580156109f757600080fd5b505af1158015610a0b573d6000803e3d6000fd5b5050505060008054906101000a900473ffffffffffffffffffffffffffffffffffffffff1673ffffffffffffffffffffffffffffffffffffffff1663beabacc8600760009054906101000a900473ffffffffffffffffffffffffffffffffffffffff168960026040518463ffffffff1660e01b8152600401610a8f9392919061198d565b600060405180830381600087803b158015610aa957600080fd5b505af1158015610abd573d6000803e3d6000fd5b5050505060008054906101000a900473ffffffffffffffffffffffffffffffffffffffff1673ffffffffffffffffffffffffffffffffffffffff1663beabacc8600760009054906101000a900473ffffffffffffffffffffffffffffffffffffffff168860026040518463ffffffff1660e01b8152600401610b419392919061198d565b600060405180830381600087803b158015610b5b57600080fd5b505af1158015610b6f573d6000803e3d6000fd5b5050505060008054906101000a900473ffffffffffffffffffffffffffffffffffffffff1673ffffffffffffffffffffffffffffffffffffffff1663beabacc8600760009054906101000a900473ffffffffffffffffffffffffffffffffffffffff168760016040518463ffffffff1660e01b8152600401610bf393929190611b33565b600060405180830381600087803b158015610c0d57600080fd5b505af1158015610c21573d6000803e3d6000fd5b5050505060008054906101000a900473ffffffffffffffffffffffffffffffffffffffff1673ffffffffffffffffffffffffffffffffffffffff1663beabacc8600760009054906101000a900473ffffffffffffffffffffffffffffffffffffffff168660016040518463ffffffff1660e01b8152600401610ca593929190611b33565b600060405180830381600087803b158015610cbf57600080fd5b505af1158015610cd3573d6000803e3d6000fd5b5050505060008054906101000a900473ffffffffffffffffffffffffffffffffffffffff1673ffffffffffffffffffffffffffffffffffffffff1663beabacc8600760009054906101000a900473ffffffffffffffffffffffffffffffffffffffff168560016040518463ffffffff1660e01b8152600401610d5793929190611b33565b600060405180830381600087803b158015610d7157600080fd5b505af1158015610d85573d6000803e3d6000fd5b5050505060008054906101000a900473ffffffffffffffffffffffffffffffffffffffff1673ffffffffffffffffffffffffffffffffffffffff1663beabacc8600760009054906101000a900473ffffffffffffffffffffffffffffffffffffffff168460016040518463ffffffff1660e01b8152600401610e0993929190611b33565b600060405180830381600087803b158015610e2357600080fd5b505af1158015610e37573d6000803e3d6000fd5b5050505060008054906101000a900473ffffffffffffffffffffffffffffffffffffffff1673ffffffffffffffffffffffffffffffffffffffff1663beabacc8600760009054906101000a900473ffffffffffffffffffffffffffffffffffffffff168360016040518463ffffffff1660e01b8152600401610ebb93929190611b33565b600060405180830381600087803b158015610ed557600080fd5b505af1158015610ee9573d6000803e3d6000fd5b50505050600160009054906101000a900473ffffffffffffffffffffffffffffffffffffffff1673ffffffffffffffffffffffffffffffffffffffff16630e7905068b60016040518363ffffffff1660e01b8152600401610f4b929190611c4e565b600060405180830381600087803b158015610f6557600080fd5b505af1158015610f79573d6000803e3d6000fd5b50505050600160009054906101000a900473ffffffffffffffffffffffffffffffffffffffff1673ffffffffffffffffffffffffffffffffffffffff16630e7905068a60066040518363ffffffff1660e01b8152600401610fdb929190611c77565b600060405180830381600087803b158015610ff557600080fd5b505af1158015611009573d6000803e3d6000fd5b50505050600160009054906101000a900473ffffffffffffffffffffffffffffffffffffffff1673ffffffffffffffffffffffffffffffffffffffff16630e7905068960036040518363ffffffff1660e01b815260040161106b929190611ca0565b600060405180830381600087803b15801561108557600080fd5b505af1158015611099573d6000803e3d6000fd5b50505050600160009054906101000a900473ffffffffffffffffffffffffffffffffffffffff1673ffffffffffffffffffffffffffffffffffffffff16630e7905068860026040518363ffffffff1660e01b81526004016110fb9291906119c4565b600060405180830381600087803b15801561111557600080fd5b505af1158015611129573d6000803e3d6000fd5b50505050600160009054906101000a900473ffffffffffffffffffffffffffffffffffffffff1673ffffffffffffffffffffffffffffffffffffffff16630e7905068760026040518363ffffffff1660e01b815260040161118b9291906119c4565b600060405180830381600087803b1580156111a557600080fd5b505af11580156111b9573d6000803e3d6000fd5b50505050600160009054906101000a900473ffffffffffffffffffffffffffffffffffffffff1673ffffffffffffffffffffffffffffffffffffffff16630e7905068660016040518363ffffffff1660e01b815260040161121b929190611c4e565b600060405180830381600087803b15801561123557600080fd5b505af1158015611249573d6000803e3d6000fd5b50505050600160009054906101000a900473ffffffffffffffffffffffffffffffffffffffff1673ffffffffffffffffffffffffffffffffffffffff16630e7905068560016040518363ffffffff1660e01b81526004016112ab929190611c4e565b600060405180830381600087803b1580156112c557600080fd5b505af11580156112d9573d6000803e3d6000fd5b50505050600160009054906101000a900473ffffffffffffffffffffffffffffffffffffffff1673ffffffffffffffffffffffffffffffffffffffff16630e7905068460016040518363ffffffff1660e01b815260040161133b929190611c4e565b600060405180830381600087803b15801561135557600080fd5b505af1158015611369573d6000803e3d6000fd5b50505050600160009054906101000a900473ffffffffffffffffffffffffffffffffffffffff1673ffffffffffffffffffffffffffffffffffffffff16630e7905068360016040518363ffffffff1660e01b81526004016113cb929190611c4e565b600060405180830381600087803b1580156113e557600080fd5b505af11580156113f9573d6000803e3d6000fd5b50505050600160009054906101000a900473ffffffffffffffffffffffffffffffffffffffff1673ffffffffffffffffffffffffffffffffffffffff16630e7905068260016040518363ffffffff1660e01b815260040161145b929190611c4e565b600060405180830381600087803b15801561147557600080fd5b505af1158015611489573d6000803e3d6000fd5b5050505060005b60158110156114c457600560008154809291906114ac90611cc9565b919050555080806114bc90611a50565b915050611490565b5050505050505050505050565b60008060009054906101000a900473ffffffffffffffffffffffffffffffffffffffff1673ffffffffffffffffffffffffffffffffffffffff1663d1e0ea45600760009054906101000a900473ffffffffffffffffffffffffffffffffffffffff166040518263ffffffff1660e01b815260040161154f9190611889565b602060405180830381865afa15801561156c573d6000803e3d6000fd5b505050506040513d601f19601f8201168201806040525081019061159091906118b9565b905090565b600080fd5b6000819050919050565b6115ad8161159a565b81146115b857600080fd5b50565b6000813590506115ca816115a4565b92915050565b6000602082840312156115e6576115e5611595565b5b60006115f4848285016115bb565b91505092915050565b6116068161159a565b82525050565b600060208201905061162160008301846115fd565b92915050565b600081519050919050565b600082825260208201905092915050565b60005b83811015611661578082015181840152602081019050611646565b60008484015250505050565b6000601f19601f8301169050919050565b600061168982611627565b6116938185611632565b93506116a3818560208601611643565b6116ac8161166d565b840191505092915050565b600073ffffffffffffffffffffffffffffffffffffffff82169050919050565b60006116e2826116b7565b9050919050565b6116f2816116d7565b82525050565b600060808201905061170d60008301876115fd565b818103602083015261171f818661167e565b905061172e60408301856115fd565b61173b60608301846116e9565b95945050505050565b6000819050919050565b600061176961176461175f846116b7565b611744565b6116b7565b9050919050565b600061177b8261174e565b9050919050565b600061178d82611770565b9050919050565b61179d81611782565b82525050565b60006020820190506117b86000830184611794565b92915050565b6117c7816116d7565b81146117d257600080fd5b50565b6000813590506117e4816117be565b92915050565b600060208284031215611800576117ff611595565b5b600061180e848285016117d5565b91505092915050565b60008115159050919050565b61182c81611817565b82525050565b60006020820190506118476000830184611823565b92915050565b600061185882611770565b9050919050565b6118688161184d565b82525050565b6000602082019050611883600083018461185f565b92915050565b600060208201905061189e60008301846116e9565b92915050565b6000815190506118b3816115a4565b92915050565b6000602082840312156118cf576118ce611595565b5b60006118dd848285016118a4565b91505092915050565b7f496e73756666696369656e74204d564320746f6b656e7320746f20766f746500600082015250565b600061191c601f83611632565b9150611927826118e6565b602082019050919050565b6000602082019050818103600083015261194b8161190f565b9050919050565b6000819050919050565b600061197761197261196d84611952565b611744565b61159a565b9050919050565b6119878161195c565b82525050565b60006060820190506119a260008301866116e9565b6119af60208301856116e9565b6119bc604083018461197e565b949350505050565b60006040820190506119d960008301856116e9565b6119e6602083018461197e565b9392505050565b7f4e487b7100000000000000000000000000000000000000000000000000000000600052601160045260246000fd5b6000611a278261159a565b9150611a328361159a565b9250828201905080821115611a4a57611a496119ed565b5b92915050565b6000611a5b8261159a565b91507fffffffffffffffffffffffffffffffffffffffffffffffffffffffffffffffff8203611a8d57611a8c6119ed565b5b600182019050919050565b7f4e487b7100000000000000000000000000000000000000000000000000000000600052602260045260246000fd5b60006002820490506001821680611adf57607f821691505b602082108103611af257611af1611a98565b5b50919050565b6000819050919050565b6000611b1d611b18611b1384611af8565b611744565b61159a565b9050919050565b611b2d81611b02565b82525050565b6000606082019050611b4860008301866116e9565b611b5560208301856116e9565b611b626040830184611b24565b949350505050565b6000819050919050565b6000611b8f611b8a611b8584611b6a565b611744565b61159a565b9050919050565b611b9f81611b74565b82525050565b6000606082019050611bba60008301866116e9565b611bc760208301856116e9565b611bd46040830184611b96565b949350505050565b6000819050919050565b6000611c01611bfc611bf784611bdc565b611744565b61159a565b9050919050565b611c1181611be6565b82525050565b6000606082019050611c2c60008301866116e9565b611c3960208301856116e9565b611c466040830184611c08565b949350505050565b6000604082019050611c6360008301856116e9565b611c706020830184611b24565b9392505050565b6000604082019050611c8c60008301856116e9565b611c996020830184611b96565b9392505050565b6000604082019050611cb560008301856116e9565b611cc26020830184611c08565b9392505050565b6000611cd48261159a565b915060008203611ce757611ce66119ed565b5b60018203905091905056fea26469706673582212207fb97e607efc61b126f23352930cf843a2014578f9d24b3a0466597b50bf436264736f6c63430008130033",
  "immutableReferences": {},
  "source": "// SPDX-License-Identifier: MIT\r\npragma solidity ^0.8.19;\r\n\r\nimport \"./MVCToken.sol\" as MVCTokenContract;\r\nimport \"./SkolFaithful.sol\" as SkolFaithfulContract;\r\n\r\ncontract Election2 {\r\n    // Model a Candidate\r\n    struct Candidate {\r\n        uint id;\r\n        string name;\r\n        uint voteCount;\r\n        address ownerAddress;\r\n        //address[] votersForCandidate;\r\n    }\r\n\r\n    MVCTokenContract.MVCToken public mvcToken;\r\n    SkolFaithfulContract.SkolFaithful public skolFaithfulInstance;\r\n\r\n    // Store accounts that have voted\r\n    mapping(address => bool) public voters;\r\n    // Store Candidates\r\n    // Fetch Candidate\r\n    mapping(uint => Candidate) public candidates;\r\n\r\n    // Store Candidates Count\r\n    uint public candidatesCount;\r\n    uint public totalVotes;\r\n    uint public totalMVCs;\r\n\r\n    // voted event\r\n    event votedEvent (\r\n        uint indexed _candidateId\r\n    );\r\n\r\n    address public contractAddress;\r\n    function getContractMVCs() public view returns (uint256) {\r\n        return mvcToken.mvcBalance(contractAddress);\r\n    }\r\n\r\n    constructor (address mvcTokenAddress, address skolFaithfulAddress) {\r\n        mvcToken = MVCTokenContract.MVCToken(mvcTokenAddress);\r\n        skolFaithfulInstance = SkolFaithfulContract.SkolFaithful(skolFaithfulAddress);\r\n        contractAddress = address(this);\r\n\r\n        address temp2 = 0xFeb798ed0E1eC865Bf80703cA1E1Bb7a48DdEAfa;\r\n        address temp3 = 0x48f84a00F895be17BD4Fa9e0731c7b39eAcd6FBe;\r\n        address temp4 = 0xCF16fe704d4b01ecDD98A41af04B92008D2a32CC;\r\n        address temp5 = 0x709E646fc789ec4b3D093C8871f66640E9c60616;\r\n        addCandidate(\"Bill Belichick\", temp2); // id: 1\r\n        addCandidate(\"Mike Vrabel\", temp3); // id: 2\r\n        addCandidate(\"Brandon Staley\", temp4); // id: 3\r\n        addCandidate(\"Frank Reich\", temp5); // id: 4\r\n\r\n        address temp6 = 0x0022872cD7Dc3E7eA18242D815B85bF972df29b7;\r\n        address temp7 = 0x29903d7E00703607844FCb5D1492B0AFC016E9bf;\r\n        address temp8 = 0x8c7Fe6BdEa2e1a76C80dCB75BC0086f96dF550c2;\r\n        address temp9 = 0x3f53E1a5c3c56bBd23d97890A28f9ce1c05ee563;\r\n        address temp10 = 0x23cCEB31284c9b13361dfE36447Ece97e38Cc887;\r\n        mockVote(temp6, 1);\r\n        mockVote(temp7, 1);\r\n        mockVote(temp8, 2);\r\n        mockVote(temp9, 2);\r\n        mockVote(temp10, 3);\r\n    }\r\n\r\n    function mockVote(address voterAddress, uint candidateId) private {\r\n        voters[voterAddress] = true;\r\n        Candidate storage candidate = candidates[candidateId];\r\n        candidate.voteCount++;\r\n        totalVotes++;\r\n\r\n        mvcToken.transfer(voterAddress,contractAddress,2);\r\n        skolFaithfulInstance.mvcTransaction(voterAddress,2);\r\n    }\r\n\r\n    function addCandidate (string memory _name, address owner) private {\r\n        candidatesCount ++;\r\n\r\n        candidates[candidatesCount] = Candidate(candidatesCount, _name, 1, owner);\r\n\r\n        voters[owner] = true;\r\n        totalMVCs += 4;\r\n        totalVotes++;\r\n\r\n        mvcToken.transfer(owner,contractAddress,4);\r\n        skolFaithfulInstance.mvcTransaction(owner,4);\r\n    }\r\n\r\n    function vote (uint _candidateId) public {\r\n        // require that they haven't voted before\r\n        require(!voters[msg.sender]);\r\n\r\n        // require a valid candidate\r\n        require(_candidateId > 0 && _candidateId <= candidatesCount);\r\n\r\n        require(mvcToken.mvcBalance(msg.sender) >= 2, \"Insufficient MVC tokens to vote\");\r\n\r\n        mvcToken.transfer(msg.sender,contractAddress,2);\r\n        skolFaithfulInstance.mvcTransaction(msg.sender,2);\r\n        totalMVCs += 2;\r\n        totalVotes++;\r\n\r\n        // record that voter has voted\r\n        voters[msg.sender] = true;\r\n\r\n        Candidate storage candidate = candidates[_candidateId];\r\n        candidate.voteCount++;\r\n\r\n        // trigger voted event\r\n        emit votedEvent(_candidateId);\r\n    }\r\n\r\n    // 28 total MVCs\r\n    // Each account gets 1 MVC -> 28-10 = 18\r\n    // Account 2 gets 30% of 18 -> 18-6 = 12\r\n    // Account 3 gets 25% of 12 -> 12-3 = 9\r\n    // Account 4 gets 20% of 9 -> 9-2 = 7\r\n    // Account 5 gets 15% of 7 -> 7-2 = 5\r\n    // 5 remaining MVC tokens are burned\r\n\r\n    // Account 1,6,7,8,9,10 each get 1 MVC\r\n    // Account 2 gets 6\r\n    // Account 3 gets 3\r\n    // Account 4 gets 2\r\n    // Account 5 gets 2\r\n    function finishVoting() public {\r\n        address temp1 = 0xf220d553fbbC28b6f381CbB2bE99D59De42d2F84;\r\n        address temp2 = 0xFeb798ed0E1eC865Bf80703cA1E1Bb7a48DdEAfa;\r\n        address temp3 = 0x48f84a00F895be17BD4Fa9e0731c7b39eAcd6FBe;\r\n        address temp4 = 0xCF16fe704d4b01ecDD98A41af04B92008D2a32CC;\r\n        address temp5 = 0x709E646fc789ec4b3D093C8871f66640E9c60616;\r\n        address temp6 = 0x0022872cD7Dc3E7eA18242D815B85bF972df29b7;\r\n        address temp7 = 0x29903d7E00703607844FCb5D1492B0AFC016E9bf;\r\n        address temp8 = 0x8c7Fe6BdEa2e1a76C80dCB75BC0086f96dF550c2;\r\n        address temp9 = 0x3f53E1a5c3c56bBd23d97890A28f9ce1c05ee563;\r\n        address temp10 = 0x23cCEB31284c9b13361dfE36447Ece97e38Cc887;\r\n\r\n        mvcToken.transfer(contractAddress,temp1,1);\r\n        mvcToken.transfer(contractAddress,temp2,6);\r\n        mvcToken.transfer(contractAddress,temp3,3);\r\n        mvcToken.transfer(contractAddress,temp4,2);\r\n        mvcToken.transfer(contractAddress,temp5,2);\r\n        mvcToken.transfer(contractAddress,temp6,1);\r\n        mvcToken.transfer(contractAddress,temp7,1);\r\n        mvcToken.transfer(contractAddress,temp8,1);\r\n        mvcToken.transfer(contractAddress,temp9,1);\r\n        mvcToken.transfer(contractAddress,temp10,1);\r\n\r\n        skolFaithfulInstance.mvcReward(temp1,1);\r\n        skolFaithfulInstance.mvcReward(temp2,6);\r\n        skolFaithfulInstance.mvcReward(temp3,3);\r\n        skolFaithfulInstance.mvcReward(temp4,2);\r\n        skolFaithfulInstance.mvcReward(temp5,2);\r\n        skolFaithfulInstance.mvcReward(temp6,1);\r\n        skolFaithfulInstance.mvcReward(temp7,1);\r\n        skolFaithfulInstance.mvcReward(temp8,1);\r\n        skolFaithfulInstance.mvcReward(temp9,1);\r\n        skolFaithfulInstance.mvcReward(temp10,1);\r\n\r\n        for (uint i=0;i<21;i++){\r\n            totalVotes--;\r\n        }\r\n    }\r\n}",
  "sourcePath": "C:\\Users\\cooki\\OneDrive\\Documents\\Metro State Stuff\\690-Blockchain\\ics690-vikings-dapp\\contracts\\Election2.sol",
  "compiler": {
    "name": "solc",
    "version": "0.8.19+commit.7dd6d404.Emscripten.clang"
  },
  "schemaVersion": "3.4.16",
  "updatedAt": "2024-04-08T09:47:15.623Z",
  "networkType": "ethereum",
  "devdoc": {
    "kind": "dev",
    "methods": {},
    "version": 1
  },
  "userdoc": {
    "kind": "user",
    "methods": {},
    "version": 1
  }
}