{
  "contractName": "Election2",
  "abi": [
    {
      "inputs": [
        {
          "internalType": "address",
          "name": "mvcTokenAddress",
          "type": "address"
        },
        {
          "internalType": "address",
          "name": "skolFaithfulAddress",
          "type": "address"
        }
      ],
      "stateMutability": "nonpayable",
      "type": "constructor"
    },
    {
      "anonymous": false,
      "inputs": [
        {
          "indexed": true,
          "internalType": "uint256",
          "name": "_candidateId",
          "type": "uint256"
        }
      ],
      "name": "votedEvent",
      "type": "event"
    },
    {
      "inputs": [
        {
          "internalType": "uint256",
          "name": "",
          "type": "uint256"
        }
      ],
      "name": "candidates",
      "outputs": [
        {
          "internalType": "uint256",
          "name": "id",
          "type": "uint256"
        },
        {
          "internalType": "string",
          "name": "name",
          "type": "string"
        },
        {
          "internalType": "uint256",
          "name": "voteCount",
          "type": "uint256"
        },
        {
          "internalType": "address",
          "name": "ownerAddress",
          "type": "address"
        }
      ],
      "stateMutability": "view",
      "type": "function",
      "constant": true
    },
    {
      "inputs": [],
      "name": "candidatesCount",
      "outputs": [
        {
          "internalType": "uint256",
          "name": "",
          "type": "uint256"
        }
      ],
      "stateMutability": "view",
      "type": "function",
      "constant": true
    },
    {
      "inputs": [],
      "name": "contractAddress",
      "outputs": [
        {
          "internalType": "address",
          "name": "",
          "type": "address"
        }
      ],
      "stateMutability": "view",
      "type": "function",
      "constant": true
    },
    {
      "inputs": [],
      "name": "mvcToken",
      "outputs": [
        {
          "internalType": "contract MVCToken",
          "name": "",
          "type": "address"
        }
      ],
      "stateMutability": "view",
      "type": "function",
      "constant": true
    },
    {
      "inputs": [],
      "name": "skolFaithfulInstance",
      "outputs": [
        {
          "internalType": "contract SkolFaithful",
          "name": "",
          "type": "address"
        }
      ],
      "stateMutability": "view",
      "type": "function",
      "constant": true
    },
    {
      "inputs": [],
      "name": "totalVotes",
      "outputs": [
        {
          "internalType": "uint256",
          "name": "",
          "type": "uint256"
        }
      ],
      "stateMutability": "view",
      "type": "function",
      "constant": true
    },
    {
      "inputs": [
        {
          "internalType": "address",
          "name": "",
          "type": "address"
        }
      ],
      "name": "voters",
      "outputs": [
        {
          "internalType": "bool",
          "name": "",
          "type": "bool"
        }
      ],
      "stateMutability": "view",
      "type": "function",
      "constant": true
    },
    {
      "inputs": [
        {
          "internalType": "uint256",
          "name": "_candidateId",
          "type": "uint256"
        }
      ],
      "name": "vote",
      "outputs": [],
      "stateMutability": "nonpayable",
      "type": "function"
    }
  ],
  "bytecode": "0x60806040523480156200001157600080fd5b5060405162001685380380620016858339818101604052810190620000379190620005ea565b816000806101000a81548173ffffffffffffffffffffffffffffffffffffffff021916908373ffffffffffffffffffffffffffffffffffffffff16021790555080600160006101000a81548173ffffffffffffffffffffffffffffffffffffffff021916908373ffffffffffffffffffffffffffffffffffffffff160217905550600073feb798ed0e1ec865bf80703ca1e1bb7a48ddeafa905060007348f84a00f895be17bd4fa9e0731c7b39eacd6fbe9050600073cf16fe704d4b01ecdd98a41af04b92008d2a32cc9050600073709e646fc789ec4b3d093c8871f66640e9c606169050620001636040518060400160405280600e81526020017f42696c6c2042656c69636869636b000000000000000000000000000000000000815250856200036560201b60201c565b620001aa6040518060400160405280600b81526020017f4d696b652056726162656c000000000000000000000000000000000000000000815250846200036560201b60201c565b620001f16040518060400160405280600e81526020017f4272616e646f6e205374616c6579000000000000000000000000000000000000815250836200036560201b60201c565b620002386040518060400160405280600b81526020017f4672616e6b205265696368000000000000000000000000000000000000000000815250826200036560201b60201c565b60007222872cd7dc3e7ea18242d815b85bf972df29b7905060007329903d7e00703607844fcb5d1492b0afc016e9bf90506000738c7fe6bdea2e1a76c80dcb75bc0086f96df550c290506000733f53e1a5c3c56bbd23d97890a28f9ce1c05ee563905060007323cceb31284c9b13361dfe36447ece97e38cc8879050620002c7856001620004d660201b60201c565b620002da846001620004d660201b60201c565b620002ed836002620004d660201b60201c565b62000300826002620004d660201b60201c565b62000313816003620004d660201b60201c565b30600760006101000a81548173ffffffffffffffffffffffffffffffffffffffff021916908373ffffffffffffffffffffffffffffffffffffffff160217905550505050505050505050505062000a49565b600460008154809291906200037a906200066a565b919050555060405180608001604052806004548152602001838152602001600181526020018273ffffffffffffffffffffffffffffffffffffffff16815250600360006004548152602001908152602001600020600082015181600001556020820151816001019081620003ef919062000927565b506040820151816002015560608201518160030160006101000a81548173ffffffffffffffffffffffffffffffffffffffff021916908373ffffffffffffffffffffffffffffffffffffffff1602179055509050506001600260008373ffffffffffffffffffffffffffffffffffffffff1673ffffffffffffffffffffffffffffffffffffffff16815260200190815260200160002060006101000a81548160ff021916908315150217905550600460066000828254620004b1919062000a0e565b9250508190555060056000815480929190620004cd906200066a565b91905055505050565b6001600260008473ffffffffffffffffffffffffffffffffffffffff1673ffffffffffffffffffffffffffffffffffffffff16815260200190815260200160002060006101000a81548160ff02191690831515021790555060006003600083815260200190815260200160002090508060020160008154809291906200055c906200066a565b91905055506005600081548092919062000576906200066a565b9190505550505050565b600080fd5b600073ffffffffffffffffffffffffffffffffffffffff82169050919050565b6000620005b28262000585565b9050919050565b620005c481620005a5565b8114620005d057600080fd5b50565b600081519050620005e481620005b9565b92915050565b6000806040838503121562000604576200060362000580565b5b60006200061485828601620005d3565b92505060206200062785828601620005d3565b9150509250929050565b7f4e487b7100000000000000000000000000000000000000000000000000000000600052601160045260246000fd5b6000819050919050565b6000620006778262000660565b91507fffffffffffffffffffffffffffffffffffffffffffffffffffffffffffffffff8203620006ac57620006ab62000631565b5b600182019050919050565b600081519050919050565b7f4e487b7100000000000000000000000000000000000000000000000000000000600052604160045260246000fd5b7f4e487b7100000000000000000000000000000000000000000000000000000000600052602260045260246000fd5b600060028204905060018216806200073957607f821691505b6020821081036200074f576200074e620006f1565b5b50919050565b60008190508160005260206000209050919050565b60006020601f8301049050919050565b600082821b905092915050565b600060088302620007b97fffffffffffffffffffffffffffffffffffffffffffffffffffffffffffffffff826200077a565b620007c586836200077a565b95508019841693508086168417925050509392505050565b6000819050919050565b60006200080862000802620007fc8462000660565b620007dd565b62000660565b9050919050565b6000819050919050565b6200082483620007e7565b6200083c62000833826200080f565b84845462000787565b825550505050565b600090565b6200085362000844565b6200086081848462000819565b505050565b5b8181101562000888576200087c60008262000849565b60018101905062000866565b5050565b601f821115620008d757620008a18162000755565b620008ac846200076a565b81016020851015620008bc578190505b620008d4620008cb856200076a565b83018262000865565b50505b505050565b600082821c905092915050565b6000620008fc60001984600802620008dc565b1980831691505092915050565b6000620009178383620008e9565b9150826002028217905092915050565b6200093282620006b7565b67ffffffffffffffff8111156200094e576200094d620006c2565b5b6200095a825462000720565b620009678282856200088c565b600060209050601f8311600181146200099f57600084156200098a578287015190505b62000996858262000909565b86555062000a06565b601f198416620009af8662000755565b60005b82811015620009d957848901518255600182019150602085019450602081019050620009b2565b86831015620009f95784890151620009f5601f891682620008e9565b8355505b6001600288020188555050505b505050505050565b600062000a1b8262000660565b915062000a288362000660565b925082820190508082111562000a435762000a4262000631565b5b92915050565b610c2c8062000a596000396000f3fe608060405234801561001057600080fd5b50600436106100885760003560e01c8063600e98501161005b578063600e985014610118578063a3ec138d14610136578063d65aadc614610166578063f6b4dfb41461018457610088565b80630121b93f1461008d5780630d15fd77146100a95780632d35a8a2146100c75780633477ee2e146100e5575b600080fd5b6100a760048036038101906100a291906106ce565b6101a2565b005b6100b161051f565b6040516100be919061070a565b60405180910390f35b6100cf610525565b6040516100dc919061070a565b60405180910390f35b6100ff60048036038101906100fa91906106ce565b61052b565b60405161010f94939291906107f6565b60405180910390f35b610120610603565b60405161012d91906108a1565b60405180910390f35b610150600480360381019061014b91906108e8565b610627565b60405161015d9190610930565b60405180910390f35b61016e610647565b60405161017b919061096c565b60405180910390f35b61018c61066d565b6040516101999190610987565b60405180910390f35b600260003373ffffffffffffffffffffffffffffffffffffffff1673ffffffffffffffffffffffffffffffffffffffff16815260200190815260200160002060009054906101000a900460ff16156101f957600080fd5b60008111801561020b57506004548111155b61021457600080fd5b600260008054906101000a900473ffffffffffffffffffffffffffffffffffffffff1673ffffffffffffffffffffffffffffffffffffffff1663d1e0ea45336040518263ffffffff1660e01b815260040161026f9190610987565b602060405180830381865afa15801561028c573d6000803e3d6000fd5b505050506040513d601f19601f820116820180604052508101906102b091906109b7565b10156102f1576040517f08c379a00000000000000000000000000000000000000000000000000000000081526004016102e890610a30565b60405180910390fd5b60008054906101000a900473ffffffffffffffffffffffffffffffffffffffff1673ffffffffffffffffffffffffffffffffffffffff1663beabacc833600760009054906101000a900473ffffffffffffffffffffffffffffffffffffffff1660026040518463ffffffff1660e01b815260040161037193929190610a8b565b600060405180830381600087803b15801561038b57600080fd5b505af115801561039f573d6000803e3d6000fd5b50505050600160009054906101000a900473ffffffffffffffffffffffffffffffffffffffff1673ffffffffffffffffffffffffffffffffffffffff166359eda6b83360026040518363ffffffff1660e01b8152600401610401929190610ac2565b600060405180830381600087803b15801561041b57600080fd5b505af115801561042f573d6000803e3d6000fd5b505050506002600660008282546104469190610b1a565b925050819055506005600081548092919061046090610b4e565b91905055506001600260003373ffffffffffffffffffffffffffffffffffffffff1673ffffffffffffffffffffffffffffffffffffffff16815260200190815260200160002060006101000a81548160ff02191690831515021790555060006003600083815260200190815260200160002090508060020160008154809291906104e990610b4e565b9190505550817ffff3c900d938d21d0990d786e819f29b8d05c1ef587b462b939609625b684b1660405160405180910390a25050565b60055481565b60045481565b600360205280600052604060002060009150905080600001549080600101805461055490610bc5565b80601f016020809104026020016040519081016040528092919081815260200182805461058090610bc5565b80156105cd5780601f106105a2576101008083540402835291602001916105cd565b820191906000526020600020905b8154815290600101906020018083116105b057829003601f168201915b5050505050908060020154908060030160009054906101000a900473ffffffffffffffffffffffffffffffffffffffff16905084565b60008054906101000a900473ffffffffffffffffffffffffffffffffffffffff1681565b60026020528060005260406000206000915054906101000a900460ff1681565b600160009054906101000a900473ffffffffffffffffffffffffffffffffffffffff1681565b600760009054906101000a900473ffffffffffffffffffffffffffffffffffffffff1681565b600080fd5b6000819050919050565b6106ab81610698565b81146106b657600080fd5b50565b6000813590506106c8816106a2565b92915050565b6000602082840312156106e4576106e3610693565b5b60006106f2848285016106b9565b91505092915050565b61070481610698565b82525050565b600060208201905061071f60008301846106fb565b92915050565b600081519050919050565b600082825260208201905092915050565b60005b8381101561075f578082015181840152602081019050610744565b60008484015250505050565b6000601f19601f8301169050919050565b600061078782610725565b6107918185610730565b93506107a1818560208601610741565b6107aa8161076b565b840191505092915050565b600073ffffffffffffffffffffffffffffffffffffffff82169050919050565b60006107e0826107b5565b9050919050565b6107f0816107d5565b82525050565b600060808201905061080b60008301876106fb565b818103602083015261081d818661077c565b905061082c60408301856106fb565b61083960608301846107e7565b95945050505050565b6000819050919050565b600061086761086261085d846107b5565b610842565b6107b5565b9050919050565b60006108798261084c565b9050919050565b600061088b8261086e565b9050919050565b61089b81610880565b82525050565b60006020820190506108b66000830184610892565b92915050565b6108c5816107d5565b81146108d057600080fd5b50565b6000813590506108e2816108bc565b92915050565b6000602082840312156108fe576108fd610693565b5b600061090c848285016108d3565b91505092915050565b60008115159050919050565b61092a81610915565b82525050565b60006020820190506109456000830184610921565b92915050565b60006109568261086e565b9050919050565b6109668161094b565b82525050565b6000602082019050610981600083018461095d565b92915050565b600060208201905061099c60008301846107e7565b92915050565b6000815190506109b1816106a2565b92915050565b6000602082840312156109cd576109cc610693565b5b60006109db848285016109a2565b91505092915050565b7f496e73756666696369656e74204d564320746f6b656e7320746f20766f746500600082015250565b6000610a1a601f83610730565b9150610a25826109e4565b602082019050919050565b60006020820190508181036000830152610a4981610a0d565b9050919050565b6000819050919050565b6000610a75610a70610a6b84610a50565b610842565b610698565b9050919050565b610a8581610a5a565b82525050565b6000606082019050610aa060008301866107e7565b610aad60208301856107e7565b610aba6040830184610a7c565b949350505050565b6000604082019050610ad760008301856107e7565b610ae46020830184610a7c565b9392505050565b7f4e487b7100000000000000000000000000000000000000000000000000000000600052601160045260246000fd5b6000610b2582610698565b9150610b3083610698565b9250828201905080821115610b4857610b47610aeb565b5b92915050565b6000610b5982610698565b91507fffffffffffffffffffffffffffffffffffffffffffffffffffffffffffffffff8203610b8b57610b8a610aeb565b5b600182019050919050565b7f4e487b7100000000000000000000000000000000000000000000000000000000600052602260045260246000fd5b60006002820490506001821680610bdd57607f821691505b602082108103610bf057610bef610b96565b5b5091905056fea2646970667358221220c161e075eb943de249a8bc94e9dd8fc7bb0e060ae42a7fd03c48829f74d382b864736f6c63430008130033",
  "immutableReferences": {},
  "source": "// SPDX-License-Identifier: MIT\r\npragma solidity ^0.8.19;\r\n\r\nimport \"./MVCToken.sol\" as MVCTokenContract;\r\nimport \"./SkolFaithful.sol\" as SkolFaithfulContract;\r\n\r\ncontract Election2 {\r\n    // Model a Candidate\r\n    struct Candidate {\r\n        uint id;\r\n        string name;\r\n        uint voteCount;\r\n        address ownerAddress;\r\n        //address[] votersForCandidate;\r\n    }\r\n\r\n    MVCTokenContract.MVCToken public mvcToken;\r\n    SkolFaithfulContract.SkolFaithful public skolFaithfulInstance;\r\n\r\n    // Store accounts that have voted\r\n    mapping(address => bool) public voters;\r\n    // Store Candidates\r\n    // Fetch Candidate\r\n    mapping(uint => Candidate) public candidates;\r\n\r\n    // Store Candidates Count\r\n    uint public candidatesCount;\r\n    uint public totalVotes;\r\n    uint private totalMVCs;\r\n\r\n    // voted event\r\n    event votedEvent (\r\n        uint indexed _candidateId\r\n    );\r\n\r\n    address public contractAddress;\r\n\r\n    constructor (address mvcTokenAddress, address skolFaithfulAddress) {\r\n        mvcToken = MVCTokenContract.MVCToken(mvcTokenAddress);\r\n        skolFaithfulInstance = SkolFaithfulContract.SkolFaithful(skolFaithfulAddress);\r\n\r\n        address temp2 = 0xFeb798ed0E1eC865Bf80703cA1E1Bb7a48DdEAfa;\r\n        address temp3 = 0x48f84a00F895be17BD4Fa9e0731c7b39eAcd6FBe;\r\n        address temp4 = 0xCF16fe704d4b01ecDD98A41af04B92008D2a32CC;\r\n        address temp5 = 0x709E646fc789ec4b3D093C8871f66640E9c60616;\r\n        addCandidate(\"Bill Belichick\", temp2); // id: 1\r\n        addCandidate(\"Mike Vrabel\", temp3); // id: 2\r\n        addCandidate(\"Brandon Staley\", temp4); // id: 3\r\n        addCandidate(\"Frank Reich\", temp5); // id: 4\r\n\r\n        address temp6 = 0x0022872cD7Dc3E7eA18242D815B85bF972df29b7;\r\n        address temp7 = 0x29903d7E00703607844FCb5D1492B0AFC016E9bf;\r\n        address temp8 = 0x8c7Fe6BdEa2e1a76C80dCB75BC0086f96dF550c2;\r\n        address temp9 = 0x3f53E1a5c3c56bBd23d97890A28f9ce1c05ee563;\r\n        address temp10 = 0x23cCEB31284c9b13361dfE36447Ece97e38Cc887;\r\n        mockVote(temp6, 1);\r\n        mockVote(temp7, 1);\r\n        mockVote(temp8, 2);\r\n        mockVote(temp9, 2);\r\n        mockVote(temp10, 3);\r\n\r\n        contractAddress = address(this);\r\n    }\r\n\r\n    function mockVote(address voterAddress, uint candidateId) private {\r\n        voters[voterAddress] = true;\r\n        Candidate storage candidate = candidates[candidateId];\r\n        candidate.voteCount++;\r\n        totalVotes++;\r\n    }\r\n\r\n    function addCandidate (string memory _name, address owner) private {\r\n        candidatesCount ++;\r\n\r\n        candidates[candidatesCount] = Candidate(candidatesCount, _name, 1, owner);\r\n\r\n        voters[owner] = true;\r\n        totalMVCs += 4;\r\n        totalVotes++;\r\n    }\r\n\r\n    function vote (uint _candidateId) public {\r\n        // require that they haven't voted before\r\n        require(!voters[msg.sender]);\r\n\r\n        // require a valid candidate\r\n        require(_candidateId > 0 && _candidateId <= candidatesCount);\r\n\r\n        require(mvcToken.mvcBalance(msg.sender) >= 2, \"Insufficient MVC tokens to vote\");\r\n\r\n        mvcToken.transfer(msg.sender,contractAddress,2);\r\n        skolFaithfulInstance.mvcTransaction(msg.sender,2);\r\n        totalMVCs += 2;\r\n        totalVotes++;\r\n\r\n        // record that voter has voted\r\n        voters[msg.sender] = true;\r\n\r\n        Candidate storage candidate = candidates[_candidateId];\r\n        candidate.voteCount++;\r\n\r\n        // trigger voted event\r\n        emit votedEvent(_candidateId);\r\n    }\r\n\r\n    // 26 total MVCs\r\n    // function finishVoting() public {\r\n    //     address temp1 = 0xf220d553fbbC28b6f381CbB2bE99D59De42d2F84;\r\n    //     if (voters[temp1] == true){\r\n\r\n    //     }\r\n    // }\r\n}",
  "sourcePath": "C:\\Users\\cooki\\OneDrive\\Documents\\Metro State Stuff\\690-Blockchain\\ics690-vikings-dapp\\contracts\\Election2.sol",
  "compiler": {
    "name": "solc",
    "version": "0.8.19+commit.7dd6d404.Emscripten.clang"
  },
  "schemaVersion": "3.4.16",
  "updatedAt": "2024-04-08T07:17:25.721Z",
  "networkType": "ethereum",
  "devdoc": {
    "kind": "dev",
    "methods": {},
    "version": 1
  },
  "userdoc": {
    "kind": "user",
    "methods": {},
    "version": 1
  }
}