{
  "contractName": "Election2",
  "abi": [
    {
      "inputs": [
        {
          "internalType": "address",
          "name": "mvcTokenAddress",
          "type": "address"
        },
        {
          "internalType": "address",
          "name": "skolFaithfulAddress",
          "type": "address"
        }
      ],
      "stateMutability": "nonpayable",
      "type": "constructor"
    },
    {
      "anonymous": false,
      "inputs": [
        {
          "indexed": true,
          "internalType": "uint256",
          "name": "_candidateId",
          "type": "uint256"
        }
      ],
      "name": "votedEvent",
      "type": "event"
    },
    {
      "inputs": [
        {
          "internalType": "uint256",
          "name": "",
          "type": "uint256"
        }
      ],
      "name": "candidates",
      "outputs": [
        {
          "internalType": "uint256",
          "name": "id",
          "type": "uint256"
        },
        {
          "internalType": "string",
          "name": "name",
          "type": "string"
        },
        {
          "internalType": "uint256",
          "name": "voteCount",
          "type": "uint256"
        },
        {
          "internalType": "address",
          "name": "ownerAddress",
          "type": "address"
        }
      ],
      "stateMutability": "view",
      "type": "function",
      "constant": true
    },
    {
      "inputs": [],
      "name": "candidatesCount",
      "outputs": [
        {
          "internalType": "uint256",
          "name": "",
          "type": "uint256"
        }
      ],
      "stateMutability": "view",
      "type": "function",
      "constant": true
    },
    {
      "inputs": [],
      "name": "contractAddress",
      "outputs": [
        {
          "internalType": "address",
          "name": "",
          "type": "address"
        }
      ],
      "stateMutability": "view",
      "type": "function",
      "constant": true
    },
    {
      "inputs": [],
      "name": "mvcToken",
      "outputs": [
        {
          "internalType": "contract MVCToken",
          "name": "",
          "type": "address"
        }
      ],
      "stateMutability": "view",
      "type": "function",
      "constant": true
    },
    {
      "inputs": [],
      "name": "skolFaithfulInstance",
      "outputs": [
        {
          "internalType": "contract SkolFaithful",
          "name": "",
          "type": "address"
        }
      ],
      "stateMutability": "view",
      "type": "function",
      "constant": true
    },
    {
      "inputs": [],
      "name": "totalMVCs",
      "outputs": [
        {
          "internalType": "uint256",
          "name": "",
          "type": "uint256"
        }
      ],
      "stateMutability": "view",
      "type": "function",
      "constant": true
    },
    {
      "inputs": [],
      "name": "totalVotes",
      "outputs": [
        {
          "internalType": "uint256",
          "name": "",
          "type": "uint256"
        }
      ],
      "stateMutability": "view",
      "type": "function",
      "constant": true
    },
    {
      "inputs": [
        {
          "internalType": "address",
          "name": "",
          "type": "address"
        }
      ],
      "name": "voters",
      "outputs": [
        {
          "internalType": "bool",
          "name": "",
          "type": "bool"
        }
      ],
      "stateMutability": "view",
      "type": "function",
      "constant": true
    },
    {
      "inputs": [],
      "name": "getContractMVCs",
      "outputs": [
        {
          "internalType": "uint256",
          "name": "",
          "type": "uint256"
        }
      ],
      "stateMutability": "view",
      "type": "function",
      "constant": true
    },
    {
      "inputs": [
        {
          "internalType": "uint256",
          "name": "_candidateId",
          "type": "uint256"
        }
      ],
      "name": "vote",
      "outputs": [],
      "stateMutability": "nonpayable",
      "type": "function"
    },
    {
      "inputs": [],
      "name": "finishVoting",
      "outputs": [],
      "stateMutability": "nonpayable",
      "type": "function"
    }
  ],
  "bytecode": "0x608060405273feb798ed0e1ec865bf80703ca1e1bb7a48ddeafa600860006101000a81548173ffffffffffffffffffffffffffffffffffffffff021916908373ffffffffffffffffffffffffffffffffffffffff1602179055507348f84a00f895be17bd4fa9e0731c7b39eacd6fbe600960006101000a81548173ffffffffffffffffffffffffffffffffffffffff021916908373ffffffffffffffffffffffffffffffffffffffff16021790555073cf16fe704d4b01ecdd98a41af04b92008d2a32cc600a60006101000a81548173ffffffffffffffffffffffffffffffffffffffff021916908373ffffffffffffffffffffffffffffffffffffffff16021790555073709e646fc789ec4b3d093c8871f66640e9c60616600b60006101000a81548173ffffffffffffffffffffffffffffffffffffffff021916908373ffffffffffffffffffffffffffffffffffffffff1602179055507222872cd7dc3e7ea18242d815b85bf972df29b7600c60006101000a81548173ffffffffffffffffffffffffffffffffffffffff021916908373ffffffffffffffffffffffffffffffffffffffff1602179055507329903d7e00703607844fcb5d1492b0afc016e9bf600d60006101000a81548173ffffffffffffffffffffffffffffffffffffffff021916908373ffffffffffffffffffffffffffffffffffffffff160217905550738c7fe6bdea2e1a76c80dcb75bc0086f96df550c2600e60006101000a81548173ffffffffffffffffffffffffffffffffffffffff021916908373ffffffffffffffffffffffffffffffffffffffff160217905550733f53e1a5c3c56bbd23d97890a28f9ce1c05ee563600f60006101000a81548173ffffffffffffffffffffffffffffffffffffffff021916908373ffffffffffffffffffffffffffffffffffffffff1602179055507323cceb31284c9b13361dfe36447ece97e38cc887601060006101000a81548173ffffffffffffffffffffffffffffffffffffffff021916908373ffffffffffffffffffffffffffffffffffffffff1602179055503480156200030d57600080fd5b506040516200463338038062004633833981810160405281019062000333919062000bc3565b816000806101000a81548173ffffffffffffffffffffffffffffffffffffffff021916908373ffffffffffffffffffffffffffffffffffffffff16021790555080600160006101000a81548173ffffffffffffffffffffffffffffffffffffffff021916908373ffffffffffffffffffffffffffffffffffffffff16021790555030600760006101000a81548173ffffffffffffffffffffffffffffffffffffffff021916908373ffffffffffffffffffffffffffffffffffffffff1602179055506200045e6040518060400160405280600e81526020017f42696c6c2042656c69636869636b000000000000000000000000000000000000815250600860009054906101000a900473ffffffffffffffffffffffffffffffffffffffff16620006aa60201b60201c565b620004c76040518060400160405280600b81526020017f4d696b652056726162656c000000000000000000000000000000000000000000815250600960009054906101000a900473ffffffffffffffffffffffffffffffffffffffff16620006aa60201b60201c565b620005306040518060400160405280600e81526020017f4272616e646f6e205374616c6579000000000000000000000000000000000000815250600a60009054906101000a900473ffffffffffffffffffffffffffffffffffffffff16620006aa60201b60201c565b620005996040518060400160405280600b81526020017f4672616e6b205265696368000000000000000000000000000000000000000000815250600b60009054906101000a900473ffffffffffffffffffffffffffffffffffffffff16620006aa60201b60201c565b620005ce600c60009054906101000a900473ffffffffffffffffffffffffffffffffffffffff1660016200096560201b60201c565b62000603600d60009054906101000a900473ffffffffffffffffffffffffffffffffffffffff1660016200096560201b60201c565b62000638600e60009054906101000a900473ffffffffffffffffffffffffffffffffffffffff1660026200096560201b60201c565b6200066d600f60009054906101000a900473ffffffffffffffffffffffffffffffffffffffff1660026200096560201b60201c565b620006a2601060009054906101000a900473ffffffffffffffffffffffffffffffffffffffff1660036200096560201b60201c565b50506200118d565b60046000815480929190620006bf9062000c43565b919050555060405180608001604052806004548152602001838152602001600181526020018273ffffffffffffffffffffffffffffffffffffffff1681525060036000600454815260200190815260200160002060008201518160000155602082015181600101908162000734919062000f00565b506040820151816002015560608201518160030160006101000a81548173ffffffffffffffffffffffffffffffffffffffff021916908373ffffffffffffffffffffffffffffffffffffffff1602179055509050506001600260008373ffffffffffffffffffffffffffffffffffffffff1673ffffffffffffffffffffffffffffffffffffffff16815260200190815260200160002060006101000a81548160ff021916908315150217905550600460066000828254620007f6919062000fe7565b9250508190555060056000815480929190620008129062000c43565b919050555060008054906101000a900473ffffffffffffffffffffffffffffffffffffffff1673ffffffffffffffffffffffffffffffffffffffff1663beabacc882600760009054906101000a900473ffffffffffffffffffffffffffffffffffffffff1660046040518463ffffffff1660e01b8152600401620008999392919062001076565b600060405180830381600087803b158015620008b457600080fd5b505af1158015620008c9573d6000803e3d6000fd5b50505050600160009054906101000a900473ffffffffffffffffffffffffffffffffffffffff1673ffffffffffffffffffffffffffffffffffffffff166359eda6b88260046040518363ffffffff1660e01b81526004016200092d929190620010b3565b600060405180830381600087803b1580156200094857600080fd5b505af11580156200095d573d6000803e3d6000fd5b505050505050565b6001600260008473ffffffffffffffffffffffffffffffffffffffff1673ffffffffffffffffffffffffffffffffffffffff16815260200190815260200160002060006101000a81548160ff0219169083151502179055506000600360008381526020019081526020016000209050806002016000815480929190620009eb9062000c43565b91905055506005600081548092919062000a059062000c43565b919050555060008054906101000a900473ffffffffffffffffffffffffffffffffffffffff1673ffffffffffffffffffffffffffffffffffffffff1663beabacc884600760009054906101000a900473ffffffffffffffffffffffffffffffffffffffff1660026040518463ffffffff1660e01b815260040162000a8c9392919062001123565b600060405180830381600087803b15801562000aa757600080fd5b505af115801562000abc573d6000803e3d6000fd5b50505050600160009054906101000a900473ffffffffffffffffffffffffffffffffffffffff1673ffffffffffffffffffffffffffffffffffffffff166359eda6b88460026040518363ffffffff1660e01b815260040162000b2092919062001160565b600060405180830381600087803b15801562000b3b57600080fd5b505af115801562000b50573d6000803e3d6000fd5b50505050505050565b600080fd5b600073ffffffffffffffffffffffffffffffffffffffff82169050919050565b600062000b8b8262000b5e565b9050919050565b62000b9d8162000b7e565b811462000ba957600080fd5b50565b60008151905062000bbd8162000b92565b92915050565b6000806040838503121562000bdd5762000bdc62000b59565b5b600062000bed8582860162000bac565b925050602062000c008582860162000bac565b9150509250929050565b7f4e487b7100000000000000000000000000000000000000000000000000000000600052601160045260246000fd5b6000819050919050565b600062000c508262000c39565b91507fffffffffffffffffffffffffffffffffffffffffffffffffffffffffffffffff820362000c855762000c8462000c0a565b5b600182019050919050565b600081519050919050565b7f4e487b7100000000000000000000000000000000000000000000000000000000600052604160045260246000fd5b7f4e487b7100000000000000000000000000000000000000000000000000000000600052602260045260246000fd5b6000600282049050600182168062000d1257607f821691505b60208210810362000d285762000d2762000cca565b5b50919050565b60008190508160005260206000209050919050565b60006020601f8301049050919050565b600082821b905092915050565b60006008830262000d927fffffffffffffffffffffffffffffffffffffffffffffffffffffffffffffffff8262000d53565b62000d9e868362000d53565b95508019841693508086168417925050509392505050565b6000819050919050565b600062000de162000ddb62000dd58462000c39565b62000db6565b62000c39565b9050919050565b6000819050919050565b62000dfd8362000dc0565b62000e1562000e0c8262000de8565b84845462000d60565b825550505050565b600090565b62000e2c62000e1d565b62000e3981848462000df2565b505050565b5b8181101562000e615762000e5560008262000e22565b60018101905062000e3f565b5050565b601f82111562000eb05762000e7a8162000d2e565b62000e858462000d43565b8101602085101562000e95578190505b62000ead62000ea48562000d43565b83018262000e3e565b50505b505050565b600082821c905092915050565b600062000ed56000198460080262000eb5565b1980831691505092915050565b600062000ef0838362000ec2565b9150826002028217905092915050565b62000f0b8262000c90565b67ffffffffffffffff81111562000f275762000f2662000c9b565b5b62000f33825462000cf9565b62000f4082828562000e65565b600060209050601f83116001811462000f78576000841562000f63578287015190505b62000f6f858262000ee2565b86555062000fdf565b601f19841662000f888662000d2e565b60005b8281101562000fb25784890151825560018201915060208501945060208101905062000f8b565b8683101562000fd2578489015162000fce601f89168262000ec2565b8355505b6001600288020188555050505b505050505050565b600062000ff48262000c39565b9150620010018362000c39565b92508282019050808211156200101c576200101b62000c0a565b5b92915050565b6200102d8162000b7e565b82525050565b6000819050919050565b60006200105e62001058620010528462001033565b62000db6565b62000c39565b9050919050565b62001070816200103d565b82525050565b60006060820190506200108d600083018662001022565b6200109c602083018562001022565b620010ab604083018462001065565b949350505050565b6000604082019050620010ca600083018562001022565b620010d9602083018462001065565b9392505050565b6000819050919050565b60006200110b62001105620010ff84620010e0565b62000db6565b62000c39565b9050919050565b6200111d81620010ea565b82525050565b60006060820190506200113a600083018662001022565b62001149602083018562001022565b62001158604083018462001112565b949350505050565b600060408201905062001177600083018562001022565b62001186602083018462001112565b9392505050565b613496806200119d6000396000f3fe608060405234801561001057600080fd5b50600436106100a95760003560e01c8063600e985011610071578063600e985014610157578063a3ec138d14610175578063d65aadc6146101a5578063f6b4dfb4146101c3578063f9094303146101e1578063fe3278f8146101eb576100a9565b80630121b93f146100ae5780630d15fd77146100ca5780632d35a8a2146100e857806332bd06f8146101065780633477ee2e14610124575b600080fd5b6100c860048036038101906100c39190612c76565b610209565b005b6100d261171c565b6040516100df9190612cb2565b60405180910390f35b6100f0611722565b6040516100fd9190612cb2565b60405180910390f35b61010e611728565b60405161011b9190612cb2565b60405180910390f35b61013e60048036038101906101399190612c76565b61172e565b60405161014e9493929190612d9e565b60405180910390f35b61015f611806565b60405161016c9190612e49565b60405180910390f35b61018f600480360381019061018a9190612e90565b61182a565b60405161019c9190612ed8565b60405180910390f35b6101ad61184a565b6040516101ba9190612f14565b60405180910390f35b6101cb611870565b6040516101d89190612f2f565b60405180910390f35b6101e9611896565b005b6101f3612b77565b6040516102009190612cb2565b60405180910390f35b600260003373ffffffffffffffffffffffffffffffffffffffff1673ffffffffffffffffffffffffffffffffffffffff16815260200190815260200160002060009054906101000a900460ff161561026057600080fd5b60008111801561027257506004548111155b61027b57600080fd5b600260008054906101000a900473ffffffffffffffffffffffffffffffffffffffff1673ffffffffffffffffffffffffffffffffffffffff1663d1e0ea45336040518263ffffffff1660e01b81526004016102d69190612f2f565b602060405180830381865afa1580156102f3573d6000803e3d6000fd5b505050506040513d601f19601f820116820180604052508101906103179190612f5f565b1015610358576040517f08c379a000000000000000000000000000000000000000000000000000000000815260040161034f90612fd8565b60405180910390fd5b60008054906101000a900473ffffffffffffffffffffffffffffffffffffffff1673ffffffffffffffffffffffffffffffffffffffff1663beabacc833600760009054906101000a900473ffffffffffffffffffffffffffffffffffffffff1660026040518463ffffffff1660e01b81526004016103d893929190613033565b600060405180830381600087803b1580156103f257600080fd5b505af1158015610406573d6000803e3d6000fd5b50505050600160009054906101000a900473ffffffffffffffffffffffffffffffffffffffff1673ffffffffffffffffffffffffffffffffffffffff166359eda6b83360026040518363ffffffff1660e01b815260040161046892919061306a565b600060405180830381600087803b15801561048257600080fd5b505af1158015610496573d6000803e3d6000fd5b505050506002600660008282546104ad91906130c2565b92505081905550600560008154809291906104c7906130f6565b91905055506001600260003373ffffffffffffffffffffffffffffffffffffffff1673ffffffffffffffffffffffffffffffffffffffff16815260200190815260200160002060006101000a81548160ff0219169083151502179055506000600360008381526020019081526020016000209050806002016000815480929190610550906130f6565b919050555060008054906101000a900473ffffffffffffffffffffffffffffffffffffffff1673ffffffffffffffffffffffffffffffffffffffff1663beabacc8600760009054906101000a900473ffffffffffffffffffffffffffffffffffffffff163360016040518463ffffffff1660e01b81526004016105d593929190613179565b600060405180830381600087803b1580156105ef57600080fd5b505af1158015610603573d6000803e3d6000fd5b5050505060008054906101000a900473ffffffffffffffffffffffffffffffffffffffff1673ffffffffffffffffffffffffffffffffffffffff1663beabacc8600760009054906101000a900473ffffffffffffffffffffffffffffffffffffffff16600860009054906101000a900473ffffffffffffffffffffffffffffffffffffffff1660066040518463ffffffff1660e01b81526004016106a9939291906131eb565b600060405180830381600087803b1580156106c357600080fd5b505af11580156106d7573d6000803e3d6000fd5b5050505060008054906101000a900473ffffffffffffffffffffffffffffffffffffffff1673ffffffffffffffffffffffffffffffffffffffff1663beabacc8600760009054906101000a900473ffffffffffffffffffffffffffffffffffffffff16600960009054906101000a900473ffffffffffffffffffffffffffffffffffffffff1660036040518463ffffffff1660e01b815260040161077d9392919061325d565b600060405180830381600087803b15801561079757600080fd5b505af11580156107ab573d6000803e3d6000fd5b5050505060008054906101000a900473ffffffffffffffffffffffffffffffffffffffff1673ffffffffffffffffffffffffffffffffffffffff1663beabacc8600760009054906101000a900473ffffffffffffffffffffffffffffffffffffffff16600a60009054906101000a900473ffffffffffffffffffffffffffffffffffffffff1660026040518463ffffffff1660e01b815260040161085193929190613033565b600060405180830381600087803b15801561086b57600080fd5b505af115801561087f573d6000803e3d6000fd5b5050505060008054906101000a900473ffffffffffffffffffffffffffffffffffffffff1673ffffffffffffffffffffffffffffffffffffffff1663beabacc8600760009054906101000a900473ffffffffffffffffffffffffffffffffffffffff16600b60009054906101000a900473ffffffffffffffffffffffffffffffffffffffff1660026040518463ffffffff1660e01b815260040161092593929190613033565b600060405180830381600087803b15801561093f57600080fd5b505af1158015610953573d6000803e3d6000fd5b5050505060008054906101000a900473ffffffffffffffffffffffffffffffffffffffff1673ffffffffffffffffffffffffffffffffffffffff1663beabacc8600760009054906101000a900473ffffffffffffffffffffffffffffffffffffffff16600c60009054906101000a900473ffffffffffffffffffffffffffffffffffffffff1660016040518463ffffffff1660e01b81526004016109f993929190613179565b600060405180830381600087803b158015610a1357600080fd5b505af1158015610a27573d6000803e3d6000fd5b5050505060008054906101000a900473ffffffffffffffffffffffffffffffffffffffff1673ffffffffffffffffffffffffffffffffffffffff1663beabacc8600760009054906101000a900473ffffffffffffffffffffffffffffffffffffffff16600d60009054906101000a900473ffffffffffffffffffffffffffffffffffffffff1660016040518463ffffffff1660e01b8152600401610acd93929190613179565b600060405180830381600087803b158015610ae757600080fd5b505af1158015610afb573d6000803e3d6000fd5b5050505060008054906101000a900473ffffffffffffffffffffffffffffffffffffffff1673ffffffffffffffffffffffffffffffffffffffff1663beabacc8600760009054906101000a900473ffffffffffffffffffffffffffffffffffffffff16600e60009054906101000a900473ffffffffffffffffffffffffffffffffffffffff1660016040518463ffffffff1660e01b8152600401610ba193929190613179565b600060405180830381600087803b158015610bbb57600080fd5b505af1158015610bcf573d6000803e3d6000fd5b5050505060008054906101000a900473ffffffffffffffffffffffffffffffffffffffff1673ffffffffffffffffffffffffffffffffffffffff1663beabacc8600760009054906101000a900473ffffffffffffffffffffffffffffffffffffffff16600f60009054906101000a900473ffffffffffffffffffffffffffffffffffffffff1660016040518463ffffffff1660e01b8152600401610c7593929190613179565b600060405180830381600087803b158015610c8f57600080fd5b505af1158015610ca3573d6000803e3d6000fd5b5050505060008054906101000a900473ffffffffffffffffffffffffffffffffffffffff1673ffffffffffffffffffffffffffffffffffffffff1663beabacc8600760009054906101000a900473ffffffffffffffffffffffffffffffffffffffff16601060009054906101000a900473ffffffffffffffffffffffffffffffffffffffff1660016040518463ffffffff1660e01b8152600401610d4993929190613179565b600060405180830381600087803b158015610d6357600080fd5b505af1158015610d77573d6000803e3d6000fd5b5050505060008054906101000a900473ffffffffffffffffffffffffffffffffffffffff1673ffffffffffffffffffffffffffffffffffffffff1663beabacc8600760009054906101000a900473ffffffffffffffffffffffffffffffffffffffff16600860009054906101000a900473ffffffffffffffffffffffffffffffffffffffff1660016040518463ffffffff1660e01b8152600401610e1d93929190613179565b600060405180830381600087803b158015610e3757600080fd5b505af1158015610e4b573d6000803e3d6000fd5b5050505060008054906101000a900473ffffffffffffffffffffffffffffffffffffffff1673ffffffffffffffffffffffffffffffffffffffff1663beabacc8600760009054906101000a900473ffffffffffffffffffffffffffffffffffffffff16600960009054906101000a900473ffffffffffffffffffffffffffffffffffffffff1660016040518463ffffffff1660e01b8152600401610ef193929190613179565b600060405180830381600087803b158015610f0b57600080fd5b505af1158015610f1f573d6000803e3d6000fd5b5050505060008054906101000a900473ffffffffffffffffffffffffffffffffffffffff1673ffffffffffffffffffffffffffffffffffffffff1663beabacc8600760009054906101000a900473ffffffffffffffffffffffffffffffffffffffff16600a60009054906101000a900473ffffffffffffffffffffffffffffffffffffffff1660016040518463ffffffff1660e01b8152600401610fc593929190613179565b600060405180830381600087803b158015610fdf57600080fd5b505af1158015610ff3573d6000803e3d6000fd5b5050505060008054906101000a900473ffffffffffffffffffffffffffffffffffffffff1673ffffffffffffffffffffffffffffffffffffffff1663beabacc8600760009054906101000a900473ffffffffffffffffffffffffffffffffffffffff16600b60009054906101000a900473ffffffffffffffffffffffffffffffffffffffff1660016040518463ffffffff1660e01b815260040161109993929190613179565b600060405180830381600087803b1580156110b357600080fd5b505af11580156110c7573d6000803e3d6000fd5b50505050600160009054906101000a900473ffffffffffffffffffffffffffffffffffffffff1673ffffffffffffffffffffffffffffffffffffffff16632e12728b3360016040518363ffffffff1660e01b8152600401611129929190613294565b600060405180830381600087803b15801561114357600080fd5b505af1158015611157573d6000803e3d6000fd5b50505050600160009054906101000a900473ffffffffffffffffffffffffffffffffffffffff1673ffffffffffffffffffffffffffffffffffffffff16632e12728b600860009054906101000a900473ffffffffffffffffffffffffffffffffffffffff1660056040518363ffffffff1660e01b81526004016111db9291906132f8565b600060405180830381600087803b1580156111f557600080fd5b505af1158015611209573d6000803e3d6000fd5b50505050600160009054906101000a900473ffffffffffffffffffffffffffffffffffffffff1673ffffffffffffffffffffffffffffffffffffffff16632e12728b600960009054906101000a900473ffffffffffffffffffffffffffffffffffffffff1660056040518363ffffffff1660e01b815260040161128d9291906132f8565b600060405180830381600087803b1580156112a757600080fd5b505af11580156112bb573d6000803e3d6000fd5b50505050600160009054906101000a900473ffffffffffffffffffffffffffffffffffffffff1673ffffffffffffffffffffffffffffffffffffffff16632e12728b600a60009054906101000a900473ffffffffffffffffffffffffffffffffffffffff1660046040518363ffffffff1660e01b815260040161133f92919061335c565b600060405180830381600087803b15801561135957600080fd5b505af115801561136d573d6000803e3d6000fd5b50505050600160009054906101000a900473ffffffffffffffffffffffffffffffffffffffff1673ffffffffffffffffffffffffffffffffffffffff16632e12728b600b60009054906101000a900473ffffffffffffffffffffffffffffffffffffffff1660046040518363ffffffff1660e01b81526004016113f192919061335c565b600060405180830381600087803b15801561140b57600080fd5b505af115801561141f573d6000803e3d6000fd5b50505050600160009054906101000a900473ffffffffffffffffffffffffffffffffffffffff1673ffffffffffffffffffffffffffffffffffffffff16632e12728b600c60009054906101000a900473ffffffffffffffffffffffffffffffffffffffff1660016040518363ffffffff1660e01b81526004016114a3929190613294565b600060405180830381600087803b1580156114bd57600080fd5b505af11580156114d1573d6000803e3d6000fd5b50505050600160009054906101000a900473ffffffffffffffffffffffffffffffffffffffff1673ffffffffffffffffffffffffffffffffffffffff16632e12728b600d60009054906101000a900473ffffffffffffffffffffffffffffffffffffffff1660016040518363ffffffff1660e01b8152600401611555929190613294565b600060405180830381600087803b15801561156f57600080fd5b505af1158015611583573d6000803e3d6000fd5b50505050600160009054906101000a900473ffffffffffffffffffffffffffffffffffffffff1673ffffffffffffffffffffffffffffffffffffffff16632e12728b600e60009054906101000a900473ffffffffffffffffffffffffffffffffffffffff1660016040518363ffffffff1660e01b8152600401611607929190613294565b600060405180830381600087803b15801561162157600080fd5b505af1158015611635573d6000803e3d6000fd5b50505050600160009054906101000a900473ffffffffffffffffffffffffffffffffffffffff1673ffffffffffffffffffffffffffffffffffffffff16632e12728b600f60009054906101000a900473ffffffffffffffffffffffffffffffffffffffff1660016040518363ffffffff1660e01b81526004016116b9929190613294565b600060405180830381600087803b1580156116d357600080fd5b505af11580156116e7573d6000803e3d6000fd5b50505050817ffff3c900d938d21d0990d786e819f29b8d05c1ef587b462b939609625b684b1660405160405180910390a25050565b60055481565b60045481565b60065481565b6003602052806000526040600020600091509050806000015490806001018054611757906133b4565b80601f0160208091040260200160405190810160405280929190818152602001828054611783906133b4565b80156117d05780601f106117a5576101008083540402835291602001916117d0565b820191906000526020600020905b8154815290600101906020018083116117b357829003601f168201915b5050505050908060020154908060030160009054906101000a900473ffffffffffffffffffffffffffffffffffffffff16905084565b60008054906101000a900473ffffffffffffffffffffffffffffffffffffffff1681565b60026020528060005260406000206000915054906101000a900460ff1681565b600160009054906101000a900473ffffffffffffffffffffffffffffffffffffffff1681565b600760009054906101000a900473ffffffffffffffffffffffffffffffffffffffff1681565b600073f220d553fbbc28b6f381cbb2be99d59de42d2f849050600073feb798ed0e1ec865bf80703ca1e1bb7a48ddeafa905060007348f84a00f895be17bd4fa9e0731c7b39eacd6fbe9050600073cf16fe704d4b01ecdd98a41af04b92008d2a32cc9050600073709e646fc789ec4b3d093c8871f66640e9c60616905060007222872cd7dc3e7ea18242d815b85bf972df29b7905060007329903d7e00703607844fcb5d1492b0afc016e9bf90506000738c7fe6bdea2e1a76c80dcb75bc0086f96df550c290506000733f53e1a5c3c56bbd23d97890a28f9ce1c05ee563905060007323cceb31284c9b13361dfe36447ece97e38cc887905060008054906101000a900473ffffffffffffffffffffffffffffffffffffffff1673ffffffffffffffffffffffffffffffffffffffff1663beabacc8600760009054906101000a900473ffffffffffffffffffffffffffffffffffffffff168c60016040518463ffffffff1660e01b8152600401611a0f93929190613179565b600060405180830381600087803b158015611a2957600080fd5b505af1158015611a3d573d6000803e3d6000fd5b5050505060008054906101000a900473ffffffffffffffffffffffffffffffffffffffff1673ffffffffffffffffffffffffffffffffffffffff1663beabacc8600760009054906101000a900473ffffffffffffffffffffffffffffffffffffffff168b60066040518463ffffffff1660e01b8152600401611ac1939291906131eb565b600060405180830381600087803b158015611adb57600080fd5b505af1158015611aef573d6000803e3d6000fd5b5050505060008054906101000a900473ffffffffffffffffffffffffffffffffffffffff1673ffffffffffffffffffffffffffffffffffffffff1663beabacc8600760009054906101000a900473ffffffffffffffffffffffffffffffffffffffff168a60036040518463ffffffff1660e01b8152600401611b739392919061325d565b600060405180830381600087803b158015611b8d57600080fd5b505af1158015611ba1573d6000803e3d6000fd5b5050505060008054906101000a900473ffffffffffffffffffffffffffffffffffffffff1673ffffffffffffffffffffffffffffffffffffffff1663beabacc8600760009054906101000a900473ffffffffffffffffffffffffffffffffffffffff168960026040518463ffffffff1660e01b8152600401611c2593929190613033565b600060405180830381600087803b158015611c3f57600080fd5b505af1158015611c53573d6000803e3d6000fd5b5050505060008054906101000a900473ffffffffffffffffffffffffffffffffffffffff1673ffffffffffffffffffffffffffffffffffffffff1663beabacc8600760009054906101000a900473ffffffffffffffffffffffffffffffffffffffff168860026040518463ffffffff1660e01b8152600401611cd793929190613033565b600060405180830381600087803b158015611cf157600080fd5b505af1158015611d05573d6000803e3d6000fd5b5050505060008054906101000a900473ffffffffffffffffffffffffffffffffffffffff1673ffffffffffffffffffffffffffffffffffffffff1663beabacc8600760009054906101000a900473ffffffffffffffffffffffffffffffffffffffff168760016040518463ffffffff1660e01b8152600401611d8993929190613179565b600060405180830381600087803b158015611da357600080fd5b505af1158015611db7573d6000803e3d6000fd5b5050505060008054906101000a900473ffffffffffffffffffffffffffffffffffffffff1673ffffffffffffffffffffffffffffffffffffffff1663beabacc8600760009054906101000a900473ffffffffffffffffffffffffffffffffffffffff168660016040518463ffffffff1660e01b8152600401611e3b93929190613179565b600060405180830381600087803b158015611e5557600080fd5b505af1158015611e69573d6000803e3d6000fd5b5050505060008054906101000a900473ffffffffffffffffffffffffffffffffffffffff1673ffffffffffffffffffffffffffffffffffffffff1663beabacc8600760009054906101000a900473ffffffffffffffffffffffffffffffffffffffff168560016040518463ffffffff1660e01b8152600401611eed93929190613179565b600060405180830381600087803b158015611f0757600080fd5b505af1158015611f1b573d6000803e3d6000fd5b5050505060008054906101000a900473ffffffffffffffffffffffffffffffffffffffff1673ffffffffffffffffffffffffffffffffffffffff1663beabacc8600760009054906101000a900473ffffffffffffffffffffffffffffffffffffffff168460016040518463ffffffff1660e01b8152600401611f9f93929190613179565b600060405180830381600087803b158015611fb957600080fd5b505af1158015611fcd573d6000803e3d6000fd5b5050505060008054906101000a900473ffffffffffffffffffffffffffffffffffffffff1673ffffffffffffffffffffffffffffffffffffffff1663beabacc8600760009054906101000a900473ffffffffffffffffffffffffffffffffffffffff168360016040518463ffffffff1660e01b815260040161205193929190613179565b600060405180830381600087803b15801561206b57600080fd5b505af115801561207f573d6000803e3d6000fd5b50505050600160009054906101000a900473ffffffffffffffffffffffffffffffffffffffff1673ffffffffffffffffffffffffffffffffffffffff16630e7905068b60016040518363ffffffff1660e01b81526004016120e1929190613294565b600060405180830381600087803b1580156120fb57600080fd5b505af115801561210f573d6000803e3d6000fd5b50505050600160009054906101000a900473ffffffffffffffffffffffffffffffffffffffff1673ffffffffffffffffffffffffffffffffffffffff16630e7905068a60066040518363ffffffff1660e01b81526004016121719291906133e5565b600060405180830381600087803b15801561218b57600080fd5b505af115801561219f573d6000803e3d6000fd5b50505050600160009054906101000a900473ffffffffffffffffffffffffffffffffffffffff1673ffffffffffffffffffffffffffffffffffffffff16630e7905068960036040518363ffffffff1660e01b815260040161220192919061340e565b600060405180830381600087803b15801561221b57600080fd5b505af115801561222f573d6000803e3d6000fd5b50505050600160009054906101000a900473ffffffffffffffffffffffffffffffffffffffff1673ffffffffffffffffffffffffffffffffffffffff16630e7905068860026040518363ffffffff1660e01b815260040161229192919061306a565b600060405180830381600087803b1580156122ab57600080fd5b505af11580156122bf573d6000803e3d6000fd5b50505050600160009054906101000a900473ffffffffffffffffffffffffffffffffffffffff1673ffffffffffffffffffffffffffffffffffffffff16630e7905068760026040518363ffffffff1660e01b815260040161232192919061306a565b600060405180830381600087803b15801561233b57600080fd5b505af115801561234f573d6000803e3d6000fd5b50505050600160009054906101000a900473ffffffffffffffffffffffffffffffffffffffff1673ffffffffffffffffffffffffffffffffffffffff16630e7905068660016040518363ffffffff1660e01b81526004016123b1929190613294565b600060405180830381600087803b1580156123cb57600080fd5b505af11580156123df573d6000803e3d6000fd5b50505050600160009054906101000a900473ffffffffffffffffffffffffffffffffffffffff1673ffffffffffffffffffffffffffffffffffffffff16630e7905068560016040518363ffffffff1660e01b8152600401612441929190613294565b600060405180830381600087803b15801561245b57600080fd5b505af115801561246f573d6000803e3d6000fd5b50505050600160009054906101000a900473ffffffffffffffffffffffffffffffffffffffff1673ffffffffffffffffffffffffffffffffffffffff16630e7905068460016040518363ffffffff1660e01b81526004016124d1929190613294565b600060405180830381600087803b1580156124eb57600080fd5b505af11580156124ff573d6000803e3d6000fd5b50505050600160009054906101000a900473ffffffffffffffffffffffffffffffffffffffff1673ffffffffffffffffffffffffffffffffffffffff16630e7905068360016040518363ffffffff1660e01b8152600401612561929190613294565b600060405180830381600087803b15801561257b57600080fd5b505af115801561258f573d6000803e3d6000fd5b50505050600160009054906101000a900473ffffffffffffffffffffffffffffffffffffffff1673ffffffffffffffffffffffffffffffffffffffff16630e7905068260016040518363ffffffff1660e01b81526004016125f1929190613294565b600060405180830381600087803b15801561260b57600080fd5b505af115801561261f573d6000803e3d6000fd5b50505050600160009054906101000a900473ffffffffffffffffffffffffffffffffffffffff1673ffffffffffffffffffffffffffffffffffffffff16632e12728b8b60016040518363ffffffff1660e01b8152600401612681929190613294565b600060405180830381600087803b15801561269b57600080fd5b505af11580156126af573d6000803e3d6000fd5b50505050600160009054906101000a900473ffffffffffffffffffffffffffffffffffffffff1673ffffffffffffffffffffffffffffffffffffffff16632e12728b8a60056040518363ffffffff1660e01b81526004016127119291906132f8565b600060405180830381600087803b15801561272b57600080fd5b505af115801561273f573d6000803e3d6000fd5b50505050600160009054906101000a900473ffffffffffffffffffffffffffffffffffffffff1673ffffffffffffffffffffffffffffffffffffffff16632e12728b8960056040518363ffffffff1660e01b81526004016127a19291906132f8565b600060405180830381600087803b1580156127bb57600080fd5b505af11580156127cf573d6000803e3d6000fd5b50505050600160009054906101000a900473ffffffffffffffffffffffffffffffffffffffff1673ffffffffffffffffffffffffffffffffffffffff16632e12728b8860046040518363ffffffff1660e01b815260040161283192919061335c565b600060405180830381600087803b15801561284b57600080fd5b505af115801561285f573d6000803e3d6000fd5b50505050600160009054906101000a900473ffffffffffffffffffffffffffffffffffffffff1673ffffffffffffffffffffffffffffffffffffffff16632e12728b8760046040518363ffffffff1660e01b81526004016128c192919061335c565b600060405180830381600087803b1580156128db57600080fd5b505af11580156128ef573d6000803e3d6000fd5b50505050600160009054906101000a900473ffffffffffffffffffffffffffffffffffffffff1673ffffffffffffffffffffffffffffffffffffffff16632e12728b8660016040518363ffffffff1660e01b8152600401612951929190613294565b600060405180830381600087803b15801561296b57600080fd5b505af115801561297f573d6000803e3d6000fd5b50505050600160009054906101000a900473ffffffffffffffffffffffffffffffffffffffff1673ffffffffffffffffffffffffffffffffffffffff16632e12728b8560016040518363ffffffff1660e01b81526004016129e1929190613294565b600060405180830381600087803b1580156129fb57600080fd5b505af1158015612a0f573d6000803e3d6000fd5b50505050600160009054906101000a900473ffffffffffffffffffffffffffffffffffffffff1673ffffffffffffffffffffffffffffffffffffffff16632e12728b8460016040518363ffffffff1660e01b8152600401612a71929190613294565b600060405180830381600087803b158015612a8b57600080fd5b505af1158015612a9f573d6000803e3d6000fd5b50505050600160009054906101000a900473ffffffffffffffffffffffffffffffffffffffff1673ffffffffffffffffffffffffffffffffffffffff16632e12728b8360016040518363ffffffff1660e01b8152600401612b01929190613294565b600060405180830381600087803b158015612b1b57600080fd5b505af1158015612b2f573d6000803e3d6000fd5b5050505060005b6015811015612b6a5760056000815480929190612b5290613437565b91905055508080612b62906130f6565b915050612b36565b5050505050505050505050565b60008060009054906101000a900473ffffffffffffffffffffffffffffffffffffffff1673ffffffffffffffffffffffffffffffffffffffff1663d1e0ea45600760009054906101000a900473ffffffffffffffffffffffffffffffffffffffff166040518263ffffffff1660e01b8152600401612bf59190612f2f565b602060405180830381865afa158015612c12573d6000803e3d6000fd5b505050506040513d601f19601f82011682018060405250810190612c369190612f5f565b905090565b600080fd5b6000819050919050565b612c5381612c40565b8114612c5e57600080fd5b50565b600081359050612c7081612c4a565b92915050565b600060208284031215612c8c57612c8b612c3b565b5b6000612c9a84828501612c61565b91505092915050565b612cac81612c40565b82525050565b6000602082019050612cc76000830184612ca3565b92915050565b600081519050919050565b600082825260208201905092915050565b60005b83811015612d07578082015181840152602081019050612cec565b60008484015250505050565b6000601f19601f8301169050919050565b6000612d2f82612ccd565b612d398185612cd8565b9350612d49818560208601612ce9565b612d5281612d13565b840191505092915050565b600073ffffffffffffffffffffffffffffffffffffffff82169050919050565b6000612d8882612d5d565b9050919050565b612d9881612d7d565b82525050565b6000608082019050612db36000830187612ca3565b8181036020830152612dc58186612d24565b9050612dd46040830185612ca3565b612de16060830184612d8f565b95945050505050565b6000819050919050565b6000612e0f612e0a612e0584612d5d565b612dea565b612d5d565b9050919050565b6000612e2182612df4565b9050919050565b6000612e3382612e16565b9050919050565b612e4381612e28565b82525050565b6000602082019050612e5e6000830184612e3a565b92915050565b612e6d81612d7d565b8114612e7857600080fd5b50565b600081359050612e8a81612e64565b92915050565b600060208284031215612ea657612ea5612c3b565b5b6000612eb484828501612e7b565b91505092915050565b60008115159050919050565b612ed281612ebd565b82525050565b6000602082019050612eed6000830184612ec9565b92915050565b6000612efe82612e16565b9050919050565b612f0e81612ef3565b82525050565b6000602082019050612f296000830184612f05565b92915050565b6000602082019050612f446000830184612d8f565b92915050565b600081519050612f5981612c4a565b92915050565b600060208284031215612f7557612f74612c3b565b5b6000612f8384828501612f4a565b91505092915050565b7f496e73756666696369656e74204d564320746f6b656e7320746f20766f746500600082015250565b6000612fc2601f83612cd8565b9150612fcd82612f8c565b602082019050919050565b60006020820190508181036000830152612ff181612fb5565b9050919050565b6000819050919050565b600061301d61301861301384612ff8565b612dea565b612c40565b9050919050565b61302d81613002565b82525050565b60006060820190506130486000830186612d8f565b6130556020830185612d8f565b6130626040830184613024565b949350505050565b600060408201905061307f6000830185612d8f565b61308c6020830184613024565b9392505050565b7f4e487b7100000000000000000000000000000000000000000000000000000000600052601160045260246000fd5b60006130cd82612c40565b91506130d883612c40565b92508282019050808211156130f0576130ef613093565b5b92915050565b600061310182612c40565b91507fffffffffffffffffffffffffffffffffffffffffffffffffffffffffffffffff820361313357613132613093565b5b600182019050919050565b6000819050919050565b600061316361315e6131598461313e565b612dea565b612c40565b9050919050565b61317381613148565b82525050565b600060608201905061318e6000830186612d8f565b61319b6020830185612d8f565b6131a8604083018461316a565b949350505050565b6000819050919050565b60006131d56131d06131cb846131b0565b612dea565b612c40565b9050919050565b6131e5816131ba565b82525050565b60006060820190506132006000830186612d8f565b61320d6020830185612d8f565b61321a60408301846131dc565b949350505050565b6000819050919050565b600061324761324261323d84613222565b612dea565b612c40565b9050919050565b6132578161322c565b82525050565b60006060820190506132726000830186612d8f565b61327f6020830185612d8f565b61328c604083018461324e565b949350505050565b60006040820190506132a96000830185612d8f565b6132b6602083018461316a565b9392505050565b6000819050919050565b60006132e26132dd6132d8846132bd565b612dea565b612c40565b9050919050565b6132f2816132c7565b82525050565b600060408201905061330d6000830185612d8f565b61331a60208301846132e9565b9392505050565b6000819050919050565b600061334661334161333c84613321565b612dea565b612c40565b9050919050565b6133568161332b565b82525050565b60006040820190506133716000830185612d8f565b61337e602083018461334d565b9392505050565b7f4e487b7100000000000000000000000000000000000000000000000000000000600052602260045260246000fd5b600060028204905060018216806133cc57607f821691505b6020821081036133df576133de613385565b5b50919050565b60006040820190506133fa6000830185612d8f565b61340760208301846131dc565b9392505050565b60006040820190506134236000830185612d8f565b613430602083018461324e565b9392505050565b600061344282612c40565b91506000820361345557613454613093565b5b60018203905091905056fea264697066735822122002a2ecc4432491de3672dc4eb85a4efe5ae975a605fb15d9c1cde1890757976364736f6c63430008130033",
  "immutableReferences": {},
  "source": "// SPDX-License-Identifier: MIT\r\npragma solidity ^0.8.19;\r\n\r\nimport \"./MVCToken.sol\" as MVCTokenContract;\r\nimport \"./SkolFaithful.sol\" as SkolFaithfulContract;\r\n\r\ncontract Election2 {\r\n    // Model a Candidate\r\n    struct Candidate {\r\n        uint id;\r\n        string name;\r\n        uint voteCount;\r\n        address ownerAddress;\r\n        //address[] votersForCandidate;\r\n    }\r\n\r\n    MVCTokenContract.MVCToken public mvcToken;\r\n    SkolFaithfulContract.SkolFaithful public skolFaithfulInstance;\r\n\r\n    // Store accounts that have voted\r\n    mapping(address => bool) public voters;\r\n    // Store Candidates\r\n    // Fetch Candidate\r\n    mapping(uint => Candidate) public candidates;\r\n\r\n    // Store Candidates Count\r\n    uint public candidatesCount;\r\n    uint public totalVotes;\r\n    uint public totalMVCs;\r\n\r\n    // voted event\r\n    event votedEvent (\r\n        uint indexed _candidateId\r\n    );\r\n\r\n    address public contractAddress;\r\n    function getContractMVCs() public view returns (uint256) {\r\n        return mvcToken.mvcBalance(contractAddress);\r\n    }\r\n\r\n    address temp2 = 0xFeb798ed0E1eC865Bf80703cA1E1Bb7a48DdEAfa;\r\n    address temp3 = 0x48f84a00F895be17BD4Fa9e0731c7b39eAcd6FBe;\r\n    address temp4 = 0xCF16fe704d4b01ecDD98A41af04B92008D2a32CC;\r\n    address temp5 = 0x709E646fc789ec4b3D093C8871f66640E9c60616;\r\n    address temp6 = 0x0022872cD7Dc3E7eA18242D815B85bF972df29b7;\r\n    address temp7 = 0x29903d7E00703607844FCb5D1492B0AFC016E9bf;\r\n    address temp8 = 0x8c7Fe6BdEa2e1a76C80dCB75BC0086f96dF550c2;\r\n    address temp9 = 0x3f53E1a5c3c56bBd23d97890A28f9ce1c05ee563;\r\n    address temp10 = 0x23cCEB31284c9b13361dfE36447Ece97e38Cc887;\r\n\r\n    constructor (address mvcTokenAddress, address skolFaithfulAddress) {\r\n        mvcToken = MVCTokenContract.MVCToken(mvcTokenAddress);\r\n        skolFaithfulInstance = SkolFaithfulContract.SkolFaithful(skolFaithfulAddress);\r\n        contractAddress = address(this);\r\n\r\n        // address temp2 = 0xFeb798ed0E1eC865Bf80703cA1E1Bb7a48DdEAfa;\r\n        // address temp3 = 0x48f84a00F895be17BD4Fa9e0731c7b39eAcd6FBe;\r\n        // address temp4 = 0xCF16fe704d4b01ecDD98A41af04B92008D2a32CC;\r\n        // address temp5 = 0x709E646fc789ec4b3D093C8871f66640E9c60616;\r\n        addCandidate(\"Bill Belichick\", temp2); // id: 1\r\n        addCandidate(\"Mike Vrabel\", temp3); // id: 2\r\n        addCandidate(\"Brandon Staley\", temp4); // id: 3\r\n        addCandidate(\"Frank Reich\", temp5); // id: 4\r\n\r\n        // address temp6 = 0x0022872cD7Dc3E7eA18242D815B85bF972df29b7;\r\n        // address temp7 = 0x29903d7E00703607844FCb5D1492B0AFC016E9bf;\r\n        // address temp8 = 0x8c7Fe6BdEa2e1a76C80dCB75BC0086f96dF550c2;\r\n        // address temp9 = 0x3f53E1a5c3c56bBd23d97890A28f9ce1c05ee563;\r\n        // address temp10 = 0x23cCEB31284c9b13361dfE36447Ece97e38Cc887;\r\n        mockVote(temp6, 1);\r\n        mockVote(temp7, 1);\r\n        mockVote(temp8, 2);\r\n        mockVote(temp9, 2);\r\n        mockVote(temp10, 3);\r\n    }\r\n\r\n    function mockVote(address voterAddress, uint candidateId) private {\r\n        voters[voterAddress] = true;\r\n        Candidate storage candidate = candidates[candidateId];\r\n        candidate.voteCount++;\r\n        totalVotes++;\r\n\r\n        mvcToken.transfer(voterAddress,contractAddress,2);\r\n        skolFaithfulInstance.mvcTransaction(voterAddress,2);\r\n    }\r\n\r\n    function addCandidate (string memory _name, address owner) private {\r\n        candidatesCount ++;\r\n\r\n        candidates[candidatesCount] = Candidate(candidatesCount, _name, 1, owner);\r\n\r\n        voters[owner] = true;\r\n        totalMVCs += 4;\r\n        totalVotes++;\r\n\r\n        mvcToken.transfer(owner,contractAddress,4);\r\n        skolFaithfulInstance.mvcTransaction(owner,4);\r\n    }\r\n\r\n    function vote (uint _candidateId) public {\r\n        // require that they haven't voted before\r\n        require(!voters[msg.sender]);\r\n\r\n        // require a valid candidate\r\n        require(_candidateId > 0 && _candidateId <= candidatesCount);\r\n\r\n        require(mvcToken.mvcBalance(msg.sender) >= 2, \"Insufficient MVC tokens to vote\");\r\n\r\n        mvcToken.transfer(msg.sender,contractAddress,2);\r\n        skolFaithfulInstance.mvcTransaction(msg.sender,2);\r\n        totalMVCs += 2;\r\n        totalVotes++;\r\n\r\n        // record that voter has voted\r\n        voters[msg.sender] = true;\r\n\r\n        Candidate storage candidate = candidates[_candidateId];\r\n        candidate.voteCount++;\r\n\r\n        mvcToken.transfer(contractAddress,msg.sender,1);\r\n        mvcToken.transfer(contractAddress,temp2,6);\r\n        mvcToken.transfer(contractAddress,temp3,3);\r\n        mvcToken.transfer(contractAddress,temp4,2);\r\n        mvcToken.transfer(contractAddress,temp5,2);\r\n        mvcToken.transfer(contractAddress,temp6,1);\r\n        mvcToken.transfer(contractAddress,temp7,1);\r\n        mvcToken.transfer(contractAddress,temp8,1);\r\n        mvcToken.transfer(contractAddress,temp9,1);\r\n        mvcToken.transfer(contractAddress,temp10,1);\r\n                mvcToken.transfer(contractAddress,temp2,1);\r\n        mvcToken.transfer(contractAddress,temp3,1);\r\n        mvcToken.transfer(contractAddress,temp4,1);\r\n        mvcToken.transfer(contractAddress,temp5,1);\r\n\r\n                skolFaithfulInstance.repReward(msg.sender,1);\r\n        skolFaithfulInstance.repReward(temp2,5);\r\n        skolFaithfulInstance.repReward(temp3,5);\r\n        skolFaithfulInstance.repReward(temp4,4);\r\n        skolFaithfulInstance.repReward(temp5,4);\r\n        skolFaithfulInstance.repReward(temp6,1);\r\n        skolFaithfulInstance.repReward(temp7,1);\r\n        skolFaithfulInstance.repReward(temp8,1);\r\n        skolFaithfulInstance.repReward(temp9,1);\r\n\r\n        // trigger voted event\r\n        emit votedEvent(_candidateId);\r\n    }\r\n\r\n    // 28 total MVCs\r\n    // Each account gets 1 MVC -> 28-10 = 18\r\n    // Account 2 gets 30% of 18 -> 18-6 = 12\r\n    // Account 3 gets 25% of 12 -> 12-3 = 9\r\n    // Account 4 gets 20% of 9 -> 9-2 = 7\r\n    // Account 5 gets 15% of 7 -> 7-2 = 5\r\n    // 5 remaining MVC tokens are burned\r\n\r\n    // Account 1,6,7,8,9,10 each get 1 MVC\r\n    // Account 2 gets 6\r\n    // Account 3 gets 3\r\n    // Account 4 gets 2\r\n    // Account 5 gets 2\r\n    function finishVoting() public {\r\n        address temp1 = 0xf220d553fbbC28b6f381CbB2bE99D59De42d2F84;\r\n        address temp2 = 0xFeb798ed0E1eC865Bf80703cA1E1Bb7a48DdEAfa;\r\n        address temp3 = 0x48f84a00F895be17BD4Fa9e0731c7b39eAcd6FBe;\r\n        address temp4 = 0xCF16fe704d4b01ecDD98A41af04B92008D2a32CC;\r\n        address temp5 = 0x709E646fc789ec4b3D093C8871f66640E9c60616;\r\n        address temp6 = 0x0022872cD7Dc3E7eA18242D815B85bF972df29b7;\r\n        address temp7 = 0x29903d7E00703607844FCb5D1492B0AFC016E9bf;\r\n        address temp8 = 0x8c7Fe6BdEa2e1a76C80dCB75BC0086f96dF550c2;\r\n        address temp9 = 0x3f53E1a5c3c56bBd23d97890A28f9ce1c05ee563;\r\n        address temp10 = 0x23cCEB31284c9b13361dfE36447Ece97e38Cc887;\r\n\r\n        mvcToken.transfer(contractAddress,temp1,1);\r\n        mvcToken.transfer(contractAddress,temp2,6);\r\n        mvcToken.transfer(contractAddress,temp3,3);\r\n        mvcToken.transfer(contractAddress,temp4,2);\r\n        mvcToken.transfer(contractAddress,temp5,2);\r\n        mvcToken.transfer(contractAddress,temp6,1);\r\n        mvcToken.transfer(contractAddress,temp7,1);\r\n        mvcToken.transfer(contractAddress,temp8,1);\r\n        mvcToken.transfer(contractAddress,temp9,1);\r\n        mvcToken.transfer(contractAddress,temp10,1);\r\n\r\n        skolFaithfulInstance.mvcReward(temp1,1);\r\n        skolFaithfulInstance.mvcReward(temp2,6);\r\n        skolFaithfulInstance.mvcReward(temp3,3);\r\n        skolFaithfulInstance.mvcReward(temp4,2);\r\n        skolFaithfulInstance.mvcReward(temp5,2);\r\n        skolFaithfulInstance.mvcReward(temp6,1);\r\n        skolFaithfulInstance.mvcReward(temp7,1);\r\n        skolFaithfulInstance.mvcReward(temp8,1);\r\n        skolFaithfulInstance.mvcReward(temp9,1);\r\n        skolFaithfulInstance.mvcReward(temp10,1);\r\n\r\n        skolFaithfulInstance.repReward(temp1,1);\r\n        skolFaithfulInstance.repReward(temp2,5);\r\n        skolFaithfulInstance.repReward(temp3,5);\r\n        skolFaithfulInstance.repReward(temp4,4);\r\n        skolFaithfulInstance.repReward(temp5,4);\r\n        skolFaithfulInstance.repReward(temp6,1);\r\n        skolFaithfulInstance.repReward(temp7,1);\r\n        skolFaithfulInstance.repReward(temp8,1);\r\n        skolFaithfulInstance.repReward(temp9,1);\r\n\r\n        for (uint i=0;i<21;i++){\r\n            totalVotes--;\r\n        }\r\n    }\r\n}",
  "sourcePath": "C:\\Users\\cooki\\OneDrive\\Documents\\Metro State Stuff\\690-Blockchain\\ics690-vikings-dapp\\contracts\\Election2.sol",
  "compiler": {
    "name": "solc",
    "version": "0.8.19+commit.7dd6d404.Emscripten.clang"
  },
  "schemaVersion": "3.4.16",
  "updatedAt": "2024-04-10T08:28:20.882Z",
  "networkType": "ethereum",
  "devdoc": {
    "kind": "dev",
    "methods": {},
    "version": 1
  },
  "userdoc": {
    "kind": "user",
    "methods": {},
    "version": 1
  }
}