{
  "contractName": "Election2",
  "abi": [
    {
      "inputs": [
        {
          "internalType": "address",
          "name": "mvcTokenAddress",
          "type": "address"
        },
        {
          "internalType": "address",
          "name": "skolFaithfulAddress",
          "type": "address"
        }
      ],
      "stateMutability": "nonpayable",
      "type": "constructor"
    },
    {
      "anonymous": false,
      "inputs": [
        {
          "indexed": true,
          "internalType": "uint256",
          "name": "_candidateId",
          "type": "uint256"
        }
      ],
      "name": "votedEvent",
      "type": "event"
    },
    {
      "inputs": [
        {
          "internalType": "uint256",
          "name": "",
          "type": "uint256"
        }
      ],
      "name": "candidates",
      "outputs": [
        {
          "internalType": "uint256",
          "name": "id",
          "type": "uint256"
        },
        {
          "internalType": "string",
          "name": "name",
          "type": "string"
        },
        {
          "internalType": "uint256",
          "name": "voteCount",
          "type": "uint256"
        },
        {
          "internalType": "address",
          "name": "ownerAddress",
          "type": "address"
        }
      ],
      "stateMutability": "view",
      "type": "function",
      "constant": true
    },
    {
      "inputs": [],
      "name": "candidatesCount",
      "outputs": [
        {
          "internalType": "uint256",
          "name": "",
          "type": "uint256"
        }
      ],
      "stateMutability": "view",
      "type": "function",
      "constant": true
    },
    {
      "inputs": [],
      "name": "contractAddress",
      "outputs": [
        {
          "internalType": "address",
          "name": "",
          "type": "address"
        }
      ],
      "stateMutability": "view",
      "type": "function",
      "constant": true
    },
    {
      "inputs": [],
      "name": "mvcToken",
      "outputs": [
        {
          "internalType": "contract MVCToken",
          "name": "",
          "type": "address"
        }
      ],
      "stateMutability": "view",
      "type": "function",
      "constant": true
    },
    {
      "inputs": [],
      "name": "skolFaithfulInstance",
      "outputs": [
        {
          "internalType": "contract SkolFaithful",
          "name": "",
          "type": "address"
        }
      ],
      "stateMutability": "view",
      "type": "function",
      "constant": true
    },
    {
      "inputs": [],
      "name": "totalMVCs",
      "outputs": [
        {
          "internalType": "uint256",
          "name": "",
          "type": "uint256"
        }
      ],
      "stateMutability": "view",
      "type": "function",
      "constant": true
    },
    {
      "inputs": [],
      "name": "totalVotes",
      "outputs": [
        {
          "internalType": "uint256",
          "name": "",
          "type": "uint256"
        }
      ],
      "stateMutability": "view",
      "type": "function",
      "constant": true
    },
    {
      "inputs": [
        {
          "internalType": "address",
          "name": "",
          "type": "address"
        }
      ],
      "name": "voters",
      "outputs": [
        {
          "internalType": "bool",
          "name": "",
          "type": "bool"
        }
      ],
      "stateMutability": "view",
      "type": "function",
      "constant": true
    },
    {
      "inputs": [],
      "name": "getContractMVCs",
      "outputs": [
        {
          "internalType": "uint256",
          "name": "",
          "type": "uint256"
        }
      ],
      "stateMutability": "view",
      "type": "function",
      "constant": true
    },
    {
      "inputs": [
        {
          "internalType": "uint256",
          "name": "_candidateId",
          "type": "uint256"
        }
      ],
      "name": "vote",
      "outputs": [],
      "stateMutability": "nonpayable",
      "type": "function"
    }
  ],
  "bytecode": "0x608060405273feb798ed0e1ec865bf80703ca1e1bb7a48ddeafa600860006101000a81548173ffffffffffffffffffffffffffffffffffffffff021916908373ffffffffffffffffffffffffffffffffffffffff1602179055507348f84a00f895be17bd4fa9e0731c7b39eacd6fbe600960006101000a81548173ffffffffffffffffffffffffffffffffffffffff021916908373ffffffffffffffffffffffffffffffffffffffff16021790555073cf16fe704d4b01ecdd98a41af04b92008d2a32cc600a60006101000a81548173ffffffffffffffffffffffffffffffffffffffff021916908373ffffffffffffffffffffffffffffffffffffffff16021790555073709e646fc789ec4b3d093c8871f66640e9c60616600b60006101000a81548173ffffffffffffffffffffffffffffffffffffffff021916908373ffffffffffffffffffffffffffffffffffffffff1602179055507222872cd7dc3e7ea18242d815b85bf972df29b7600c60006101000a81548173ffffffffffffffffffffffffffffffffffffffff021916908373ffffffffffffffffffffffffffffffffffffffff1602179055507329903d7e00703607844fcb5d1492b0afc016e9bf600d60006101000a81548173ffffffffffffffffffffffffffffffffffffffff021916908373ffffffffffffffffffffffffffffffffffffffff160217905550738c7fe6bdea2e1a76c80dcb75bc0086f96df550c2600e60006101000a81548173ffffffffffffffffffffffffffffffffffffffff021916908373ffffffffffffffffffffffffffffffffffffffff160217905550733f53e1a5c3c56bbd23d97890a28f9ce1c05ee563600f60006101000a81548173ffffffffffffffffffffffffffffffffffffffff021916908373ffffffffffffffffffffffffffffffffffffffff1602179055507323cceb31284c9b13361dfe36447ece97e38cc887601060006101000a81548173ffffffffffffffffffffffffffffffffffffffff021916908373ffffffffffffffffffffffffffffffffffffffff1602179055503480156200030d57600080fd5b50604051620032c2380380620032c2833981810160405281019062000333919062000bc3565b816000806101000a81548173ffffffffffffffffffffffffffffffffffffffff021916908373ffffffffffffffffffffffffffffffffffffffff16021790555080600160006101000a81548173ffffffffffffffffffffffffffffffffffffffff021916908373ffffffffffffffffffffffffffffffffffffffff16021790555030600760006101000a81548173ffffffffffffffffffffffffffffffffffffffff021916908373ffffffffffffffffffffffffffffffffffffffff1602179055506200045e6040518060400160405280600e81526020017f42696c6c2042656c69636869636b000000000000000000000000000000000000815250600860009054906101000a900473ffffffffffffffffffffffffffffffffffffffff16620006aa60201b60201c565b620004c76040518060400160405280600b81526020017f4d696b652056726162656c000000000000000000000000000000000000000000815250600960009054906101000a900473ffffffffffffffffffffffffffffffffffffffff16620006aa60201b60201c565b620005306040518060400160405280600e81526020017f4272616e646f6e205374616c6579000000000000000000000000000000000000815250600a60009054906101000a900473ffffffffffffffffffffffffffffffffffffffff16620006aa60201b60201c565b620005996040518060400160405280600b81526020017f4672616e6b205265696368000000000000000000000000000000000000000000815250600b60009054906101000a900473ffffffffffffffffffffffffffffffffffffffff16620006aa60201b60201c565b620005ce600c60009054906101000a900473ffffffffffffffffffffffffffffffffffffffff1660016200096560201b60201c565b62000603600d60009054906101000a900473ffffffffffffffffffffffffffffffffffffffff1660016200096560201b60201c565b62000638600e60009054906101000a900473ffffffffffffffffffffffffffffffffffffffff1660026200096560201b60201c565b6200066d600f60009054906101000a900473ffffffffffffffffffffffffffffffffffffffff1660026200096560201b60201c565b620006a2601060009054906101000a900473ffffffffffffffffffffffffffffffffffffffff1660036200096560201b60201c565b50506200118d565b60046000815480929190620006bf9062000c43565b919050555060405180608001604052806004548152602001838152602001600181526020018273ffffffffffffffffffffffffffffffffffffffff1681525060036000600454815260200190815260200160002060008201518160000155602082015181600101908162000734919062000f00565b506040820151816002015560608201518160030160006101000a81548173ffffffffffffffffffffffffffffffffffffffff021916908373ffffffffffffffffffffffffffffffffffffffff1602179055509050506001600260008373ffffffffffffffffffffffffffffffffffffffff1673ffffffffffffffffffffffffffffffffffffffff16815260200190815260200160002060006101000a81548160ff021916908315150217905550600460066000828254620007f6919062000fe7565b9250508190555060056000815480929190620008129062000c43565b919050555060008054906101000a900473ffffffffffffffffffffffffffffffffffffffff1673ffffffffffffffffffffffffffffffffffffffff1663beabacc882600760009054906101000a900473ffffffffffffffffffffffffffffffffffffffff1660046040518463ffffffff1660e01b8152600401620008999392919062001076565b600060405180830381600087803b158015620008b457600080fd5b505af1158015620008c9573d6000803e3d6000fd5b50505050600160009054906101000a900473ffffffffffffffffffffffffffffffffffffffff1673ffffffffffffffffffffffffffffffffffffffff166359eda6b88260046040518363ffffffff1660e01b81526004016200092d929190620010b3565b600060405180830381600087803b1580156200094857600080fd5b505af11580156200095d573d6000803e3d6000fd5b505050505050565b6001600260008473ffffffffffffffffffffffffffffffffffffffff1673ffffffffffffffffffffffffffffffffffffffff16815260200190815260200160002060006101000a81548160ff0219169083151502179055506000600360008381526020019081526020016000209050806002016000815480929190620009eb9062000c43565b91905055506005600081548092919062000a059062000c43565b919050555060008054906101000a900473ffffffffffffffffffffffffffffffffffffffff1673ffffffffffffffffffffffffffffffffffffffff1663beabacc884600760009054906101000a900473ffffffffffffffffffffffffffffffffffffffff1660026040518463ffffffff1660e01b815260040162000a8c9392919062001123565b600060405180830381600087803b15801562000aa757600080fd5b505af115801562000abc573d6000803e3d6000fd5b50505050600160009054906101000a900473ffffffffffffffffffffffffffffffffffffffff1673ffffffffffffffffffffffffffffffffffffffff166359eda6b88460026040518363ffffffff1660e01b815260040162000b2092919062001160565b600060405180830381600087803b15801562000b3b57600080fd5b505af115801562000b50573d6000803e3d6000fd5b50505050505050565b600080fd5b600073ffffffffffffffffffffffffffffffffffffffff82169050919050565b600062000b8b8262000b5e565b9050919050565b62000b9d8162000b7e565b811462000ba957600080fd5b50565b60008151905062000bbd8162000b92565b92915050565b6000806040838503121562000bdd5762000bdc62000b59565b5b600062000bed8582860162000bac565b925050602062000c008582860162000bac565b9150509250929050565b7f4e487b7100000000000000000000000000000000000000000000000000000000600052601160045260246000fd5b6000819050919050565b600062000c508262000c39565b91507fffffffffffffffffffffffffffffffffffffffffffffffffffffffffffffffff820362000c855762000c8462000c0a565b5b600182019050919050565b600081519050919050565b7f4e487b7100000000000000000000000000000000000000000000000000000000600052604160045260246000fd5b7f4e487b7100000000000000000000000000000000000000000000000000000000600052602260045260246000fd5b6000600282049050600182168062000d1257607f821691505b60208210810362000d285762000d2762000cca565b5b50919050565b60008190508160005260206000209050919050565b60006020601f8301049050919050565b600082821b905092915050565b60006008830262000d927fffffffffffffffffffffffffffffffffffffffffffffffffffffffffffffffff8262000d53565b62000d9e868362000d53565b95508019841693508086168417925050509392505050565b6000819050919050565b600062000de162000ddb62000dd58462000c39565b62000db6565b62000c39565b9050919050565b6000819050919050565b62000dfd8362000dc0565b62000e1562000e0c8262000de8565b84845462000d60565b825550505050565b600090565b62000e2c62000e1d565b62000e3981848462000df2565b505050565b5b8181101562000e615762000e5560008262000e22565b60018101905062000e3f565b5050565b601f82111562000eb05762000e7a8162000d2e565b62000e858462000d43565b8101602085101562000e95578190505b62000ead62000ea48562000d43565b83018262000e3e565b50505b505050565b600082821c905092915050565b600062000ed56000198460080262000eb5565b1980831691505092915050565b600062000ef0838362000ec2565b9150826002028217905092915050565b62000f0b8262000c90565b67ffffffffffffffff81111562000f275762000f2662000c9b565b5b62000f33825462000cf9565b62000f4082828562000e65565b600060209050601f83116001811462000f78576000841562000f63578287015190505b62000f6f858262000ee2565b86555062000fdf565b601f19841662000f888662000d2e565b60005b8281101562000fb25784890151825560018201915060208501945060208101905062000f8b565b8683101562000fd2578489015162000fce601f89168262000ec2565b8355505b6001600288020188555050505b505050505050565b600062000ff48262000c39565b9150620010018362000c39565b92508282019050808211156200101c576200101b62000c0a565b5b92915050565b6200102d8162000b7e565b82525050565b6000819050919050565b60006200105e62001058620010528462001033565b62000db6565b62000c39565b9050919050565b62001070816200103d565b82525050565b60006060820190506200108d600083018662001022565b6200109c602083018562001022565b620010ab604083018462001065565b949350505050565b6000604082019050620010ca600083018562001022565b620010d9602083018462001065565b9392505050565b6000819050919050565b60006200110b62001105620010ff84620010e0565b62000db6565b62000c39565b9050919050565b6200111d81620010ea565b82525050565b60006060820190506200113a600083018662001022565b62001149602083018562001022565b62001158604083018462001112565b949350505050565b600060408201905062001177600083018562001022565b62001186602083018462001112565b9392505050565b612125806200119d6000396000f3fe608060405234801561001057600080fd5b506004361061009e5760003560e01c8063600e985011610066578063600e98501461014c578063a3ec138d1461016a578063d65aadc61461019a578063f6b4dfb4146101b8578063fe3278f8146101d65761009e565b80630121b93f146100a35780630d15fd77146100bf5780632d35a8a2146100dd57806332bd06f8146100fb5780633477ee2e14610119575b600080fd5b6100bd60048036038101906100b89190611980565b6101f4565b005b6100c7611707565b6040516100d491906119bc565b60405180910390f35b6100e561170d565b6040516100f291906119bc565b60405180910390f35b610103611713565b60405161011091906119bc565b60405180910390f35b610133600480360381019061012e9190611980565b611719565b6040516101439493929190611aa8565b60405180910390f35b6101546117f1565b6040516101619190611b53565b60405180910390f35b610184600480360381019061017f9190611b9a565b611815565b6040516101919190611be2565b60405180910390f35b6101a2611835565b6040516101af9190611c1e565b60405180910390f35b6101c061185b565b6040516101cd9190611c39565b60405180910390f35b6101de611881565b6040516101eb91906119bc565b60405180910390f35b600260003373ffffffffffffffffffffffffffffffffffffffff1673ffffffffffffffffffffffffffffffffffffffff16815260200190815260200160002060009054906101000a900460ff161561024b57600080fd5b60008111801561025d57506004548111155b61026657600080fd5b600260008054906101000a900473ffffffffffffffffffffffffffffffffffffffff1673ffffffffffffffffffffffffffffffffffffffff1663d1e0ea45336040518263ffffffff1660e01b81526004016102c19190611c39565b602060405180830381865afa1580156102de573d6000803e3d6000fd5b505050506040513d601f19601f820116820180604052508101906103029190611c69565b1015610343576040517f08c379a000000000000000000000000000000000000000000000000000000000815260040161033a90611ce2565b60405180910390fd5b60008054906101000a900473ffffffffffffffffffffffffffffffffffffffff1673ffffffffffffffffffffffffffffffffffffffff1663beabacc833600760009054906101000a900473ffffffffffffffffffffffffffffffffffffffff1660026040518463ffffffff1660e01b81526004016103c393929190611d3d565b600060405180830381600087803b1580156103dd57600080fd5b505af11580156103f1573d6000803e3d6000fd5b50505050600160009054906101000a900473ffffffffffffffffffffffffffffffffffffffff1673ffffffffffffffffffffffffffffffffffffffff166359eda6b83360026040518363ffffffff1660e01b8152600401610453929190611d74565b600060405180830381600087803b15801561046d57600080fd5b505af1158015610481573d6000803e3d6000fd5b505050506002600660008282546104989190611dcc565b92505081905550600560008154809291906104b290611e00565b91905055506001600260003373ffffffffffffffffffffffffffffffffffffffff1673ffffffffffffffffffffffffffffffffffffffff16815260200190815260200160002060006101000a81548160ff021916908315150217905550600060036000838152602001908152602001600020905080600201600081548092919061053b90611e00565b919050555060008054906101000a900473ffffffffffffffffffffffffffffffffffffffff1673ffffffffffffffffffffffffffffffffffffffff1663beabacc8600760009054906101000a900473ffffffffffffffffffffffffffffffffffffffff163360016040518463ffffffff1660e01b81526004016105c093929190611e83565b600060405180830381600087803b1580156105da57600080fd5b505af11580156105ee573d6000803e3d6000fd5b5050505060008054906101000a900473ffffffffffffffffffffffffffffffffffffffff1673ffffffffffffffffffffffffffffffffffffffff1663beabacc8600760009054906101000a900473ffffffffffffffffffffffffffffffffffffffff16600860009054906101000a900473ffffffffffffffffffffffffffffffffffffffff1660016040518463ffffffff1660e01b815260040161069493929190611e83565b600060405180830381600087803b1580156106ae57600080fd5b505af11580156106c2573d6000803e3d6000fd5b5050505060008054906101000a900473ffffffffffffffffffffffffffffffffffffffff1673ffffffffffffffffffffffffffffffffffffffff1663beabacc8600760009054906101000a900473ffffffffffffffffffffffffffffffffffffffff16600960009054906101000a900473ffffffffffffffffffffffffffffffffffffffff1660016040518463ffffffff1660e01b815260040161076893929190611e83565b600060405180830381600087803b15801561078257600080fd5b505af1158015610796573d6000803e3d6000fd5b5050505060008054906101000a900473ffffffffffffffffffffffffffffffffffffffff1673ffffffffffffffffffffffffffffffffffffffff1663beabacc8600760009054906101000a900473ffffffffffffffffffffffffffffffffffffffff16600a60009054906101000a900473ffffffffffffffffffffffffffffffffffffffff1660016040518463ffffffff1660e01b815260040161083c93929190611e83565b600060405180830381600087803b15801561085657600080fd5b505af115801561086a573d6000803e3d6000fd5b5050505060008054906101000a900473ffffffffffffffffffffffffffffffffffffffff1673ffffffffffffffffffffffffffffffffffffffff1663beabacc8600760009054906101000a900473ffffffffffffffffffffffffffffffffffffffff16600b60009054906101000a900473ffffffffffffffffffffffffffffffffffffffff1660016040518463ffffffff1660e01b815260040161091093929190611e83565b600060405180830381600087803b15801561092a57600080fd5b505af115801561093e573d6000803e3d6000fd5b5050505060008054906101000a900473ffffffffffffffffffffffffffffffffffffffff1673ffffffffffffffffffffffffffffffffffffffff1663beabacc8600760009054906101000a900473ffffffffffffffffffffffffffffffffffffffff16600c60009054906101000a900473ffffffffffffffffffffffffffffffffffffffff1660016040518463ffffffff1660e01b81526004016109e493929190611e83565b600060405180830381600087803b1580156109fe57600080fd5b505af1158015610a12573d6000803e3d6000fd5b5050505060008054906101000a900473ffffffffffffffffffffffffffffffffffffffff1673ffffffffffffffffffffffffffffffffffffffff1663beabacc8600760009054906101000a900473ffffffffffffffffffffffffffffffffffffffff16600d60009054906101000a900473ffffffffffffffffffffffffffffffffffffffff1660016040518463ffffffff1660e01b8152600401610ab893929190611e83565b600060405180830381600087803b158015610ad257600080fd5b505af1158015610ae6573d6000803e3d6000fd5b5050505060008054906101000a900473ffffffffffffffffffffffffffffffffffffffff1673ffffffffffffffffffffffffffffffffffffffff1663beabacc8600760009054906101000a900473ffffffffffffffffffffffffffffffffffffffff16600e60009054906101000a900473ffffffffffffffffffffffffffffffffffffffff1660016040518463ffffffff1660e01b8152600401610b8c93929190611e83565b600060405180830381600087803b158015610ba657600080fd5b505af1158015610bba573d6000803e3d6000fd5b5050505060008054906101000a900473ffffffffffffffffffffffffffffffffffffffff1673ffffffffffffffffffffffffffffffffffffffff1663beabacc8600760009054906101000a900473ffffffffffffffffffffffffffffffffffffffff16600f60009054906101000a900473ffffffffffffffffffffffffffffffffffffffff1660016040518463ffffffff1660e01b8152600401610c6093929190611e83565b600060405180830381600087803b158015610c7a57600080fd5b505af1158015610c8e573d6000803e3d6000fd5b5050505060008054906101000a900473ffffffffffffffffffffffffffffffffffffffff1673ffffffffffffffffffffffffffffffffffffffff1663beabacc8600760009054906101000a900473ffffffffffffffffffffffffffffffffffffffff16601060009054906101000a900473ffffffffffffffffffffffffffffffffffffffff1660016040518463ffffffff1660e01b8152600401610d3493929190611e83565b600060405180830381600087803b158015610d4e57600080fd5b505af1158015610d62573d6000803e3d6000fd5b5050505060008054906101000a900473ffffffffffffffffffffffffffffffffffffffff1673ffffffffffffffffffffffffffffffffffffffff1663beabacc8600760009054906101000a900473ffffffffffffffffffffffffffffffffffffffff16600860009054906101000a900473ffffffffffffffffffffffffffffffffffffffff1660066040518463ffffffff1660e01b8152600401610e0893929190611ef5565b600060405180830381600087803b158015610e2257600080fd5b505af1158015610e36573d6000803e3d6000fd5b5050505060008054906101000a900473ffffffffffffffffffffffffffffffffffffffff1673ffffffffffffffffffffffffffffffffffffffff1663beabacc8600760009054906101000a900473ffffffffffffffffffffffffffffffffffffffff16600960009054906101000a900473ffffffffffffffffffffffffffffffffffffffff1660036040518463ffffffff1660e01b8152600401610edc93929190611f67565b600060405180830381600087803b158015610ef657600080fd5b505af1158015610f0a573d6000803e3d6000fd5b5050505060008054906101000a900473ffffffffffffffffffffffffffffffffffffffff1673ffffffffffffffffffffffffffffffffffffffff1663beabacc8600760009054906101000a900473ffffffffffffffffffffffffffffffffffffffff16600a60009054906101000a900473ffffffffffffffffffffffffffffffffffffffff1660026040518463ffffffff1660e01b8152600401610fb093929190611d3d565b600060405180830381600087803b158015610fca57600080fd5b505af1158015610fde573d6000803e3d6000fd5b5050505060008054906101000a900473ffffffffffffffffffffffffffffffffffffffff1673ffffffffffffffffffffffffffffffffffffffff1663beabacc8600760009054906101000a900473ffffffffffffffffffffffffffffffffffffffff16600b60009054906101000a900473ffffffffffffffffffffffffffffffffffffffff1660026040518463ffffffff1660e01b815260040161108493929190611d3d565b600060405180830381600087803b15801561109e57600080fd5b505af11580156110b2573d6000803e3d6000fd5b50505050600160009054906101000a900473ffffffffffffffffffffffffffffffffffffffff1673ffffffffffffffffffffffffffffffffffffffff16632e12728b3360016040518363ffffffff1660e01b8152600401611114929190611f9e565b600060405180830381600087803b15801561112e57600080fd5b505af1158015611142573d6000803e3d6000fd5b50505050600160009054906101000a900473ffffffffffffffffffffffffffffffffffffffff1673ffffffffffffffffffffffffffffffffffffffff16632e12728b600860009054906101000a900473ffffffffffffffffffffffffffffffffffffffff1660056040518363ffffffff1660e01b81526004016111c6929190612002565b600060405180830381600087803b1580156111e057600080fd5b505af11580156111f4573d6000803e3d6000fd5b50505050600160009054906101000a900473ffffffffffffffffffffffffffffffffffffffff1673ffffffffffffffffffffffffffffffffffffffff16632e12728b600960009054906101000a900473ffffffffffffffffffffffffffffffffffffffff1660056040518363ffffffff1660e01b8152600401611278929190612002565b600060405180830381600087803b15801561129257600080fd5b505af11580156112a6573d6000803e3d6000fd5b50505050600160009054906101000a900473ffffffffffffffffffffffffffffffffffffffff1673ffffffffffffffffffffffffffffffffffffffff16632e12728b600a60009054906101000a900473ffffffffffffffffffffffffffffffffffffffff1660046040518363ffffffff1660e01b815260040161132a929190612066565b600060405180830381600087803b15801561134457600080fd5b505af1158015611358573d6000803e3d6000fd5b50505050600160009054906101000a900473ffffffffffffffffffffffffffffffffffffffff1673ffffffffffffffffffffffffffffffffffffffff16632e12728b600b60009054906101000a900473ffffffffffffffffffffffffffffffffffffffff1660046040518363ffffffff1660e01b81526004016113dc929190612066565b600060405180830381600087803b1580156113f657600080fd5b505af115801561140a573d6000803e3d6000fd5b50505050600160009054906101000a900473ffffffffffffffffffffffffffffffffffffffff1673ffffffffffffffffffffffffffffffffffffffff16632e12728b600c60009054906101000a900473ffffffffffffffffffffffffffffffffffffffff1660016040518363ffffffff1660e01b815260040161148e929190611f9e565b600060405180830381600087803b1580156114a857600080fd5b505af11580156114bc573d6000803e3d6000fd5b50505050600160009054906101000a900473ffffffffffffffffffffffffffffffffffffffff1673ffffffffffffffffffffffffffffffffffffffff16632e12728b600d60009054906101000a900473ffffffffffffffffffffffffffffffffffffffff1660016040518363ffffffff1660e01b8152600401611540929190611f9e565b600060405180830381600087803b15801561155a57600080fd5b505af115801561156e573d6000803e3d6000fd5b50505050600160009054906101000a900473ffffffffffffffffffffffffffffffffffffffff1673ffffffffffffffffffffffffffffffffffffffff16632e12728b600e60009054906101000a900473ffffffffffffffffffffffffffffffffffffffff1660016040518363ffffffff1660e01b81526004016115f2929190611f9e565b600060405180830381600087803b15801561160c57600080fd5b505af1158015611620573d6000803e3d6000fd5b50505050600160009054906101000a900473ffffffffffffffffffffffffffffffffffffffff1673ffffffffffffffffffffffffffffffffffffffff16632e12728b600f60009054906101000a900473ffffffffffffffffffffffffffffffffffffffff1660016040518363ffffffff1660e01b81526004016116a4929190611f9e565b600060405180830381600087803b1580156116be57600080fd5b505af11580156116d2573d6000803e3d6000fd5b50505050817ffff3c900d938d21d0990d786e819f29b8d05c1ef587b462b939609625b684b1660405160405180910390a25050565b60055481565b60045481565b60065481565b6003602052806000526040600020600091509050806000015490806001018054611742906120be565b80601f016020809104026020016040519081016040528092919081815260200182805461176e906120be565b80156117bb5780601f10611790576101008083540402835291602001916117bb565b820191906000526020600020905b81548152906001019060200180831161179e57829003601f168201915b5050505050908060020154908060030160009054906101000a900473ffffffffffffffffffffffffffffffffffffffff16905084565b60008054906101000a900473ffffffffffffffffffffffffffffffffffffffff1681565b60026020528060005260406000206000915054906101000a900460ff1681565b600160009054906101000a900473ffffffffffffffffffffffffffffffffffffffff1681565b600760009054906101000a900473ffffffffffffffffffffffffffffffffffffffff1681565b60008060009054906101000a900473ffffffffffffffffffffffffffffffffffffffff1673ffffffffffffffffffffffffffffffffffffffff1663d1e0ea45600760009054906101000a900473ffffffffffffffffffffffffffffffffffffffff166040518263ffffffff1660e01b81526004016118ff9190611c39565b602060405180830381865afa15801561191c573d6000803e3d6000fd5b505050506040513d601f19601f820116820180604052508101906119409190611c69565b905090565b600080fd5b6000819050919050565b61195d8161194a565b811461196857600080fd5b50565b60008135905061197a81611954565b92915050565b60006020828403121561199657611995611945565b5b60006119a48482850161196b565b91505092915050565b6119b68161194a565b82525050565b60006020820190506119d160008301846119ad565b92915050565b600081519050919050565b600082825260208201905092915050565b60005b83811015611a115780820151818401526020810190506119f6565b60008484015250505050565b6000601f19601f8301169050919050565b6000611a39826119d7565b611a4381856119e2565b9350611a538185602086016119f3565b611a5c81611a1d565b840191505092915050565b600073ffffffffffffffffffffffffffffffffffffffff82169050919050565b6000611a9282611a67565b9050919050565b611aa281611a87565b82525050565b6000608082019050611abd60008301876119ad565b8181036020830152611acf8186611a2e565b9050611ade60408301856119ad565b611aeb6060830184611a99565b95945050505050565b6000819050919050565b6000611b19611b14611b0f84611a67565b611af4565b611a67565b9050919050565b6000611b2b82611afe565b9050919050565b6000611b3d82611b20565b9050919050565b611b4d81611b32565b82525050565b6000602082019050611b686000830184611b44565b92915050565b611b7781611a87565b8114611b8257600080fd5b50565b600081359050611b9481611b6e565b92915050565b600060208284031215611bb057611baf611945565b5b6000611bbe84828501611b85565b91505092915050565b60008115159050919050565b611bdc81611bc7565b82525050565b6000602082019050611bf76000830184611bd3565b92915050565b6000611c0882611b20565b9050919050565b611c1881611bfd565b82525050565b6000602082019050611c336000830184611c0f565b92915050565b6000602082019050611c4e6000830184611a99565b92915050565b600081519050611c6381611954565b92915050565b600060208284031215611c7f57611c7e611945565b5b6000611c8d84828501611c54565b91505092915050565b7f496e73756666696369656e74204d564320746f6b656e7320746f20766f746500600082015250565b6000611ccc601f836119e2565b9150611cd782611c96565b602082019050919050565b60006020820190508181036000830152611cfb81611cbf565b9050919050565b6000819050919050565b6000611d27611d22611d1d84611d02565b611af4565b61194a565b9050919050565b611d3781611d0c565b82525050565b6000606082019050611d526000830186611a99565b611d5f6020830185611a99565b611d6c6040830184611d2e565b949350505050565b6000604082019050611d896000830185611a99565b611d966020830184611d2e565b9392505050565b7f4e487b7100000000000000000000000000000000000000000000000000000000600052601160045260246000fd5b6000611dd78261194a565b9150611de28361194a565b9250828201905080821115611dfa57611df9611d9d565b5b92915050565b6000611e0b8261194a565b91507fffffffffffffffffffffffffffffffffffffffffffffffffffffffffffffffff8203611e3d57611e3c611d9d565b5b600182019050919050565b6000819050919050565b6000611e6d611e68611e6384611e48565b611af4565b61194a565b9050919050565b611e7d81611e52565b82525050565b6000606082019050611e986000830186611a99565b611ea56020830185611a99565b611eb26040830184611e74565b949350505050565b6000819050919050565b6000611edf611eda611ed584611eba565b611af4565b61194a565b9050919050565b611eef81611ec4565b82525050565b6000606082019050611f0a6000830186611a99565b611f176020830185611a99565b611f246040830184611ee6565b949350505050565b6000819050919050565b6000611f51611f4c611f4784611f2c565b611af4565b61194a565b9050919050565b611f6181611f36565b82525050565b6000606082019050611f7c6000830186611a99565b611f896020830185611a99565b611f966040830184611f58565b949350505050565b6000604082019050611fb36000830185611a99565b611fc06020830184611e74565b9392505050565b6000819050919050565b6000611fec611fe7611fe284611fc7565b611af4565b61194a565b9050919050565b611ffc81611fd1565b82525050565b60006040820190506120176000830185611a99565b6120246020830184611ff3565b9392505050565b6000819050919050565b600061205061204b6120468461202b565b611af4565b61194a565b9050919050565b61206081612035565b82525050565b600060408201905061207b6000830185611a99565b6120886020830184612057565b9392505050565b7f4e487b7100000000000000000000000000000000000000000000000000000000600052602260045260246000fd5b600060028204905060018216806120d657607f821691505b6020821081036120e9576120e861208f565b5b5091905056fea2646970667358221220c67b70f0d878e91c94bd2612b86bc3990d6419b1f3ae43e5953afcf57d9e5b4864736f6c63430008130033",
  "immutableReferences": {},
  "source": "// SPDX-License-Identifier: MIT\r\npragma solidity ^0.8.19;\r\n\r\nimport \"./MVCToken.sol\" as MVCTokenContract;\r\nimport \"./SkolFaithful.sol\" as SkolFaithfulContract;\r\n\r\ncontract Election2 {\r\n    // Model a Candidate\r\n    struct Candidate {\r\n        uint id;\r\n        string name;\r\n        uint voteCount;\r\n        address ownerAddress;\r\n    }\r\n\r\n    MVCTokenContract.MVCToken public mvcToken;\r\n    SkolFaithfulContract.SkolFaithful public skolFaithfulInstance;\r\n\r\n    // Store accounts that have voted\r\n    mapping(address => bool) public voters;\r\n    // Store Candidates\r\n    // Fetch Candidate\r\n    mapping(uint => Candidate) public candidates;\r\n\r\n    // Store Candidates Count\r\n    uint public candidatesCount;\r\n    uint public totalVotes;\r\n    uint public totalMVCs;\r\n\r\n    // voted event\r\n    event votedEvent (\r\n        uint indexed _candidateId\r\n    );\r\n\r\n    address public contractAddress;\r\n    function getContractMVCs() public view returns (uint256) {\r\n        return mvcToken.mvcBalance(contractAddress);\r\n    }\r\n\r\n    address temp2 = 0xFeb798ed0E1eC865Bf80703cA1E1Bb7a48DdEAfa;\r\n    address temp3 = 0x48f84a00F895be17BD4Fa9e0731c7b39eAcd6FBe;\r\n    address temp4 = 0xCF16fe704d4b01ecDD98A41af04B92008D2a32CC;\r\n    address temp5 = 0x709E646fc789ec4b3D093C8871f66640E9c60616;\r\n    address temp6 = 0x0022872cD7Dc3E7eA18242D815B85bF972df29b7;\r\n    address temp7 = 0x29903d7E00703607844FCb5D1492B0AFC016E9bf;\r\n    address temp8 = 0x8c7Fe6BdEa2e1a76C80dCB75BC0086f96dF550c2;\r\n    address temp9 = 0x3f53E1a5c3c56bBd23d97890A28f9ce1c05ee563;\r\n    address temp10 = 0x23cCEB31284c9b13361dfE36447Ece97e38Cc887;\r\n\r\n    constructor (address mvcTokenAddress, address skolFaithfulAddress) {\r\n        mvcToken = MVCTokenContract.MVCToken(mvcTokenAddress);\r\n        skolFaithfulInstance = SkolFaithfulContract.SkolFaithful(skolFaithfulAddress);\r\n        contractAddress = address(this);\r\n\r\n        addCandidate(\"Bill Belichick\", temp2); // id: 1\r\n        addCandidate(\"Mike Vrabel\", temp3); // id: 2\r\n        addCandidate(\"Brandon Staley\", temp4); // id: 3\r\n        addCandidate(\"Frank Reich\", temp5); // id: 4\r\n\r\n        mockVote(temp6, 1);\r\n        mockVote(temp7, 1);\r\n        mockVote(temp8, 2);\r\n        mockVote(temp9, 2);\r\n        mockVote(temp10, 3);\r\n    }\r\n\r\n    function mockVote(address voterAddress, uint candidateId) private {\r\n        voters[voterAddress] = true;\r\n        Candidate storage candidate = candidates[candidateId];\r\n        candidate.voteCount++;\r\n        totalVotes++;\r\n\r\n        mvcToken.transfer(voterAddress,contractAddress,2);\r\n        skolFaithfulInstance.mvcTransaction(voterAddress,2);\r\n    }\r\n\r\n    function addCandidate (string memory _name, address owner) private {\r\n        candidatesCount ++;\r\n\r\n        candidates[candidatesCount] = Candidate(candidatesCount, _name, 1, owner);\r\n\r\n        voters[owner] = true;\r\n        totalMVCs += 4;\r\n        totalVotes++;\r\n\r\n        mvcToken.transfer(owner,contractAddress,4);\r\n        skolFaithfulInstance.mvcTransaction(owner,4);\r\n    }\r\n\r\n    function vote (uint _candidateId) public {\r\n        // require that they haven't voted before\r\n        require(!voters[msg.sender]);\r\n\r\n        // require a valid candidate\r\n        require(_candidateId > 0 && _candidateId <= candidatesCount);\r\n\r\n        require(mvcToken.mvcBalance(msg.sender) >= 2, \"Insufficient MVC tokens to vote\");\r\n\r\n        mvcToken.transfer(msg.sender,contractAddress,2);\r\n        skolFaithfulInstance.mvcTransaction(msg.sender,2);\r\n        totalMVCs += 2;\r\n        totalVotes++;\r\n\r\n        // record that voter has voted\r\n        voters[msg.sender] = true;\r\n\r\n        Candidate storage candidate = candidates[_candidateId];\r\n        candidate.voteCount++;\r\n\r\n        mvcToken.transfer(contractAddress,msg.sender,1);\r\n        mvcToken.transfer(contractAddress,temp2,1);\r\n        mvcToken.transfer(contractAddress,temp3,1);\r\n        mvcToken.transfer(contractAddress,temp4,1);\r\n        mvcToken.transfer(contractAddress,temp5,1);\r\n        mvcToken.transfer(contractAddress,temp6,1);\r\n        mvcToken.transfer(contractAddress,temp7,1);\r\n        mvcToken.transfer(contractAddress,temp8,1);\r\n        mvcToken.transfer(contractAddress,temp9,1);\r\n        mvcToken.transfer(contractAddress,temp10,1);\r\n\r\n        mvcToken.transfer(contractAddress,temp2,6);\r\n        mvcToken.transfer(contractAddress,temp3,3);\r\n        mvcToken.transfer(contractAddress,temp4,2);\r\n        mvcToken.transfer(contractAddress,temp5,2);\r\n\r\n        skolFaithfulInstance.repReward(msg.sender,1);\r\n        skolFaithfulInstance.repReward(temp2,5);\r\n        skolFaithfulInstance.repReward(temp3,5);\r\n        skolFaithfulInstance.repReward(temp4,4);\r\n        skolFaithfulInstance.repReward(temp5,4);\r\n        skolFaithfulInstance.repReward(temp6,1);\r\n        skolFaithfulInstance.repReward(temp7,1);\r\n        skolFaithfulInstance.repReward(temp8,1);\r\n        skolFaithfulInstance.repReward(temp9,1);\r\n\r\n        // trigger voted event\r\n        emit votedEvent(_candidateId);\r\n    }\r\n\r\n    // 28 total MVCs\r\n    // Each account gets 1 MVC -> 28-10 = 18\r\n    // Account 2 gets 30% of 18 -> 18-6 = 12\r\n    // Account 3 gets 25% of 12 -> 12-3 = 9\r\n    // Account 4 gets 20% of 9 -> 9-2 = 7\r\n    // Account 5 gets 15% of 7 -> 7-2 = 5\r\n    // 5 remaining MVC tokens are burned\r\n\r\n    // Account 1,6,7,8,9,10 each get 1 MVC\r\n    // Account 2 gets 6\r\n    // Account 3 gets 3\r\n    // Account 4 gets 2\r\n    // Account 5 gets 2\r\n\r\n}",
  "sourcePath": "C:\\Users\\cooki\\OneDrive\\Documents\\Metro State Stuff\\690-Blockchain\\ics690-vikings-dapp\\contracts\\Election2.sol",
  "compiler": {
    "name": "solc",
    "version": "0.8.19+commit.7dd6d404.Emscripten.clang"
  },
  "schemaVersion": "3.4.16",
  "updatedAt": "2024-04-10T08:52:11.004Z",
  "networkType": "ethereum",
  "devdoc": {
    "kind": "dev",
    "methods": {},
    "version": 1
  },
  "userdoc": {
    "kind": "user",
    "methods": {},
    "version": 1
  }
}