{
  "contractName": "Election2",
  "abi": [
    {
      "inputs": [],
      "stateMutability": "nonpayable",
      "type": "constructor"
    },
    {
      "anonymous": false,
      "inputs": [
        {
          "indexed": true,
          "internalType": "uint256",
          "name": "_candidateId",
          "type": "uint256"
        }
      ],
      "name": "votedEvent",
      "type": "event"
    },
    {
      "inputs": [
        {
          "internalType": "uint256",
          "name": "",
          "type": "uint256"
        }
      ],
      "name": "candidates",
      "outputs": [
        {
          "internalType": "uint256",
          "name": "id",
          "type": "uint256"
        },
        {
          "internalType": "string",
          "name": "name",
          "type": "string"
        },
        {
          "internalType": "uint256",
          "name": "voteCount",
          "type": "uint256"
        },
        {
          "internalType": "address",
          "name": "ownerAddress",
          "type": "address"
        }
      ],
      "stateMutability": "view",
      "type": "function",
      "constant": true
    },
    {
      "inputs": [],
      "name": "candidatesCount",
      "outputs": [
        {
          "internalType": "uint256",
          "name": "",
          "type": "uint256"
        }
      ],
      "stateMutability": "view",
      "type": "function",
      "constant": true
    },
    {
      "inputs": [],
      "name": "contractAddress",
      "outputs": [
        {
          "internalType": "address",
          "name": "",
          "type": "address"
        }
      ],
      "stateMutability": "view",
      "type": "function",
      "constant": true
    },
    {
      "inputs": [
        {
          "internalType": "address",
          "name": "",
          "type": "address"
        }
      ],
      "name": "voters",
      "outputs": [
        {
          "internalType": "bool",
          "name": "",
          "type": "bool"
        }
      ],
      "stateMutability": "view",
      "type": "function",
      "constant": true
    },
    {
      "inputs": [
        {
          "internalType": "uint256",
          "name": "_candidateId",
          "type": "uint256"
        }
      ],
      "name": "vote",
      "outputs": [],
      "stateMutability": "nonpayable",
      "type": "function"
    }
  ],
  "bytecode": "0x60806040523480156200001157600080fd5b50600073feb798ed0e1ec865bf80703ca1e1bb7a48ddeafa905060007348f84a00f895be17bd4fa9e0731c7b39eacd6fbe9050600073cf16fe704d4b01ecdd98a41af04b92008d2a32cc9050600073709e646fc789ec4b3d093c8871f66640e9c60616905060007222872cd7dc3e7ea18242d815b85bf972df29b79050620000d56040518060400160405280600e81526020017f42696c6c2042656c69636869636b000000000000000000000000000000000000815250866200023d60201b60201c565b6200011c6040518060400160405280600b81526020017f4d696b652056726162656c000000000000000000000000000000000000000000815250856200023d60201b60201c565b620001636040518060400160405280600e81526020017f4272616e646f6e205374616c6579000000000000000000000000000000000000815250846200023d60201b60201c565b620001aa6040518060400160405280600b81526020017f4672616e6b205265696368000000000000000000000000000000000000000000815250836200023d60201b60201c565b620001f16040518060400160405280600b81526020017f4d696b65205a696d6d6572000000000000000000000000000000000000000000815250826200023d60201b60201c565b30600360006101000a81548173ffffffffffffffffffffffffffffffffffffffff021916908373ffffffffffffffffffffffffffffffffffffffff1602179055505050505050620007d3565b6002600081548092919062000252906200042f565b919050555060606040518060a001604052806002548152602001848152602001600081526020018373ffffffffffffffffffffffffffffffffffffffff16815260200182815250600160006002548152602001908152602001600020600082015181600001556020820151816001019081620002cf9190620006ec565b506040820151816002015560608201518160030160006101000a81548173ffffffffffffffffffffffffffffffffffffffff021916908373ffffffffffffffffffffffffffffffffffffffff16021790555060808201518160040190805190602001906200033f92919062000348565b50905050505050565b828054828255906000526020600020908101928215620003c4579160200282015b82811115620003c35782518260006101000a81548173ffffffffffffffffffffffffffffffffffffffff021916908373ffffffffffffffffffffffffffffffffffffffff1602179055509160200191906001019062000369565b5b509050620003d39190620003d7565b5090565b5b80821115620003f2576000816000905550600101620003d8565b5090565b7f4e487b7100000000000000000000000000000000000000000000000000000000600052601160045260246000fd5b6000819050919050565b60006200043c8262000425565b91507fffffffffffffffffffffffffffffffffffffffffffffffffffffffffffffffff8203620004715762000470620003f6565b5b600182019050919050565b600081519050919050565b7f4e487b7100000000000000000000000000000000000000000000000000000000600052604160045260246000fd5b7f4e487b7100000000000000000000000000000000000000000000000000000000600052602260045260246000fd5b60006002820490506001821680620004fe57607f821691505b602082108103620005145762000513620004b6565b5b50919050565b60008190508160005260206000209050919050565b60006020601f8301049050919050565b600082821b905092915050565b6000600883026200057e7fffffffffffffffffffffffffffffffffffffffffffffffffffffffffffffffff826200053f565b6200058a86836200053f565b95508019841693508086168417925050509392505050565b6000819050919050565b6000620005cd620005c7620005c18462000425565b620005a2565b62000425565b9050919050565b6000819050919050565b620005e983620005ac565b62000601620005f882620005d4565b8484546200054c565b825550505050565b600090565b6200061862000609565b62000625818484620005de565b505050565b5b818110156200064d57620006416000826200060e565b6001810190506200062b565b5050565b601f8211156200069c5762000666816200051a565b62000671846200052f565b8101602085101562000681578190505b6200069962000690856200052f565b8301826200062a565b50505b505050565b600082821c905092915050565b6000620006c160001984600802620006a1565b1980831691505092915050565b6000620006dc8383620006ae565b9150826002028217905092915050565b620006f7826200047c565b67ffffffffffffffff81111562000713576200071262000487565b5b6200071f8254620004e5565b6200072c82828562000651565b600060209050601f8311600181146200076457600084156200074f578287015190505b6200075b8582620006ce565b865550620007cb565b601f19841662000774866200051a565b60005b828110156200079e5784890151825560018201915060208501945060208101905062000777565b86831015620007be5784890151620007ba601f891682620006ae565b8355505b6001600288020188555050505b505050505050565b6106c580620007e36000396000f3fe608060405234801561001057600080fd5b50600436106100575760003560e01c80630121b93f1461005c5780632d35a8a2146100785780633477ee2e14610096578063a3ec138d146100c9578063f6b4dfb4146100f9575b600080fd5b6100766004803603810190610071919061039a565b610117565b005b61008061023b565b60405161008d91906103d6565b60405180910390f35b6100b060048036038101906100ab919061039a565b610241565b6040516100c094939291906104c2565b60405180910390f35b6100e360048036038101906100de919061053a565b610319565b6040516100f09190610582565b60405180910390f35b610101610339565b60405161010e919061059d565b60405180910390f35b6000803373ffffffffffffffffffffffffffffffffffffffff1673ffffffffffffffffffffffffffffffffffffffff16815260200190815260200160002060009054906101000a900460ff161561016d57600080fd5b60008111801561017f57506002548111155b61018857600080fd5b60016000803373ffffffffffffffffffffffffffffffffffffffff1673ffffffffffffffffffffffffffffffffffffffff16815260200190815260200160002060006101000a81548160ff021916908315150217905550600160008281526020019081526020016000206002016000815480929190610206906105e7565b9190505550807ffff3c900d938d21d0990d786e819f29b8d05c1ef587b462b939609625b684b1660405160405180910390a250565b60025481565b600160205280600052604060002060009150905080600001549080600101805461026a9061065e565b80601f01602080910402602001604051908101604052809291908181526020018280546102969061065e565b80156102e35780601f106102b8576101008083540402835291602001916102e3565b820191906000526020600020905b8154815290600101906020018083116102c657829003601f168201915b5050505050908060020154908060030160009054906101000a900473ffffffffffffffffffffffffffffffffffffffff16905084565b60006020528060005260406000206000915054906101000a900460ff1681565b600360009054906101000a900473ffffffffffffffffffffffffffffffffffffffff1681565b600080fd5b6000819050919050565b61037781610364565b811461038257600080fd5b50565b6000813590506103948161036e565b92915050565b6000602082840312156103b0576103af61035f565b5b60006103be84828501610385565b91505092915050565b6103d081610364565b82525050565b60006020820190506103eb60008301846103c7565b92915050565b600081519050919050565b600082825260208201905092915050565b60005b8381101561042b578082015181840152602081019050610410565b60008484015250505050565b6000601f19601f8301169050919050565b6000610453826103f1565b61045d81856103fc565b935061046d81856020860161040d565b61047681610437565b840191505092915050565b600073ffffffffffffffffffffffffffffffffffffffff82169050919050565b60006104ac82610481565b9050919050565b6104bc816104a1565b82525050565b60006080820190506104d760008301876103c7565b81810360208301526104e98186610448565b90506104f860408301856103c7565b61050560608301846104b3565b95945050505050565b610517816104a1565b811461052257600080fd5b50565b6000813590506105348161050e565b92915050565b6000602082840312156105505761054f61035f565b5b600061055e84828501610525565b91505092915050565b60008115159050919050565b61057c81610567565b82525050565b60006020820190506105976000830184610573565b92915050565b60006020820190506105b260008301846104b3565b92915050565b7f4e487b7100000000000000000000000000000000000000000000000000000000600052601160045260246000fd5b60006105f282610364565b91507fffffffffffffffffffffffffffffffffffffffffffffffffffffffffffffffff8203610624576106236105b8565b5b600182019050919050565b7f4e487b7100000000000000000000000000000000000000000000000000000000600052602260045260246000fd5b6000600282049050600182168061067657607f821691505b6020821081036106895761068861062f565b5b5091905056fea26469706673582212205da6e74b28462f46b59786ebdc69339e0d6e026b157941e21d75ff24e021214064736f6c63430008130033",
  "immutableReferences": {},
  "source": "// SPDX-License-Identifier: MIT\r\npragma solidity ^0.8.19;\r\n\r\ncontract Election2 {\r\n    // Model a Candidate\r\n    struct Candidate {\r\n        uint id;\r\n        string name;\r\n        uint voteCount;\r\n        address ownerAddress;\r\n        address[] votersForCandidate;\r\n    }\r\n\r\n    // Store accounts that have voted\r\n    mapping(address => bool) public voters;\r\n    // Store Candidates\r\n    // Fetch Candidate\r\n    mapping(uint => Candidate) public candidates;\r\n    // Store Candidates Count\r\n    uint public candidatesCount;\r\n\r\n    // voted event\r\n    event votedEvent (\r\n        uint indexed _candidateId\r\n    );\r\n\r\n    address public contractAddress;\r\n\r\n    constructor () {\r\n        address temp2 = 0xFeb798ed0E1eC865Bf80703cA1E1Bb7a48DdEAfa;\r\n        address temp3 = 0x48f84a00F895be17BD4Fa9e0731c7b39eAcd6FBe;\r\n        address temp4 = 0xCF16fe704d4b01ecDD98A41af04B92008D2a32CC;\r\n        address temp5 = 0x709E646fc789ec4b3D093C8871f66640E9c60616;\r\n        address temp6 = 0x0022872cD7Dc3E7eA18242D815B85bF972df29b7;\r\n        addCandidate(\"Bill Belichick\", temp2);\r\n        addCandidate(\"Mike Vrabel\", temp3);\r\n        addCandidate(\"Brandon Staley\", temp4);\r\n        addCandidate(\"Frank Reich\", temp5);\r\n        addCandidate(\"Mike Zimmer\", temp6);\r\n\r\n        contractAddress = address(this);\r\n    }\r\n\r\n    function addCandidate (string memory _name, address owner) private {\r\n        candidatesCount ++;\r\n        address[] memory temp;\r\n        candidates[candidatesCount] = Candidate(candidatesCount, _name, 0, owner, temp);\r\n    }\r\n\r\n    function vote (uint _candidateId) public {\r\n        // require that they haven't voted before\r\n        require(!voters[msg.sender]);\r\n\r\n        // require a valid candidate\r\n        require(_candidateId > 0 && _candidateId <= candidatesCount);\r\n\r\n        // record that voter has voted\r\n        voters[msg.sender] = true;\r\n\r\n        // update candidate vote Count\r\n        candidates[_candidateId].voteCount ++;\r\n\r\n        // trigger voted event\r\n        emit votedEvent(_candidateId);\r\n    }\r\n}",
  "sourcePath": "C:\\Users\\cooki\\OneDrive\\Documents\\Metro State Stuff\\690-Blockchain\\ics690-vikings-dapp\\contracts\\Election2.sol",
  "compiler": {
    "name": "solc",
    "version": "0.8.19+commit.7dd6d404.Emscripten.clang"
  },
  "schemaVersion": "3.4.16",
  "updatedAt": "2024-04-04T06:59:04.024Z",
  "networkType": "ethereum",
  "devdoc": {
    "kind": "dev",
    "methods": {},
    "version": 1
  },
  "userdoc": {
    "kind": "user",
    "methods": {},
    "version": 1
  }
}