{
  "contractName": "SkolFaithful",
  "abi": [
    {
      "inputs": [
        {
          "internalType": "contract MVCToken",
          "name": "myMvcToken",
          "type": "address"
        },
        {
          "internalType": "contract REPToken",
          "name": "myRepToken",
          "type": "address"
        }
      ],
      "stateMutability": "nonpayable",
      "type": "constructor"
    },
    {
      "anonymous": false,
      "inputs": [
        {
          "indexed": false,
          "internalType": "address",
          "name": "newUser",
          "type": "address"
        }
      ],
      "name": "newDAOMember",
      "type": "event"
    },
    {
      "inputs": [],
      "name": "mvcToken",
      "outputs": [
        {
          "internalType": "contract MVCToken",
          "name": "",
          "type": "address"
        }
      ],
      "stateMutability": "view",
      "type": "function"
    },
    {
      "inputs": [],
      "name": "repToken",
      "outputs": [
        {
          "internalType": "contract REPToken",
          "name": "",
          "type": "address"
        }
      ],
      "stateMutability": "view",
      "type": "function"
    },
    {
      "inputs": [],
      "name": "skolNationCount",
      "outputs": [
        {
          "internalType": "uint256",
          "name": "",
          "type": "uint256"
        }
      ],
      "stateMutability": "view",
      "type": "function"
    },
    {
      "inputs": [
        {
          "internalType": "address",
          "name": "owner",
          "type": "address"
        }
      ],
      "name": "joinDAO",
      "outputs": [],
      "stateMutability": "payable",
      "type": "function"
    }
  ],
  "bytecode": "0x60806040523480156200001157600080fd5b5060405162000dc738038062000dc78339818101604052810190620000379190620004f8565b600073feb798ed0e1ec865bf80703ca1e1bb7a48ddeafa905060007348f84a00f895be17bd4fa9e0731c7b39eacd6fbe9050600073cf16fe704d4b01ecdd98a41af04b92008d2a32cc9050600073709e646fc789ec4b3d093c8871f66640e9c60616905060007222872cd7dc3e7ea18242d815b85bf972df29b79050620000c685600a6200028160201b60201c565b620000d98460096200028160201b60201c565b620000ec8360086200028160201b60201c565b620000ff8260076200028160201b60201c565b620001128160066200028160201b60201c565b60007329903d7e00703607844fcb5d1492b0afc016e9bf90506000738c7fe6bdea2e1a76c80dcb75bc0086f96df550c290506000733f53e1a5c3c56bbd23d97890a28f9ce1c05ee563905060007323cceb31284c9b13361dfe36447ece97e38cc8879050620001898460056200028160201b60201c565b6200019c8360046200028160201b60201c565b620001af8260036200028160201b60201c565b620001c28160016200028160201b60201c565b600073f220d553fbbc28b6f381cbb2be99d59de42d2f849050620001ee8160046200028160201b60201c565b8b6000806101000a81548173ffffffffffffffffffffffffffffffffffffffff021916908373ffffffffffffffffffffffffffffffffffffffff1602179055508a600160006101000a81548173ffffffffffffffffffffffffffffffffffffffff021916908373ffffffffffffffffffffffffffffffffffffffff16021790555050505050505050505050505062000631565b6200029960016003546200040460201b90919060201c565b60038190555060405180606001604052808373ffffffffffffffffffffffffffffffffffffffff168152602001600081526020016000815250600260008473ffffffffffffffffffffffffffffffffffffffff1673ffffffffffffffffffffffffffffffffffffffff16815260200190815260200160002060008201518160000160006101000a81548173ffffffffffffffffffffffffffffffffffffffff021916908373ffffffffffffffffffffffffffffffffffffffff160217905550602082015181600101556040820151816002015590505060008054906101000a900473ffffffffffffffffffffffffffffffffffffffff1673ffffffffffffffffffffffffffffffffffffffff166340c10f1983836040518363ffffffff1660e01b8152600401620003cc9291906200056b565b600060405180830381600087803b158015620003e757600080fd5b505af1158015620003fc573d6000803e3d6000fd5b505050505050565b6000808284620004159190620005c7565b9050838110156200042b576200042a62000602565b5b8091505092915050565b600080fd5b600073ffffffffffffffffffffffffffffffffffffffff82169050919050565b600062000467826200043a565b9050919050565b60006200047b826200045a565b9050919050565b6200048d816200046e565b81146200049957600080fd5b50565b600081519050620004ad8162000482565b92915050565b6000620004c0826200045a565b9050919050565b620004d281620004b3565b8114620004de57600080fd5b50565b600081519050620004f281620004c7565b92915050565b6000806040838503121562000512576200051162000435565b5b600062000522858286016200049c565b92505060206200053585828601620004e1565b9150509250929050565b6200054a816200045a565b82525050565b6000819050919050565b620005658162000550565b82525050565b60006040820190506200058260008301856200053f565b6200059160208301846200055a565b9392505050565b7f4e487b7100000000000000000000000000000000000000000000000000000000600052601160045260246000fd5b6000620005d48262000550565b9150620005e18362000550565b9250828201905080821115620005fc57620005fb62000598565b5b92915050565b7f4e487b7100000000000000000000000000000000000000000000000000000000600052600160045260246000fd5b61078680620006416000396000f3fe60806040526004361061003f5760003560e01c806329034a5c14610044578063600e98501461006f57806365b884e71461009a5780637f9ba632146100c5575b600080fd5b34801561005057600080fd5b506100596100e1565b6040516100669190610451565b60405180910390f35b34801561007b57600080fd5b50610084610107565b604051610091919061048d565b60405180910390f35b3480156100a657600080fd5b506100af61012b565b6040516100bc91906104c1565b60405180910390f35b6100df60048036038101906100da919061051f565b610131565b005b600160009054906101000a900473ffffffffffffffffffffffffffffffffffffffff1681565b60008054906101000a900473ffffffffffffffffffffffffffffffffffffffff1681565b60035481565b600060029050610140816101c6565b3414610181576040517f08c379a0000000000000000000000000000000000000000000000000000000008152600401610178906105a9565b60405180910390fd5b61018c8260046101e1565b7edf307e9b446a354d99f4cfb38d3e8cc5fec10b771dea26f922174c5e12ee44826040516101ba91906105d8565b60405180910390a15050565b60006101da82670de0b6b3a764000061035e565b9050919050565b6101f760016003546103a690919063ffffffff16565b60038190555060405180606001604052808373ffffffffffffffffffffffffffffffffffffffff168152602001600081526020016000815250600260008473ffffffffffffffffffffffffffffffffffffffff1673ffffffffffffffffffffffffffffffffffffffff16815260200190815260200160002060008201518160000160006101000a81548173ffffffffffffffffffffffffffffffffffffffff021916908373ffffffffffffffffffffffffffffffffffffffff160217905550602082015181600101556040820151816002015590505060008054906101000a900473ffffffffffffffffffffffffffffffffffffffff1673ffffffffffffffffffffffffffffffffffffffff166340c10f1983836040518363ffffffff1660e01b81526004016103289291906105f3565b600060405180830381600087803b15801561034257600080fd5b505af1158015610356573d6000803e3d6000fd5b505050505050565b600080830361037057600090506103a0565b6000828461037e919061064b565b905082848261038d91906106bc565b1461039b5761039a6106ed565b5b809150505b92915050565b60008082846103b5919061071c565b9050838110156103c8576103c76106ed565b5b8091505092915050565b600073ffffffffffffffffffffffffffffffffffffffff82169050919050565b6000819050919050565b600061041761041261040d846103d2565b6103f2565b6103d2565b9050919050565b6000610429826103fc565b9050919050565b600061043b8261041e565b9050919050565b61044b81610430565b82525050565b60006020820190506104666000830184610442565b92915050565b60006104778261041e565b9050919050565b6104878161046c565b82525050565b60006020820190506104a2600083018461047e565b92915050565b6000819050919050565b6104bb816104a8565b82525050565b60006020820190506104d660008301846104b2565b92915050565b600080fd5b60006104ec826103d2565b9050919050565b6104fc816104e1565b811461050757600080fd5b50565b600081359050610519816104f3565b92915050565b600060208284031215610535576105346104dc565b5b60006105438482850161050a565b91505092915050565b600082825260208201905092915050565b7f496e73756666696369656e742066756e64732070726f76696465640000000000600082015250565b6000610593601b8361054c565b915061059e8261055d565b602082019050919050565b600060208201905081810360008301526105c281610586565b9050919050565b6105d2816104e1565b82525050565b60006020820190506105ed60008301846105c9565b92915050565b600060408201905061060860008301856105c9565b61061560208301846104b2565b9392505050565b7f4e487b7100000000000000000000000000000000000000000000000000000000600052601160045260246000fd5b6000610656826104a8565b9150610661836104a8565b925082820261066f816104a8565b915082820484148315176106865761068561061c565b5b5092915050565b7f4e487b7100000000000000000000000000000000000000000000000000000000600052601260045260246000fd5b60006106c7826104a8565b91506106d2836104a8565b9250826106e2576106e161068d565b5b828204905092915050565b7f4e487b7100000000000000000000000000000000000000000000000000000000600052600160045260246000fd5b6000610727826104a8565b9150610732836104a8565b925082820190508082111561074a5761074961061c565b5b9291505056fea264697066735822122092374c5bb7d8bde2de9ae0947e8820c3ba683dfcba1eece6795d637462737bde64736f6c63430008130033",
  "immutableReferences": {},
  "source": "// SPDX-License-Identifier: MIT\r\npragma solidity ^0.8.19;\r\n\r\nimport \"./safemath.sol\";\r\nimport \"./MVCToken.sol\" as MVCTokenContract;\r\nimport \"./REPToken.sol\" as REPTokenContract;\r\n\r\n// to interact with a deployed instance of this contract after running command \"truffle console\":\r\n// SkolFaithful.deployed().then(function(instance) {app = instance})\r\n\r\n// address of contract: '0x55177A98E75ef8bd8A4B0a4dd432C85a4A3659a8'\r\n\r\ncontract SkolFaithful {\r\n    using SafeMath for uint;\r\n    MVCTokenContract.MVCToken public mvcToken;\r\n    REPTokenContract.REPToken public repToken;\r\n\r\n    struct Member {\r\n        address owner;\r\n        uint mvcs;\r\n        uint repTokens;\r\n    }\r\n\r\n    // Members of the DAO, currently hidden to users\r\n    mapping(address => Member) private skolNation;\r\n\r\n    // can reference with: app.clientUser(), app.skolNationCount().toNumber()\r\n    uint public skolNationCount;\r\n\r\n    constructor (MVCTokenContract.MVCToken myMvcToken, REPTokenContract.REPToken myRepToken) {\r\n\r\n        // have made head coach proposals\r\n        address temp2 = 0xFeb798ed0E1eC865Bf80703cA1E1Bb7a48DdEAfa;\r\n        address temp3 = 0x48f84a00F895be17BD4Fa9e0731c7b39eAcd6FBe;\r\n        address temp4 = 0xCF16fe704d4b01ecDD98A41af04B92008D2a32CC;\r\n        address temp5 = 0x709E646fc789ec4b3D093C8871f66640E9c60616;\r\n        address temp6 = 0x0022872cD7Dc3E7eA18242D815B85bF972df29b7;\r\n        addMember(temp2,10); // Bill Belichick\r\n        addMember(temp3,9); // Mike Vrabel\r\n        addMember(temp4,8); // Brandon Staley\r\n        addMember(temp5,7); // Frank Reich\r\n        addMember(temp6,6); // Mike Zimmer\r\n\r\n        // voters\r\n        address temp7 = 0x29903d7E00703607844FCb5D1492B0AFC016E9bf;\r\n        address temp8 = 0x8c7Fe6BdEa2e1a76C80dCB75BC0086f96dF550c2;\r\n        address temp9 = 0x3f53E1a5c3c56bBd23d97890A28f9ce1c05ee563;\r\n        address temp10 = 0x23cCEB31284c9b13361dfE36447Ece97e38Cc887;\r\n        addMember(temp7, 5);\r\n        addMember(temp8, 4);\r\n        addMember(temp9, 3);\r\n        addMember(temp10, 1);\r\n\r\n        // voting demo\r\n        address temp1 = 0xf220d553fbbC28b6f381CbB2bE99D59De42d2F84;\r\n        addMember(temp1, 4);\r\n\r\n        mvcToken = myMvcToken;\r\n        repToken = myRepToken;\r\n    }\r\n\r\n    // Adding members to the skolNation map giving them initial values of 4 MVCs and 0 REP tokens\r\n    function addMember(address owner, uint mvcAmount) private {\r\n        skolNationCount = skolNationCount.add(1);\r\n        skolNation[owner] = Member(owner,0,0);\r\n\r\n        mvcToken.mint(owner,mvcAmount);\r\n    }\r\n\r\n    event newDAOMember(address newUser);\r\n\r\n    // function for a new user to join the DAO\r\n    function joinDAO(address owner) public payable {\r\n        uint ethAmount = 2; // costing 2 eth to join the dao\r\n        require(msg.value == ethAmount.toWei(), 'Insufficient funds provided');\r\n\r\n        addMember(owner,4);\r\n\r\n        emit newDAOMember(owner);\r\n    }\r\n\r\n    // TODO: condense SkolFaithful and CoachVotingMechanism into a voting contract with the redistribution mechanism\r\n}",
  "sourcePath": "C:\\Users\\cooki\\OneDrive\\Documents\\Metro State Stuff\\690-Blockchain\\ics690-vikings-dapp\\contracts\\SkolFaithful.sol",
  "compiler": {
    "name": "solc",
    "version": "0.8.19+commit.7dd6d404.Emscripten.clang"
  },
  "schemaVersion": "3.4.16",
  "updatedAt": "2024-04-04T06:59:01.296Z",
  "devdoc": {
    "kind": "dev",
    "methods": {},
    "version": 1
  },
  "userdoc": {
    "kind": "user",
    "methods": {},
    "version": 1
  }
}