{
  "contractName": "SkolFaithful",
  "abi": [
    {
      "inputs": [],
      "stateMutability": "nonpayable",
      "type": "constructor"
    },
    {
      "inputs": [],
      "name": "clientUser",
      "outputs": [
        {
          "internalType": "address",
          "name": "owner",
          "type": "address"
        },
        {
          "internalType": "uint256",
          "name": "mvcs",
          "type": "uint256"
        },
        {
          "internalType": "uint256",
          "name": "repTokens",
          "type": "uint256"
        }
      ],
      "stateMutability": "view",
      "type": "function",
      "constant": true
    },
    {
      "inputs": [],
      "name": "skolNationCount",
      "outputs": [
        {
          "internalType": "uint256",
          "name": "",
          "type": "uint256"
        }
      ],
      "stateMutability": "view",
      "type": "function",
      "constant": true
    }
  ],
  "bytecode": "0x608060405234801561001057600080fd5b5061003473f220d553fbbc28b6f381cbb2be99d59de42d2f8461018360201b60201c565b61005773feb798ed0e1ec865bf80703ca1e1bb7a48ddeafa61018360201b60201c565b61007a7348f84a00f895be17bd4fa9e0731c7b39eacd6fbe61018360201b60201c565b61009d73cf16fe704d4b01ecdd98a41af04b92008d2a32cc61018360201b60201c565b6100c073709e646fc789ec4b3d093c8871f66640e9c6061661018360201b60201c565b6000803373ffffffffffffffffffffffffffffffffffffffff1673ffffffffffffffffffffffffffffffffffffffff16815260200190815260200160002060026000820160009054906101000a900473ffffffffffffffffffffffffffffffffffffffff168160000160006101000a81548173ffffffffffffffffffffffffffffffffffffffff021916908373ffffffffffffffffffffffffffffffffffffffff1602179055506001820154816001015560028201548160020155905050610338565b6101986001805461027060201b90919060201c565b60018190555060405180606001604052808273ffffffffffffffffffffffffffffffffffffffff1681526020016004815260200160008152506000808373ffffffffffffffffffffffffffffffffffffffff1673ffffffffffffffffffffffffffffffffffffffff16815260200190815260200160002060008201518160000160006101000a81548173ffffffffffffffffffffffffffffffffffffffff021916908373ffffffffffffffffffffffffffffffffffffffff160217905550602082015181600101556040820151816002015590505050565b600080828461027f91906102d5565b90508381101561029257610291610309565b5b8091505092915050565b6000819050919050565b7f4e487b7100000000000000000000000000000000000000000000000000000000600052601160045260246000fd5b60006102e08261029c565b91506102eb8361029c565b9250828201905080821115610303576103026102a6565b5b92915050565b7f4e487b7100000000000000000000000000000000000000000000000000000000600052600160045260246000fd5b610199806103476000396000f3fe608060405234801561001057600080fd5b50600436106100365760003560e01c806365b884e71461003b5780638ac0a5fe14610059575b600080fd5b610043610079565b60405161005091906100d0565b60405180910390f35b61006161007f565b6040516100709392919061012c565b60405180910390f35b60015481565b60028060000160009054906101000a900473ffffffffffffffffffffffffffffffffffffffff16908060010154908060020154905083565b6000819050919050565b6100ca816100b7565b82525050565b60006020820190506100e560008301846100c1565b92915050565b600073ffffffffffffffffffffffffffffffffffffffff82169050919050565b6000610116826100eb565b9050919050565b6101268161010b565b82525050565b6000606082019050610141600083018661011d565b61014e60208301856100c1565b61015b60408301846100c1565b94935050505056fea264697066735822122014407de382c70dc4bfcde71729ea393052fcabec5073c1be9e1d60e17c196d6f64736f6c63430008130033",
  "immutableReferences": {},
  "source": "// SPDX-License-Identifier: MIT\r\npragma solidity ^0.8.19;\r\n\r\nimport \"./safemath.sol\";\r\n\r\n// to interact with a deployed instance of this contract after running command \"truffle console\":\r\n// SkolFaithful.deployed().then(function(instance) {app = instance})\r\n\r\n// address of contract: '0x55177A98E75ef8bd8A4B0a4dd432C85a4A3659a8'\r\n\r\ncontract SkolFaithful {\r\n    using SafeMath for uint;\r\n\r\n    struct Member {\r\n        address owner;\r\n        uint mvcs;\r\n        uint repTokens;\r\n    }\r\n\r\n    // Members of the DAO, currently hidden to users\r\n    mapping(address => Member) private skolNation;\r\n\r\n    // can reference with: app.clientUser(), app.skolNationCount().toNumber()\r\n    uint public skolNationCount;\r\n    Member public clientUser;\r\n\r\n    constructor () {\r\n        addMember(0xf220d553fbbC28b6f381CbB2bE99D59De42d2F84);\r\n        addMember(0xFeb798ed0E1eC865Bf80703cA1E1Bb7a48DdEAfa);\r\n        addMember(0x48f84a00F895be17BD4Fa9e0731c7b39eAcd6FBe);\r\n        addMember(0xCF16fe704d4b01ecDD98A41af04B92008D2a32CC);\r\n        addMember(0x709E646fc789ec4b3D093C8871f66640E9c60616);\r\n\r\n        clientUser = skolNation[msg.sender];\r\n    }\r\n\r\n    // Adding members to the skolNation map giving them initial values of 4 MVCs and 0 REP tokens\r\n    function addMember(address _owner) private {\r\n        skolNationCount = skolNationCount.add(1);\r\n        skolNation[_owner] = Member(_owner,4,0);\r\n    }\r\n}",
  "sourcePath": "C:\\Users\\cooki\\OneDrive\\Documents\\Metro State Stuff\\690-Blockchain\\ics690-vikings-dapp\\contracts\\SkolFaithful.sol",
  "compiler": {
    "name": "solc",
    "version": "0.8.19+commit.7dd6d404.Emscripten.clang"
  },
  "schemaVersion": "3.4.16",
  "updatedAt": "2024-03-25T03:50:39.069Z",
  "networkType": "ethereum",
  "devdoc": {
    "kind": "dev",
    "methods": {},
    "version": 1
  },
  "userdoc": {
    "kind": "user",
    "methods": {},
    "version": 1
  }
}