{
  "contractName": "SkolFaithful",
  "abi": [
    {
      "inputs": [
        {
          "internalType": "address",
          "name": "mvcTokenAddress",
          "type": "address"
        }
      ],
      "stateMutability": "nonpayable",
      "type": "constructor"
    },
    {
      "anonymous": false,
      "inputs": [
        {
          "indexed": false,
          "internalType": "address",
          "name": "newUser",
          "type": "address"
        }
      ],
      "name": "newDAOMember",
      "type": "event"
    },
    {
      "inputs": [],
      "name": "mvcToken",
      "outputs": [
        {
          "internalType": "contract MVCToken",
          "name": "",
          "type": "address"
        }
      ],
      "stateMutability": "view",
      "type": "function",
      "constant": true
    },
    {
      "inputs": [
        {
          "internalType": "address",
          "name": "",
          "type": "address"
        }
      ],
      "name": "skolNation",
      "outputs": [
        {
          "internalType": "address",
          "name": "owner",
          "type": "address"
        },
        {
          "internalType": "uint256",
          "name": "mvcs",
          "type": "uint256"
        },
        {
          "internalType": "uint256",
          "name": "repTokens",
          "type": "uint256"
        }
      ],
      "stateMutability": "view",
      "type": "function",
      "constant": true
    },
    {
      "inputs": [],
      "name": "skolNationCount",
      "outputs": [
        {
          "internalType": "uint256",
          "name": "",
          "type": "uint256"
        }
      ],
      "stateMutability": "view",
      "type": "function",
      "constant": true
    },
    {
      "inputs": [
        {
          "internalType": "address",
          "name": "owner",
          "type": "address"
        }
      ],
      "name": "joinDAO",
      "outputs": [],
      "stateMutability": "payable",
      "type": "function",
      "payable": true
    }
  ],
  "bytecode": "0x60806040523480156200001157600080fd5b5060405162000d4838038062000d4883398181016040528101906200003791906200045c565b806000806101000a81548173ffffffffffffffffffffffffffffffffffffffff021916908373ffffffffffffffffffffffffffffffffffffffff160217905550600073feb798ed0e1ec865bf80703ca1e1bb7a48ddeafa905060007348f84a00f895be17bd4fa9e0731c7b39eacd6fbe9050600073cf16fe704d4b01ecdd98a41af04b92008d2a32cc9050600073709e646fc789ec4b3d093c8871f66640e9c60616905060007222872cd7dc3e7ea18242d815b85bf972df29b790506200010685600a6200023f60201b60201c565b620001198460096200023f60201b60201c565b6200012c8360086200023f60201b60201c565b6200013f8260076200023f60201b60201c565b620001528160066200023f60201b60201c565b60007329903d7e00703607844fcb5d1492b0afc016e9bf90506000738c7fe6bdea2e1a76c80dcb75bc0086f96df550c290506000733f53e1a5c3c56bbd23d97890a28f9ce1c05ee563905060007323cceb31284c9b13361dfe36447ece97e38cc8879050620001c98460056200023f60201b60201c565b620001dc8360046200023f60201b60201c565b620001ef8260036200023f60201b60201c565b620002028160016200023f60201b60201c565b600073f220d553fbbc28b6f381cbb2be99d59de42d2f8490506200022e8160046200023f60201b60201c565b505050505050505050505062000580565b620002576001600254620003c160201b90919060201c565b60028190555060405180606001604052808373ffffffffffffffffffffffffffffffffffffffff1681526020018281526020016000815250600160008473ffffffffffffffffffffffffffffffffffffffff1673ffffffffffffffffffffffffffffffffffffffff16815260200190815260200160002060008201518160000160006101000a81548173ffffffffffffffffffffffffffffffffffffffff021916908373ffffffffffffffffffffffffffffffffffffffff160217905550602082015181600101556040820151816002015590505060008054906101000a900473ffffffffffffffffffffffffffffffffffffffff1673ffffffffffffffffffffffffffffffffffffffff166340c10f1983836040518363ffffffff1660e01b815260040162000389929190620004ba565b600060405180830381600087803b158015620003a457600080fd5b505af1158015620003b9573d6000803e3d6000fd5b505050505050565b6000808284620003d2919062000516565b905083811015620003e857620003e762000551565b5b8091505092915050565b600080fd5b600073ffffffffffffffffffffffffffffffffffffffff82169050919050565b60006200042482620003f7565b9050919050565b620004368162000417565b81146200044257600080fd5b50565b60008151905062000456816200042b565b92915050565b600060208284031215620004755762000474620003f2565b5b6000620004858482850162000445565b91505092915050565b620004998162000417565b82525050565b6000819050919050565b620004b4816200049f565b82525050565b6000604082019050620004d160008301856200048e565b620004e06020830184620004a9565b9392505050565b7f4e487b7100000000000000000000000000000000000000000000000000000000600052601160045260246000fd5b600062000523826200049f565b915062000530836200049f565b92508282019050808211156200054b576200054a620004e7565b5b92915050565b7f4e487b7100000000000000000000000000000000000000000000000000000000600052600160045260246000fd5b6107b880620005906000396000f3fe60806040526004361061003f5760003560e01c8063600e98501461004457806365b884e71461006f5780637f9ba6321461009a578063dbf461da146100b6575b600080fd5b34801561005057600080fd5b506100596100f5565b6040516100669190610488565b60405180910390f35b34801561007b57600080fd5b50610084610119565b60405161009191906104bc565b60405180910390f35b6100b460048036038101906100af919061051a565b61011f565b005b3480156100c257600080fd5b506100dd60048036038101906100d8919061051a565b6101b4565b6040516100ec93929190610556565b60405180910390f35b60008054906101000a900473ffffffffffffffffffffffffffffffffffffffff1681565b60025481565b60006002905061012e816101fe565b341461016f576040517f08c379a0000000000000000000000000000000000000000000000000000000008152600401610166906105ea565b60405180910390fd5b61017a826004610219565b7edf307e9b446a354d99f4cfb38d3e8cc5fec10b771dea26f922174c5e12ee44826040516101a8919061060a565b60405180910390a15050565b60016020528060005260406000206000915090508060000160009054906101000a900473ffffffffffffffffffffffffffffffffffffffff16908060010154908060020154905083565b600061021282670de0b6b3a7640000610395565b9050919050565b61022f60016002546103dd90919063ffffffff16565b60028190555060405180606001604052808373ffffffffffffffffffffffffffffffffffffffff1681526020018281526020016000815250600160008473ffffffffffffffffffffffffffffffffffffffff1673ffffffffffffffffffffffffffffffffffffffff16815260200190815260200160002060008201518160000160006101000a81548173ffffffffffffffffffffffffffffffffffffffff021916908373ffffffffffffffffffffffffffffffffffffffff160217905550602082015181600101556040820151816002015590505060008054906101000a900473ffffffffffffffffffffffffffffffffffffffff1673ffffffffffffffffffffffffffffffffffffffff166340c10f1983836040518363ffffffff1660e01b815260040161035f929190610625565b600060405180830381600087803b15801561037957600080fd5b505af115801561038d573d6000803e3d6000fd5b505050505050565b60008083036103a757600090506103d7565b600082846103b5919061067d565b90508284826103c491906106ee565b146103d2576103d161071f565b5b809150505b92915050565b60008082846103ec919061074e565b9050838110156103ff576103fe61071f565b5b8091505092915050565b600073ffffffffffffffffffffffffffffffffffffffff82169050919050565b6000819050919050565b600061044e61044961044484610409565b610429565b610409565b9050919050565b600061046082610433565b9050919050565b600061047282610455565b9050919050565b61048281610467565b82525050565b600060208201905061049d6000830184610479565b92915050565b6000819050919050565b6104b6816104a3565b82525050565b60006020820190506104d160008301846104ad565b92915050565b600080fd5b60006104e782610409565b9050919050565b6104f7816104dc565b811461050257600080fd5b50565b600081359050610514816104ee565b92915050565b6000602082840312156105305761052f6104d7565b5b600061053e84828501610505565b91505092915050565b610550816104dc565b82525050565b600060608201905061056b6000830186610547565b61057860208301856104ad565b61058560408301846104ad565b949350505050565b600082825260208201905092915050565b7f496e73756666696369656e742066756e64732070726f76696465640000000000600082015250565b60006105d4601b8361058d565b91506105df8261059e565b602082019050919050565b60006020820190508181036000830152610603816105c7565b9050919050565b600060208201905061061f6000830184610547565b92915050565b600060408201905061063a6000830185610547565b61064760208301846104ad565b9392505050565b7f4e487b7100000000000000000000000000000000000000000000000000000000600052601160045260246000fd5b6000610688826104a3565b9150610693836104a3565b92508282026106a1816104a3565b915082820484148315176106b8576106b761064e565b5b5092915050565b7f4e487b7100000000000000000000000000000000000000000000000000000000600052601260045260246000fd5b60006106f9826104a3565b9150610704836104a3565b925082610714576107136106bf565b5b828204905092915050565b7f4e487b7100000000000000000000000000000000000000000000000000000000600052600160045260246000fd5b6000610759826104a3565b9150610764836104a3565b925082820190508082111561077c5761077b61064e565b5b9291505056fea2646970667358221220831dc5559b6e339b6254d4eebf44d0d912249e374c2b972fe08826d4e54f211c64736f6c63430008130033",
  "immutableReferences": {},
  "source": "// SPDX-License-Identifier: MIT\r\npragma solidity ^0.8.19;\r\n\r\nimport \"./safemath.sol\";\r\nimport \"./MVCToken.sol\" as MVCTokenContract;\r\n//import \"./REPToken.sol\" as REPTokenContract;\r\n\r\n// to interact with a deployed instance of this contract after running command \"truffle console\":\r\n// SkolFaithful.deployed().then(function(instance) {app = instance})\r\n// app.skolNation(0).then(function(c) {candidate=c})\r\n// web3.eth.getAccounts().then(function(ugh) {accounts=ugh})\r\n// ugh.skolNation(accounts[0]).then(function(c) {can=c})\r\n\r\n// address of contract: '0x55177A98E75ef8bd8A4B0a4dd432C85a4A3659a8'\r\n\r\ncontract SkolFaithful {\r\n    using SafeMath for uint;\r\n    MVCTokenContract.MVCToken public mvcToken;\r\n\r\n    struct Member {\r\n        address owner;\r\n        uint mvcs;\r\n        uint repTokens;\r\n    }\r\n\r\n    // Members of the DAO, currently hidden to users\r\n    mapping(address => Member) public skolNation;\r\n\r\n    // can reference with: app.clientUser(), app.skolNationCount().toNumber()\r\n    uint public skolNationCount;\r\n\r\n    // constructor (string memory name, string memory symbol) {\r\n    constructor (address mvcTokenAddress) {\r\n        //mvcToken = new MVCTokenContract.MVCToken(name,symbol);\r\n        mvcToken = MVCTokenContract.MVCToken(mvcTokenAddress);\r\n\r\n        // have made head coach proposals\r\n        address temp2 = 0xFeb798ed0E1eC865Bf80703cA1E1Bb7a48DdEAfa;\r\n        address temp3 = 0x48f84a00F895be17BD4Fa9e0731c7b39eAcd6FBe;\r\n        address temp4 = 0xCF16fe704d4b01ecDD98A41af04B92008D2a32CC;\r\n        address temp5 = 0x709E646fc789ec4b3D093C8871f66640E9c60616;\r\n        address temp6 = 0x0022872cD7Dc3E7eA18242D815B85bF972df29b7;\r\n        addMember(temp2,10); // Bill Belichick\r\n        addMember(temp3,9); // Mike Vrabel\r\n        addMember(temp4,8); // Brandon Staley\r\n        addMember(temp5,7); // Frank Reich\r\n        addMember(temp6,6); // Mike Zimmer\r\n\r\n        // voters\r\n        address temp7 = 0x29903d7E00703607844FCb5D1492B0AFC016E9bf;\r\n        address temp8 = 0x8c7Fe6BdEa2e1a76C80dCB75BC0086f96dF550c2;\r\n        address temp9 = 0x3f53E1a5c3c56bBd23d97890A28f9ce1c05ee563;\r\n        address temp10 = 0x23cCEB31284c9b13361dfE36447Ece97e38Cc887;\r\n        addMember(temp7, 5);\r\n        addMember(temp8, 4);\r\n        addMember(temp9, 3);\r\n        addMember(temp10, 1);\r\n\r\n        // voting demo\r\n        address temp1 = 0xf220d553fbbC28b6f381CbB2bE99D59De42d2F84;\r\n        addMember(temp1, 4);\r\n\r\n        //repToken = myRepToken;\r\n    }\r\n\r\n    // Adding members to the skolNation map giving them initial values of 4 MVCs and 0 REP tokens\r\n    function addMember(address owner, uint mvcAmount) private {\r\n        skolNationCount = skolNationCount.add(1);\r\n        skolNation[owner] = Member(owner,mvcAmount,0);\r\n\r\n        mvcToken.mint(owner,mvcAmount);\r\n    }\r\n\r\n    event newDAOMember(address newUser);\r\n\r\n    // function for a new user to join the DAO\r\n    function joinDAO(address owner) public payable {\r\n        uint ethAmount = 2; // costing 2 eth to join the dao\r\n        require(msg.value == ethAmount.toWei(), 'Insufficient funds provided');\r\n\r\n        addMember(owner,4);\r\n\r\n        emit newDAOMember(owner);\r\n    }\r\n\r\n    // TODO: condense SkolFaithful and CoachVotingMechanism into a voting contract with the redistribution mechanism\r\n}",
  "sourcePath": "C:\\Users\\cooki\\OneDrive\\Documents\\Metro State Stuff\\690-Blockchain\\ics690-vikings-dapp\\contracts\\SkolFaithful.sol",
  "compiler": {
    "name": "solc",
    "version": "0.8.19+commit.7dd6d404.Emscripten.clang"
  },
  "schemaVersion": "3.4.16",
  "updatedAt": "2024-04-06T21:10:39.222Z",
  "networkType": "ethereum",
  "devdoc": {
    "kind": "dev",
    "methods": {},
    "version": 1
  },
  "userdoc": {
    "kind": "user",
    "methods": {},
    "version": 1
  }
}