{
  "contractName": "SkolFaithful",
  "abi": [
    {
      "inputs": [
        {
          "internalType": "address",
          "name": "mvcTokenAddress",
          "type": "address"
        },
        {
          "internalType": "address",
          "name": "repTokenAddress",
          "type": "address"
        }
      ],
      "stateMutability": "nonpayable",
      "type": "constructor"
    },
    {
      "inputs": [],
      "name": "mvcToken",
      "outputs": [
        {
          "internalType": "contract MVCToken",
          "name": "",
          "type": "address"
        }
      ],
      "stateMutability": "view",
      "type": "function",
      "constant": true
    },
    {
      "inputs": [],
      "name": "repToken",
      "outputs": [
        {
          "internalType": "contract REPToken",
          "name": "",
          "type": "address"
        }
      ],
      "stateMutability": "view",
      "type": "function",
      "constant": true
    },
    {
      "inputs": [
        {
          "internalType": "address",
          "name": "",
          "type": "address"
        }
      ],
      "name": "skolNation",
      "outputs": [
        {
          "internalType": "address",
          "name": "owner",
          "type": "address"
        },
        {
          "internalType": "uint256",
          "name": "mvcs",
          "type": "uint256"
        },
        {
          "internalType": "uint256",
          "name": "repTokens",
          "type": "uint256"
        }
      ],
      "stateMutability": "view",
      "type": "function",
      "constant": true
    },
    {
      "inputs": [],
      "name": "skolNationCount",
      "outputs": [
        {
          "internalType": "uint256",
          "name": "",
          "type": "uint256"
        }
      ],
      "stateMutability": "view",
      "type": "function",
      "constant": true
    },
    {
      "inputs": [
        {
          "internalType": "address",
          "name": "owner",
          "type": "address"
        },
        {
          "internalType": "uint256",
          "name": "amount",
          "type": "uint256"
        }
      ],
      "name": "mvcTransaction",
      "outputs": [],
      "stateMutability": "nonpayable",
      "type": "function"
    },
    {
      "inputs": [
        {
          "internalType": "address",
          "name": "owner",
          "type": "address"
        },
        {
          "internalType": "uint256",
          "name": "amount",
          "type": "uint256"
        }
      ],
      "name": "mvcReward",
      "outputs": [],
      "stateMutability": "nonpayable",
      "type": "function"
    },
    {
      "inputs": [
        {
          "internalType": "address",
          "name": "owner",
          "type": "address"
        },
        {
          "internalType": "uint256",
          "name": "repAmount",
          "type": "uint256"
        }
      ],
      "name": "repReward",
      "outputs": [],
      "stateMutability": "nonpayable",
      "type": "function"
    }
  ],
  "bytecode": "0x60806040523480156200001157600080fd5b5060405162000e5a38038062000e5a83398181016040528101906200003791906200049e565b816000806101000a81548173ffffffffffffffffffffffffffffffffffffffff021916908373ffffffffffffffffffffffffffffffffffffffff16021790555080600160006101000a81548173ffffffffffffffffffffffffffffffffffffffff021916908373ffffffffffffffffffffffffffffffffffffffff160217905550600073feb798ed0e1ec865bf80703ca1e1bb7a48ddeafa905060007348f84a00f895be17bd4fa9e0731c7b39eacd6fbe9050600073cf16fe704d4b01ecdd98a41af04b92008d2a32cc9050600073709e646fc789ec4b3d093c8871f66640e9c60616905060007222872cd7dc3e7ea18242d815b85bf972df29b790506200014785600a6200028160201b60201c565b6200015a8460096200028160201b60201c565b6200016d8360086200028160201b60201c565b620001808260076200028160201b60201c565b620001938160066200028160201b60201c565b60007329903d7e00703607844fcb5d1492b0afc016e9bf90506000738c7fe6bdea2e1a76c80dcb75bc0086f96df550c290506000733f53e1a5c3c56bbd23d97890a28f9ce1c05ee563905060007323cceb31284c9b13361dfe36447ece97e38cc88790506200020a8460056200028160201b60201c565b6200021d8360046200028160201b60201c565b620002308260036200028160201b60201c565b620002438160026200028160201b60201c565b600073f220d553fbbc28b6f381cbb2be99d59de42d2f8490506200026f8160046200028160201b60201c565b505050505050505050505050620005d7565b6200029960016003546200040360201b90919060201c565b60038190555060405180606001604052808373ffffffffffffffffffffffffffffffffffffffff1681526020018281526020016000815250600260008473ffffffffffffffffffffffffffffffffffffffff1673ffffffffffffffffffffffffffffffffffffffff16815260200190815260200160002060008201518160000160006101000a81548173ffffffffffffffffffffffffffffffffffffffff021916908373ffffffffffffffffffffffffffffffffffffffff160217905550602082015181600101556040820151816002015590505060008054906101000a900473ffffffffffffffffffffffffffffffffffffffff1673ffffffffffffffffffffffffffffffffffffffff166340c10f1983836040518363ffffffff1660e01b8152600401620003cb92919062000511565b600060405180830381600087803b158015620003e657600080fd5b505af1158015620003fb573d6000803e3d6000fd5b505050505050565b60008082846200041491906200056d565b9050838110156200042a5762000429620005a8565b5b8091505092915050565b600080fd5b600073ffffffffffffffffffffffffffffffffffffffff82169050919050565b6000620004668262000439565b9050919050565b620004788162000459565b81146200048457600080fd5b50565b60008151905062000498816200046d565b92915050565b60008060408385031215620004b857620004b762000434565b5b6000620004c88582860162000487565b9250506020620004db8582860162000487565b9150509250929050565b620004f08162000459565b82525050565b6000819050919050565b6200050b81620004f6565b82525050565b6000604082019050620005286000830185620004e5565b62000537602083018462000500565b9392505050565b7f4e487b7100000000000000000000000000000000000000000000000000000000600052601160045260246000fd5b60006200057a82620004f6565b91506200058783620004f6565b9250828201905080821115620005a257620005a16200053e565b5b92915050565b7f4e487b7100000000000000000000000000000000000000000000000000000000600052600160045260246000fd5b61087380620005e76000396000f3fe608060405234801561001057600080fd5b506004361061007d5760003560e01c806359eda6b81161005b57806359eda6b8146100d8578063600e9850146100f457806365b884e714610112578063dbf461da146101305761007d565b80630e7905061461008257806329034a5c1461009e5780632e12728b146100bc575b600080fd5b61009c6004803603810190610097919061053e565b610162565b005b6100a6610201565b6040516100b391906105dd565b60405180910390f35b6100d660048036038101906100d1919061053e565b610227565b005b6100f260048036038101906100ed919061053e565b6102ba565b005b6100fc6103de565b6040516101099190610619565b60405180910390f35b61011a610402565b6040516101279190610643565b60405180910390f35b61014a6004803603810190610145919061065e565b610408565b6040516101599392919061069a565b60405180910390f35b6101b781600260008573ffffffffffffffffffffffffffffffffffffffff1673ffffffffffffffffffffffffffffffffffffffff1681526020019081526020016000206001015461045290919063ffffffff16565b600260008473ffffffffffffffffffffffffffffffffffffffff1673ffffffffffffffffffffffffffffffffffffffff168152602001908152602001600020600101819055505050565b600160009054906101000a900473ffffffffffffffffffffffffffffffffffffffff1681565b600160009054906101000a900473ffffffffffffffffffffffffffffffffffffffff1673ffffffffffffffffffffffffffffffffffffffff166340c10f1983836040518363ffffffff1660e01b81526004016102849291906106d1565b600060405180830381600087803b15801561029e57600080fd5b505af11580156102b2573d6000803e3d6000fd5b505050505050565b80600260008473ffffffffffffffffffffffffffffffffffffffff1673ffffffffffffffffffffffffffffffffffffffff16815260200190815260200160002060010154101561033f576040517f08c379a000000000000000000000000000000000000000000000000000000000815260040161033690610757565b60405180910390fd5b61039481600260008573ffffffffffffffffffffffffffffffffffffffff1673ffffffffffffffffffffffffffffffffffffffff1681526020019081526020016000206001015461047e90919063ffffffff16565b600260008473ffffffffffffffffffffffffffffffffffffffff1673ffffffffffffffffffffffffffffffffffffffff168152602001908152602001600020600101819055505050565b60008054906101000a900473ffffffffffffffffffffffffffffffffffffffff1681565b60035481565b60026020528060005260406000206000915090508060000160009054906101000a900473ffffffffffffffffffffffffffffffffffffffff16908060010154908060020154905083565b600080828461046191906107a6565b905083811015610474576104736107da565b5b8091505092915050565b600082821115610491576104906107da565b5b818361049d9190610809565b905092915050565b600080fd5b600073ffffffffffffffffffffffffffffffffffffffff82169050919050565b60006104d5826104aa565b9050919050565b6104e5816104ca565b81146104f057600080fd5b50565b600081359050610502816104dc565b92915050565b6000819050919050565b61051b81610508565b811461052657600080fd5b50565b60008135905061053881610512565b92915050565b60008060408385031215610555576105546104a5565b5b6000610563858286016104f3565b925050602061057485828601610529565b9150509250929050565b6000819050919050565b60006105a361059e610599846104aa565b61057e565b6104aa565b9050919050565b60006105b582610588565b9050919050565b60006105c7826105aa565b9050919050565b6105d7816105bc565b82525050565b60006020820190506105f260008301846105ce565b92915050565b6000610603826105aa565b9050919050565b610613816105f8565b82525050565b600060208201905061062e600083018461060a565b92915050565b61063d81610508565b82525050565b60006020820190506106586000830184610634565b92915050565b600060208284031215610674576106736104a5565b5b6000610682848285016104f3565b91505092915050565b610694816104ca565b82525050565b60006060820190506106af600083018661068b565b6106bc6020830185610634565b6106c96040830184610634565b949350505050565b60006040820190506106e6600083018561068b565b6106f36020830184610634565b9392505050565b600082825260208201905092915050565b7f496e73756666696369656e74204d564320746f6b656e732062616c616e636500600082015250565b6000610741601f836106fa565b915061074c8261070b565b602082019050919050565b6000602082019050818103600083015261077081610734565b9050919050565b7f4e487b7100000000000000000000000000000000000000000000000000000000600052601160045260246000fd5b60006107b182610508565b91506107bc83610508565b92508282019050808211156107d4576107d3610777565b5b92915050565b7f4e487b7100000000000000000000000000000000000000000000000000000000600052600160045260246000fd5b600061081482610508565b915061081f83610508565b925082820390508181111561083757610836610777565b5b9291505056fea2646970667358221220b7368cb8219a20a18b370a3373fd80fd7ed6714285bbd97685618dd9e0ad7edb64736f6c63430008130033",
  "immutableReferences": {},
  "source": "// SPDX-License-Identifier: MIT\r\npragma solidity ^0.8.19;\r\n\r\nimport \"./safemath.sol\";\r\nimport \"./MVCToken.sol\" as MVCTokenContract;\r\nimport \"./REPToken.sol\" as REPTokenContract;\r\n\r\n// to interact with a deployed instance of this contract after running command \"truffle console\":\r\n// SkolFaithful.deployed().then(function(instance) {app = instance})\r\n// app.skolNation(0).then(function(c) {candidate=c})\r\n// web3.eth.getAccounts().then(function(ugh) {accounts=ugh})\r\n// ugh.skolNation(accounts[0]).then(function(c) {can=c})\r\n\r\ncontract SkolFaithful {\r\n    using SafeMath for uint;\r\n    MVCTokenContract.MVCToken public mvcToken;\r\n    REPTokenContract.REPToken public repToken;\r\n\r\n    struct Member {\r\n        address owner;\r\n        uint mvcs;\r\n        uint repTokens;\r\n    }\r\n\r\n    // Members of the DAO, currently hidden to users\r\n    mapping(address => Member) public skolNation;\r\n\r\n    // can reference with: app.clientUser(), app.skolNationCount().toNumber()\r\n    uint public skolNationCount;\r\n\r\n    constructor (address mvcTokenAddress, address repTokenAddress) {\r\n        mvcToken = MVCTokenContract.MVCToken(mvcTokenAddress);\r\n        repToken = REPTokenContract.REPToken(repTokenAddress);\r\n\r\n        // have made head coach proposals\r\n        address temp2 = 0xFeb798ed0E1eC865Bf80703cA1E1Bb7a48DdEAfa;\r\n        address temp3 = 0x48f84a00F895be17BD4Fa9e0731c7b39eAcd6FBe;\r\n        address temp4 = 0xCF16fe704d4b01ecDD98A41af04B92008D2a32CC;\r\n        address temp5 = 0x709E646fc789ec4b3D093C8871f66640E9c60616;\r\n        address temp6 = 0x0022872cD7Dc3E7eA18242D815B85bF972df29b7;\r\n        addMember(temp2,10); // Bill Belichick\r\n        addMember(temp3,9); // Mike Vrabel\r\n        addMember(temp4,8); // Brandon Staley\r\n        addMember(temp5,7); // Frank Reich\r\n        addMember(temp6,6);\r\n\r\n        // voters\r\n        address temp7 = 0x29903d7E00703607844FCb5D1492B0AFC016E9bf;\r\n        address temp8 = 0x8c7Fe6BdEa2e1a76C80dCB75BC0086f96dF550c2;\r\n        address temp9 = 0x3f53E1a5c3c56bBd23d97890A28f9ce1c05ee563;\r\n        address temp10 = 0x23cCEB31284c9b13361dfE36447Ece97e38Cc887;\r\n        addMember(temp7, 5);\r\n        addMember(temp8, 4);\r\n        addMember(temp9, 3);\r\n        addMember(temp10, 2);\r\n\r\n        // voting demo\r\n        address temp1 = 0xf220d553fbbC28b6f381CbB2bE99D59De42d2F84;\r\n        addMember(temp1, 4);\r\n\r\n    }\r\n\r\n    // Adding members to the skolNation map giving them initial values of 4 MVCs and 0 REP tokens\r\n    function addMember(address owner, uint mvcAmount) private {\r\n        skolNationCount = skolNationCount.add(1);\r\n        skolNation[owner] = Member(owner,mvcAmount,0);\r\n\r\n        // minting mvcAmount of MVCs and assigning it to the account\r\n        mvcToken.mint(owner,mvcAmount);\r\n    }\r\n\r\n    function mvcTransaction(address owner, uint amount) public {\r\n        // Ensure that the owner has enough MVC tokens to subtract\r\n        require(skolNation[owner].mvcs >= amount, \"Insufficient MVC tokens balance\");\r\n\r\n        // Subtract the specified amount of MVC tokens from the owner's balance\r\n        skolNation[owner].mvcs = skolNation[owner].mvcs.sub(amount);\r\n    }\r\n\r\n    function mvcReward(address owner, uint amount) public {\r\n        // Add the specified amount of MVC tokens from the owner's balance\r\n        skolNation[owner].mvcs = skolNation[owner].mvcs.add(amount);\r\n    }\r\n\r\n    function repReward(address owner, uint repAmount) public {\r\n        //skolNation[owner].repTokens = skolNation[owner].repTokens.add(repAmount);\r\n\r\n        // minting mvcAmount of MVCs and assigning it to the account\r\n        repToken.mint(owner,repAmount);\r\n    }\r\n}",
  "sourcePath": "C:\\Users\\cooki\\OneDrive\\Documents\\Metro State Stuff\\690-Blockchain\\ics690-vikings-dapp\\contracts\\SkolFaithful.sol",
  "compiler": {
    "name": "solc",
    "version": "0.8.19+commit.7dd6d404.Emscripten.clang"
  },
  "schemaVersion": "3.4.16",
  "updatedAt": "2024-04-24T00:48:06.407Z",
  "networkType": "ethereum",
  "devdoc": {
    "kind": "dev",
    "methods": {},
    "version": 1
  },
  "userdoc": {
    "kind": "user",
    "methods": {},
    "version": 1
  }
}